{
	"contracts/Voting.sol": {
		"Voting": {
			"abi": [
				{
					"inputs": [
						{
							"internalType": "string[]",
							"name": "_proposalNames",
							"type": "string[]"
						}
					],
					"stateMutability": "nonpayable",
					"type": "constructor"
				},
				{
					"anonymous": false,
					"inputs": [
						{
							"indexed": true,
							"internalType": "address",
							"name": "voter",
							"type": "address"
						},
						{
							"indexed": false,
							"internalType": "uint256",
							"name": "proposalId",
							"type": "uint256"
						}
					],
					"name": "VoteCast",
					"type": "event"
				},
				{
					"anonymous": false,
					"inputs": [
						{
							"indexed": false,
							"internalType": "bool",
							"name": "isActive",
							"type": "bool"
						}
					],
					"name": "VotingStatusChanged",
					"type": "event"
				},
				{
					"inputs": [
						{
							"internalType": "string",
							"name": "_name",
							"type": "string"
						}
					],
					"name": "addProposal",
					"outputs": [],
					"stateMutability": "nonpayable",
					"type": "function"
				},
				{
					"inputs": [],
					"name": "getProposals",
					"outputs": [
						{
							"components": [
								{
									"internalType": "string",
									"name": "name",
									"type": "string"
								},
								{
									"internalType": "uint256",
									"name": "voteCount",
									"type": "uint256"
								}
							],
							"internalType": "struct Voting.Proposal[]",
							"name": "",
							"type": "tuple[]"
						}
					],
					"stateMutability": "view",
					"type": "function"
				},
				{
					"inputs": [],
					"name": "getVotingStats",
					"outputs": [
						{
							"components": [
								{
									"internalType": "uint256",
									"name": "totalVotes",
									"type": "uint256"
								},
								{
									"internalType": "uint256",
									"name": "totalVoters",
									"type": "uint256"
								},
								{
									"internalType": "uint256",
									"name": "startTime",
									"type": "uint256"
								},
								{
									"internalType": "bool",
									"name": "isActive",
									"type": "bool"
								}
							],
							"internalType": "struct Voting.VotingStats",
							"name": "",
							"type": "tuple"
						}
					],
					"stateMutability": "view",
					"type": "function"
				},
				{
					"inputs": [],
					"name": "getWinningProposal",
					"outputs": [
						{
							"components": [
								{
									"internalType": "string",
									"name": "name",
									"type": "string"
								},
								{
									"internalType": "uint256",
									"name": "voteCount",
									"type": "uint256"
								}
							],
							"internalType": "struct Voting.Proposal",
							"name": "",
							"type": "tuple"
						}
					],
					"stateMutability": "view",
					"type": "function"
				},
				{
					"inputs": [],
					"name": "owner",
					"outputs": [
						{
							"internalType": "address",
							"name": "",
							"type": "address"
						}
					],
					"stateMutability": "view",
					"type": "function"
				},
				{
					"inputs": [
						{
							"internalType": "uint256",
							"name": "",
							"type": "uint256"
						}
					],
					"name": "proposals",
					"outputs": [
						{
							"internalType": "string",
							"name": "name",
							"type": "string"
						},
						{
							"internalType": "uint256",
							"name": "voteCount",
							"type": "uint256"
						}
					],
					"stateMutability": "view",
					"type": "function"
				},
				{
					"inputs": [
						{
							"internalType": "bool",
							"name": "_isActive",
							"type": "bool"
						}
					],
					"name": "setVotingStatus",
					"outputs": [],
					"stateMutability": "nonpayable",
					"type": "function"
				},
				{
					"inputs": [],
					"name": "stats",
					"outputs": [
						{
							"internalType": "uint256",
							"name": "totalVotes",
							"type": "uint256"
						},
						{
							"internalType": "uint256",
							"name": "totalVoters",
							"type": "uint256"
						},
						{
							"internalType": "uint256",
							"name": "startTime",
							"type": "uint256"
						},
						{
							"internalType": "bool",
							"name": "isActive",
							"type": "bool"
						}
					],
					"stateMutability": "view",
					"type": "function"
				},
				{
					"inputs": [
						{
							"internalType": "uint256",
							"name": "_proposalId",
							"type": "uint256"
						}
					],
					"name": "vote",
					"outputs": [],
					"stateMutability": "nonpayable",
					"type": "function"
				},
				{
					"inputs": [
						{
							"internalType": "address",
							"name": "",
							"type": "address"
						}
					],
					"name": "voters",
					"outputs": [
						{
							"internalType": "bool",
							"name": "",
							"type": "bool"
						}
					],
					"stateMutability": "view",
					"type": "function"
				}
			],
			"devdoc": {
				"kind": "dev",
				"methods": {},
				"version": 1
			},
			"evm": {
				"assembly": "    /* \"contracts/Voting.sol\":60:2610  contract Voting {... */\n  mstore(0x40, 0x80)\n    /* \"contracts/Voting.sol\":808:1126  constructor(string[] memory _proposalNames) {... */\n  callvalue\n  dup1\n  iszero\n  tag_1\n  jumpi\n  0x00\n  dup1\n  revert\ntag_1:\n  pop\n  mload(0x40)\n  sub(codesize, bytecodeSize)\n  dup1\n  bytecodeSize\n  dup4\n  codecopy\n  dup2\n  dup2\n  add\n  0x40\n  mstore\n  dup2\n  add\n  swap1\n  tag_2\n  swap2\n  swap1\n  tag_3\n  jump\t// in\ntag_2:\n    /* \"contracts/Voting.sol\":871:881  msg.sender */\n  caller\n    /* \"contracts/Voting.sol\":863:868  owner */\n  0x02\n  0x00\n    /* \"contracts/Voting.sol\":863:881  owner = msg.sender */\n  0x0100\n  exp\n  dup2\n  sload\n  dup2\n  0xffffffffffffffffffffffffffffffffffffffff\n  mul\n  not\n  and\n  swap1\n  dup4\n  0xffffffffffffffffffffffffffffffffffffffff\n  and\n  mul\n  or\n  swap1\n  sstore\n  pop\n    /* \"contracts/Voting.sol\":910:925  block.timestamp */\n  timestamp\n    /* \"contracts/Voting.sol\":892:897  stats */\n  0x03\n    /* \"contracts/Voting.sol\":892:907  stats.startTime */\n  0x02\n  add\n    /* \"contracts/Voting.sol\":892:925  stats.startTime = block.timestamp */\n  dup2\n  swap1\n  sstore\n  pop\n    /* \"contracts/Voting.sol\":953:957  true */\n  0x01\n    /* \"contracts/Voting.sol\":936:941  stats */\n  0x03\n    /* \"contracts/Voting.sol\":936:950  stats.isActive */\n  dup1\n  add\n  0x00\n    /* \"contracts/Voting.sol\":936:957  stats.isActive = true */\n  0x0100\n  exp\n  dup2\n  sload\n  dup2\n  0xff\n  mul\n  not\n  and\n  swap1\n  dup4\n  iszero\n  iszero\n  mul\n  or\n  swap1\n  sstore\n  pop\n    /* \"contracts/Voting.sol\":983:989  uint i */\n  0x00\n    /* \"contracts/Voting.sol\":978:1119  for (uint i = 0; i < _proposalNames.length; i++) {... */\ntag_6:\n    /* \"contracts/Voting.sol\":999:1013  _proposalNames */\n  dup2\n    /* \"contracts/Voting.sol\":999:1020  _proposalNames.length */\n  mload\n    /* \"contracts/Voting.sol\":995:996  i */\n  dup2\n    /* \"contracts/Voting.sol\":995:1020  i < _proposalNames.length */\n  lt\n    /* \"contracts/Voting.sol\":978:1119  for (uint i = 0; i < _proposalNames.length; i++) {... */\n  iszero\n  tag_7\n  jumpi\n    /* \"contracts/Voting.sol\":1042:1051  proposals */\n  0x00\n    /* \"contracts/Voting.sol\":1057:1106  Proposal({name: _proposalNames[i], voteCount: 0}) */\n  mload(0x40)\n  dup1\n  0x40\n  add\n  0x40\n  mstore\n  dup1\n    /* \"contracts/Voting.sol\":1073:1087  _proposalNames */\n  dup5\n    /* \"contracts/Voting.sol\":1088:1089  i */\n  dup5\n    /* \"contracts/Voting.sol\":1073:1090  _proposalNames[i] */\n  dup2\n  mload\n  dup2\n  lt\n  tag_9\n  jumpi\n  tag_10\n  tag_11\n  jump\t// in\ntag_10:\ntag_9:\n  0x20\n  mul\n  0x20\n  add\n  add\n  mload\n    /* \"contracts/Voting.sol\":1057:1106  Proposal({name: _proposalNames[i], voteCount: 0}) */\n  dup2\n  mstore\n  0x20\n  add\n    /* \"contracts/Voting.sol\":1103:1104  0 */\n  0x00\n    /* \"contracts/Voting.sol\":1057:1106  Proposal({name: _proposalNames[i], voteCount: 0}) */\n  dup2\n  mstore\n  pop\n    /* \"contracts/Voting.sol\":1042:1107  proposals.push(Proposal({name: _proposalNames[i], voteCount: 0})) */\n  swap1\n  dup1\n  0x01\n  dup2\n  sload\n  add\n  dup1\n  dup3\n  sstore\n  dup1\n  swap2\n  pop\n  pop\n  0x01\n  swap1\n  sub\n  swap1\n  0x00\n  mstore\n  keccak256(0x00, 0x20)\n  swap1\n  0x02\n  mul\n  add\n  0x00\n  swap1\n  swap2\n  swap1\n  swap2\n  swap1\n  swap2\n  pop\n  0x00\n  dup3\n  add\n  mload\n  dup2\n  0x00\n  add\n  swap1\n  dup2\n  tag_13\n  swap2\n  swap1\n  tag_14\n  jump\t// in\ntag_13:\n  pop\n  0x20\n  dup3\n  add\n  mload\n  dup2\n  0x01\n  add\n  sstore\n  pop\n  pop\n    /* \"contracts/Voting.sol\":1022:1025  i++ */\n  dup1\n  dup1\n  0x01\n  add\n  swap2\n  pop\n  pop\n    /* \"contracts/Voting.sol\":978:1119  for (uint i = 0; i < _proposalNames.length; i++) {... */\n  jump(tag_6)\ntag_7:\n  pop\n    /* \"contracts/Voting.sol\":808:1126  constructor(string[] memory _proposalNames) {... */\n  pop\n    /* \"contracts/Voting.sol\":60:2610  contract Voting {... */\n  jump(tag_15)\n    /* \"#utility.yul\":7:82   */\ntag_16:\n    /* \"#utility.yul\":40:46   */\n  0x00\n    /* \"#utility.yul\":73:75   */\n  0x40\n    /* \"#utility.yul\":67:76   */\n  mload\n    /* \"#utility.yul\":57:76   */\n  swap1\n  pop\n    /* \"#utility.yul\":7:82   */\n  swap1\n  jump\t// out\n    /* \"#utility.yul\":88:205   */\ntag_17:\n    /* \"#utility.yul\":197:198   */\n  0x00\n    /* \"#utility.yul\":194:195   */\n  dup1\n    /* \"#utility.yul\":187:199   */\n  revert\n    /* \"#utility.yul\":211:328   */\ntag_18:\n    /* \"#utility.yul\":320:321   */\n  0x00\n    /* \"#utility.yul\":317:318   */\n  dup1\n    /* \"#utility.yul\":310:322   */\n  revert\n    /* \"#utility.yul\":334:451   */\ntag_19:\n    /* \"#utility.yul\":443:444   */\n  0x00\n    /* \"#utility.yul\":440:441   */\n  dup1\n    /* \"#utility.yul\":433:445   */\n  revert\n    /* \"#utility.yul\":457:559   */\ntag_20:\n    /* \"#utility.yul\":498:504   */\n  0x00\n    /* \"#utility.yul\":549:551   */\n  0x1f\n    /* \"#utility.yul\":545:552   */\n  not\n    /* \"#utility.yul\":540:542   */\n  0x1f\n    /* \"#utility.yul\":533:538   */\n  dup4\n    /* \"#utility.yul\":529:543   */\n  add\n    /* \"#utility.yul\":525:553   */\n  and\n    /* \"#utility.yul\":515:553   */\n  swap1\n  pop\n    /* \"#utility.yul\":457:559   */\n  swap2\n  swap1\n  pop\n  jump\t// out\n    /* \"#utility.yul\":565:745   */\ntag_21:\n    /* \"#utility.yul\":613:690   */\n  0x4e487b7100000000000000000000000000000000000000000000000000000000\n    /* \"#utility.yul\":610:611   */\n  0x00\n    /* \"#utility.yul\":603:691   */\n  mstore\n    /* \"#utility.yul\":710:714   */\n  0x41\n    /* \"#utility.yul\":707:708   */\n  0x04\n    /* \"#utility.yul\":700:715   */\n  mstore\n    /* \"#utility.yul\":734:738   */\n  0x24\n    /* \"#utility.yul\":731:732   */\n  0x00\n    /* \"#utility.yul\":724:739   */\n  revert\n    /* \"#utility.yul\":751:1032   */\ntag_22:\n    /* \"#utility.yul\":834:861   */\n  tag_60\n    /* \"#utility.yul\":856:860   */\n  dup3\n    /* \"#utility.yul\":834:861   */\n  tag_20\n  jump\t// in\ntag_60:\n    /* \"#utility.yul\":826:832   */\n  dup2\n    /* \"#utility.yul\":822:862   */\n  add\n    /* \"#utility.yul\":964:970   */\n  dup2\n    /* \"#utility.yul\":952:962   */\n  dup2\n    /* \"#utility.yul\":949:971   */\n  lt\n    /* \"#utility.yul\":928:946   */\n  0xffffffffffffffff\n    /* \"#utility.yul\":916:926   */\n  dup3\n    /* \"#utility.yul\":913:947   */\n  gt\n    /* \"#utility.yul\":910:972   */\n  or\n    /* \"#utility.yul\":907:995   */\n  iszero\n  tag_61\n  jumpi\n    /* \"#utility.yul\":975:993   */\n  tag_62\n  tag_21\n  jump\t// in\ntag_62:\n    /* \"#utility.yul\":907:995   */\ntag_61:\n    /* \"#utility.yul\":1015:1025   */\n  dup1\n    /* \"#utility.yul\":1011:1013   */\n  0x40\n    /* \"#utility.yul\":1004:1026   */\n  mstore\n    /* \"#utility.yul\":794:1032   */\n  pop\n    /* \"#utility.yul\":751:1032   */\n  pop\n  pop\n  jump\t// out\n    /* \"#utility.yul\":1038:1167   */\ntag_23:\n    /* \"#utility.yul\":1072:1078   */\n  0x00\n    /* \"#utility.yul\":1099:1119   */\n  tag_64\n  tag_16\n  jump\t// in\ntag_64:\n    /* \"#utility.yul\":1089:1119   */\n  swap1\n  pop\n    /* \"#utility.yul\":1128:1161   */\n  tag_65\n    /* \"#utility.yul\":1156:1160   */\n  dup3\n    /* \"#utility.yul\":1148:1154   */\n  dup3\n    /* \"#utility.yul\":1128:1161   */\n  tag_22\n  jump\t// in\ntag_65:\n    /* \"#utility.yul\":1038:1167   */\n  swap2\n  swap1\n  pop\n  jump\t// out\n    /* \"#utility.yul\":1173:1494   */\ntag_24:\n    /* \"#utility.yul\":1260:1264   */\n  0x00\n    /* \"#utility.yul\":1350:1368   */\n  0xffffffffffffffff\n    /* \"#utility.yul\":1342:1348   */\n  dup3\n    /* \"#utility.yul\":1339:1369   */\n  gt\n    /* \"#utility.yul\":1336:1392   */\n  iszero\n  tag_67\n  jumpi\n    /* \"#utility.yul\":1372:1390   */\n  tag_68\n  tag_21\n  jump\t// in\ntag_68:\n    /* \"#utility.yul\":1336:1392   */\ntag_67:\n    /* \"#utility.yul\":1422:1426   */\n  0x20\n    /* \"#utility.yul\":1414:1420   */\n  dup3\n    /* \"#utility.yul\":1410:1427   */\n  mul\n    /* \"#utility.yul\":1402:1427   */\n  swap1\n  pop\n    /* \"#utility.yul\":1482:1486   */\n  0x20\n    /* \"#utility.yul\":1476:1480   */\n  dup2\n    /* \"#utility.yul\":1472:1487   */\n  add\n    /* \"#utility.yul\":1464:1487   */\n  swap1\n  pop\n    /* \"#utility.yul\":1173:1494   */\n  swap2\n  swap1\n  pop\n  jump\t// out\n    /* \"#utility.yul\":1500:1617   */\ntag_25:\n    /* \"#utility.yul\":1609:1610   */\n  0x00\n    /* \"#utility.yul\":1606:1607   */\n  dup1\n    /* \"#utility.yul\":1599:1611   */\n  revert\n    /* \"#utility.yul\":1623:1740   */\ntag_26:\n    /* \"#utility.yul\":1732:1733   */\n  0x00\n    /* \"#utility.yul\":1729:1730   */\n  dup1\n    /* \"#utility.yul\":1722:1734   */\n  revert\n    /* \"#utility.yul\":1746:2054   */\ntag_27:\n    /* \"#utility.yul\":1808:1812   */\n  0x00\n    /* \"#utility.yul\":1898:1916   */\n  0xffffffffffffffff\n    /* \"#utility.yul\":1890:1896   */\n  dup3\n    /* \"#utility.yul\":1887:1917   */\n  gt\n    /* \"#utility.yul\":1884:1940   */\n  iszero\n  tag_72\n  jumpi\n    /* \"#utility.yul\":1920:1938   */\n  tag_73\n  tag_21\n  jump\t// in\ntag_73:\n    /* \"#utility.yul\":1884:1940   */\ntag_72:\n    /* \"#utility.yul\":1958:1987   */\n  tag_74\n    /* \"#utility.yul\":1980:1986   */\n  dup3\n    /* \"#utility.yul\":1958:1987   */\n  tag_20\n  jump\t// in\ntag_74:\n    /* \"#utility.yul\":1950:1987   */\n  swap1\n  pop\n    /* \"#utility.yul\":2042:2046   */\n  0x20\n    /* \"#utility.yul\":2036:2040   */\n  dup2\n    /* \"#utility.yul\":2032:2047   */\n  add\n    /* \"#utility.yul\":2024:2047   */\n  swap1\n  pop\n    /* \"#utility.yul\":1746:2054   */\n  swap2\n  swap1\n  pop\n  jump\t// out\n    /* \"#utility.yul\":2060:2199   */\ntag_28:\n    /* \"#utility.yul\":2149:2155   */\n  dup3\n    /* \"#utility.yul\":2144:2147   */\n  dup2\n    /* \"#utility.yul\":2139:2142   */\n  dup4\n    /* \"#utility.yul\":2133:2156   */\n  mcopy\n    /* \"#utility.yul\":2190:2191   */\n  0x00\n    /* \"#utility.yul\":2181:2187   */\n  dup4\n    /* \"#utility.yul\":2176:2179   */\n  dup4\n    /* \"#utility.yul\":2172:2188   */\n  add\n    /* \"#utility.yul\":2165:2192   */\n  mstore\n    /* \"#utility.yul\":2060:2199   */\n  pop\n  pop\n  pop\n  jump\t// out\n    /* \"#utility.yul\":2205:2639   */\ntag_29:\n    /* \"#utility.yul\":2294:2299   */\n  0x00\n    /* \"#utility.yul\":2319:2385   */\n  tag_77\n    /* \"#utility.yul\":2335:2384   */\n  tag_78\n    /* \"#utility.yul\":2377:2383   */\n  dup5\n    /* \"#utility.yul\":2335:2384   */\n  tag_27\n  jump\t// in\ntag_78:\n    /* \"#utility.yul\":2319:2385   */\n  tag_23\n  jump\t// in\ntag_77:\n    /* \"#utility.yul\":2310:2385   */\n  swap1\n  pop\n    /* \"#utility.yul\":2408:2414   */\n  dup3\n    /* \"#utility.yul\":2401:2406   */\n  dup2\n    /* \"#utility.yul\":2394:2415   */\n  mstore\n    /* \"#utility.yul\":2446:2450   */\n  0x20\n    /* \"#utility.yul\":2439:2444   */\n  dup2\n    /* \"#utility.yul\":2435:2451   */\n  add\n    /* \"#utility.yul\":2484:2487   */\n  dup5\n    /* \"#utility.yul\":2475:2481   */\n  dup5\n    /* \"#utility.yul\":2470:2473   */\n  dup5\n    /* \"#utility.yul\":2466:2482   */\n  add\n    /* \"#utility.yul\":2463:2488   */\n  gt\n    /* \"#utility.yul\":2460:2572   */\n  iszero\n  tag_79\n  jumpi\n    /* \"#utility.yul\":2491:2570   */\n  tag_80\n  tag_26\n  jump\t// in\ntag_80:\n    /* \"#utility.yul\":2460:2572   */\ntag_79:\n    /* \"#utility.yul\":2581:2633   */\n  tag_81\n    /* \"#utility.yul\":2626:2632   */\n  dup5\n    /* \"#utility.yul\":2621:2624   */\n  dup3\n    /* \"#utility.yul\":2616:2619   */\n  dup6\n    /* \"#utility.yul\":2581:2633   */\n  tag_28\n  jump\t// in\ntag_81:\n    /* \"#utility.yul\":2300:2639   */\n  pop\n    /* \"#utility.yul\":2205:2639   */\n  swap4\n  swap3\n  pop\n  pop\n  pop\n  jump\t// out\n    /* \"#utility.yul\":2659:3014   */\ntag_30:\n    /* \"#utility.yul\":2726:2731   */\n  0x00\n    /* \"#utility.yul\":2775:2778   */\n  dup3\n    /* \"#utility.yul\":2768:2772   */\n  0x1f\n    /* \"#utility.yul\":2760:2766   */\n  dup4\n    /* \"#utility.yul\":2756:2773   */\n  add\n    /* \"#utility.yul\":2752:2779   */\n  slt\n    /* \"#utility.yul\":2742:2864   */\n  tag_83\n  jumpi\n    /* \"#utility.yul\":2783:2862   */\n  tag_84\n  tag_19\n  jump\t// in\ntag_84:\n    /* \"#utility.yul\":2742:2864   */\ntag_83:\n    /* \"#utility.yul\":2893:2899   */\n  dup2\n    /* \"#utility.yul\":2887:2900   */\n  mload\n    /* \"#utility.yul\":2918:3008   */\n  tag_85\n    /* \"#utility.yul\":3004:3007   */\n  dup5\n    /* \"#utility.yul\":2996:3002   */\n  dup3\n    /* \"#utility.yul\":2989:2993   */\n  0x20\n    /* \"#utility.yul\":2981:2987   */\n  dup7\n    /* \"#utility.yul\":2977:2994   */\n  add\n    /* \"#utility.yul\":2918:3008   */\n  tag_29\n  jump\t// in\ntag_85:\n    /* \"#utility.yul\":2909:3008   */\n  swap2\n  pop\n    /* \"#utility.yul\":2732:3014   */\n  pop\n    /* \"#utility.yul\":2659:3014   */\n  swap3\n  swap2\n  pop\n  pop\n  jump\t// out\n    /* \"#utility.yul\":3036:3996   */\ntag_31:\n    /* \"#utility.yul\":3153:3158   */\n  0x00\n    /* \"#utility.yul\":3178:3269   */\n  tag_87\n    /* \"#utility.yul\":3194:3268   */\n  tag_88\n    /* \"#utility.yul\":3261:3267   */\n  dup5\n    /* \"#utility.yul\":3194:3268   */\n  tag_24\n  jump\t// in\ntag_88:\n    /* \"#utility.yul\":3178:3269   */\n  tag_23\n  jump\t// in\ntag_87:\n    /* \"#utility.yul\":3169:3269   */\n  swap1\n  pop\n    /* \"#utility.yul\":3289:3294   */\n  dup1\n    /* \"#utility.yul\":3318:3324   */\n  dup4\n    /* \"#utility.yul\":3311:3316   */\n  dup3\n    /* \"#utility.yul\":3304:3325   */\n  mstore\n    /* \"#utility.yul\":3352:3356   */\n  0x20\n    /* \"#utility.yul\":3345:3350   */\n  dup3\n    /* \"#utility.yul\":3341:3357   */\n  add\n    /* \"#utility.yul\":3334:3357   */\n  swap1\n  pop\n    /* \"#utility.yul\":3405:3409   */\n  0x20\n    /* \"#utility.yul\":3397:3403   */\n  dup5\n    /* \"#utility.yul\":3393:3410   */\n  mul\n    /* \"#utility.yul\":3385:3391   */\n  dup4\n    /* \"#utility.yul\":3381:3411   */\n  add\n    /* \"#utility.yul\":3434:3437   */\n  dup6\n    /* \"#utility.yul\":3426:3432   */\n  dup2\n    /* \"#utility.yul\":3423:3438   */\n  gt\n    /* \"#utility.yul\":3420:3542   */\n  iszero\n  tag_89\n  jumpi\n    /* \"#utility.yul\":3453:3532   */\n  tag_90\n  tag_25\n  jump\t// in\ntag_90:\n    /* \"#utility.yul\":3420:3542   */\ntag_89:\n    /* \"#utility.yul\":3568:3574   */\n  dup4\n    /* \"#utility.yul\":3551:3990   */\ntag_91:\n    /* \"#utility.yul\":3585:3591   */\n  dup2\n    /* \"#utility.yul\":3580:3583   */\n  dup2\n    /* \"#utility.yul\":3577:3592   */\n  lt\n    /* \"#utility.yul\":3551:3990   */\n  iszero\n  tag_93\n  jumpi\n    /* \"#utility.yul\":3667:3670   */\n  dup1\n    /* \"#utility.yul\":3661:3671   */\n  mload\n    /* \"#utility.yul\":3703:3721   */\n  0xffffffffffffffff\n    /* \"#utility.yul\":3690:3701   */\n  dup2\n    /* \"#utility.yul\":3687:3722   */\n  gt\n    /* \"#utility.yul\":3684:3806   */\n  iszero\n  tag_94\n  jumpi\n    /* \"#utility.yul\":3725:3804   */\n  tag_95\n  tag_19\n  jump\t// in\ntag_95:\n    /* \"#utility.yul\":3684:3806   */\ntag_94:\n    /* \"#utility.yul\":3849:3860   */\n  dup1\n    /* \"#utility.yul\":3841:3847   */\n  dup7\n    /* \"#utility.yul\":3837:3861   */\n  add\n    /* \"#utility.yul\":3887:3945   */\n  tag_96\n    /* \"#utility.yul\":3941:3944   */\n  dup10\n    /* \"#utility.yul\":3929:3939   */\n  dup3\n    /* \"#utility.yul\":3887:3945   */\n  tag_30\n  jump\t// in\ntag_96:\n    /* \"#utility.yul\":3882:3885   */\n  dup6\n    /* \"#utility.yul\":3875:3946   */\n  mstore\n    /* \"#utility.yul\":3975:3979   */\n  0x20\n    /* \"#utility.yul\":3970:3973   */\n  dup6\n    /* \"#utility.yul\":3966:3980   */\n  add\n    /* \"#utility.yul\":3959:3980   */\n  swap5\n  pop\n    /* \"#utility.yul\":3627:3990   */\n  pop\n  pop\n    /* \"#utility.yul\":3611:3615   */\n  0x20\n    /* \"#utility.yul\":3606:3609   */\n  dup2\n    /* \"#utility.yul\":3602:3616   */\n  add\n    /* \"#utility.yul\":3595:3616   */\n  swap1\n  pop\n    /* \"#utility.yul\":3551:3990   */\n  jump(tag_91)\ntag_93:\n    /* \"#utility.yul\":3555:3576   */\n  pop\n    /* \"#utility.yul\":3159:3996   */\n  pop\n  pop\n    /* \"#utility.yul\":3036:3996   */\n  swap4\n  swap3\n  pop\n  pop\n  pop\n  jump\t// out\n    /* \"#utility.yul\":4018:4423   */\ntag_32:\n    /* \"#utility.yul\":4110:4115   */\n  0x00\n    /* \"#utility.yul\":4159:4162   */\n  dup3\n    /* \"#utility.yul\":4152:4156   */\n  0x1f\n    /* \"#utility.yul\":4144:4150   */\n  dup4\n    /* \"#utility.yul\":4140:4157   */\n  add\n    /* \"#utility.yul\":4136:4163   */\n  slt\n    /* \"#utility.yul\":4126:4248   */\n  tag_98\n  jumpi\n    /* \"#utility.yul\":4167:4246   */\n  tag_99\n  tag_19\n  jump\t// in\ntag_99:\n    /* \"#utility.yul\":4126:4248   */\ntag_98:\n    /* \"#utility.yul\":4277:4283   */\n  dup2\n    /* \"#utility.yul\":4271:4284   */\n  mload\n    /* \"#utility.yul\":4302:4417   */\n  tag_100\n    /* \"#utility.yul\":4413:4416   */\n  dup5\n    /* \"#utility.yul\":4405:4411   */\n  dup3\n    /* \"#utility.yul\":4398:4402   */\n  0x20\n    /* \"#utility.yul\":4390:4396   */\n  dup7\n    /* \"#utility.yul\":4386:4403   */\n  add\n    /* \"#utility.yul\":4302:4417   */\n  tag_31\n  jump\t// in\ntag_100:\n    /* \"#utility.yul\":4293:4417   */\n  swap2\n  pop\n    /* \"#utility.yul\":4116:4423   */\n  pop\n    /* \"#utility.yul\":4018:4423   */\n  swap3\n  swap2\n  pop\n  pop\n  jump\t// out\n    /* \"#utility.yul\":4429:5003   */\ntag_3:\n    /* \"#utility.yul\":4534:4540   */\n  0x00\n    /* \"#utility.yul\":4583:4585   */\n  0x20\n    /* \"#utility.yul\":4571:4580   */\n  dup3\n    /* \"#utility.yul\":4562:4569   */\n  dup5\n    /* \"#utility.yul\":4558:4581   */\n  sub\n    /* \"#utility.yul\":4554:4586   */\n  slt\n    /* \"#utility.yul\":4551:4670   */\n  iszero\n  tag_102\n  jumpi\n    /* \"#utility.yul\":4589:4668   */\n  tag_103\n  tag_17\n  jump\t// in\ntag_103:\n    /* \"#utility.yul\":4551:4670   */\ntag_102:\n    /* \"#utility.yul\":4730:4731   */\n  0x00\n    /* \"#utility.yul\":4719:4728   */\n  dup3\n    /* \"#utility.yul\":4715:4732   */\n  add\n    /* \"#utility.yul\":4709:4733   */\n  mload\n    /* \"#utility.yul\":4760:4778   */\n  0xffffffffffffffff\n    /* \"#utility.yul\":4752:4758   */\n  dup2\n    /* \"#utility.yul\":4749:4779   */\n  gt\n    /* \"#utility.yul\":4746:4863   */\n  iszero\n  tag_104\n  jumpi\n    /* \"#utility.yul\":4782:4861   */\n  tag_105\n  tag_18\n  jump\t// in\ntag_105:\n    /* \"#utility.yul\":4746:4863   */\ntag_104:\n    /* \"#utility.yul\":4887:4986   */\n  tag_106\n    /* \"#utility.yul\":4978:4985   */\n  dup5\n    /* \"#utility.yul\":4969:4975   */\n  dup3\n    /* \"#utility.yul\":4958:4967   */\n  dup6\n    /* \"#utility.yul\":4954:4976   */\n  add\n    /* \"#utility.yul\":4887:4986   */\n  tag_32\n  jump\t// in\ntag_106:\n    /* \"#utility.yul\":4877:4986   */\n  swap2\n  pop\n    /* \"#utility.yul\":4680:4996   */\n  pop\n    /* \"#utility.yul\":4429:5003   */\n  swap3\n  swap2\n  pop\n  pop\n  jump\t// out\n    /* \"#utility.yul\":5009:5189   */\ntag_11:\n    /* \"#utility.yul\":5057:5134   */\n  0x4e487b7100000000000000000000000000000000000000000000000000000000\n    /* \"#utility.yul\":5054:5055   */\n  0x00\n    /* \"#utility.yul\":5047:5135   */\n  mstore\n    /* \"#utility.yul\":5154:5158   */\n  0x32\n    /* \"#utility.yul\":5151:5152   */\n  0x04\n    /* \"#utility.yul\":5144:5159   */\n  mstore\n    /* \"#utility.yul\":5178:5182   */\n  0x24\n    /* \"#utility.yul\":5175:5176   */\n  0x00\n    /* \"#utility.yul\":5168:5183   */\n  revert\n    /* \"#utility.yul\":5195:5294   */\ntag_33:\n    /* \"#utility.yul\":5247:5253   */\n  0x00\n    /* \"#utility.yul\":5281:5286   */\n  dup2\n    /* \"#utility.yul\":5275:5287   */\n  mload\n    /* \"#utility.yul\":5265:5287   */\n  swap1\n  pop\n    /* \"#utility.yul\":5195:5294   */\n  swap2\n  swap1\n  pop\n  jump\t// out\n    /* \"#utility.yul\":5300:5480   */\ntag_34:\n    /* \"#utility.yul\":5348:5425   */\n  0x4e487b7100000000000000000000000000000000000000000000000000000000\n    /* \"#utility.yul\":5345:5346   */\n  0x00\n    /* \"#utility.yul\":5338:5426   */\n  mstore\n    /* \"#utility.yul\":5445:5449   */\n  0x22\n    /* \"#utility.yul\":5442:5443   */\n  0x04\n    /* \"#utility.yul\":5435:5450   */\n  mstore\n    /* \"#utility.yul\":5469:5473   */\n  0x24\n    /* \"#utility.yul\":5466:5467   */\n  0x00\n    /* \"#utility.yul\":5459:5474   */\n  revert\n    /* \"#utility.yul\":5486:5806   */\ntag_35:\n    /* \"#utility.yul\":5530:5536   */\n  0x00\n    /* \"#utility.yul\":5567:5568   */\n  0x02\n    /* \"#utility.yul\":5561:5565   */\n  dup3\n    /* \"#utility.yul\":5557:5569   */\n  div\n    /* \"#utility.yul\":5547:5569   */\n  swap1\n  pop\n    /* \"#utility.yul\":5614:5615   */\n  0x01\n    /* \"#utility.yul\":5608:5612   */\n  dup3\n    /* \"#utility.yul\":5604:5616   */\n  and\n    /* \"#utility.yul\":5635:5653   */\n  dup1\n    /* \"#utility.yul\":5625:5706   */\n  tag_111\n  jumpi\n    /* \"#utility.yul\":5691:5695   */\n  0x7f\n    /* \"#utility.yul\":5683:5689   */\n  dup3\n    /* \"#utility.yul\":5679:5696   */\n  and\n    /* \"#utility.yul\":5669:5696   */\n  swap2\n  pop\n    /* \"#utility.yul\":5625:5706   */\ntag_111:\n    /* \"#utility.yul\":5753:5755   */\n  0x20\n    /* \"#utility.yul\":5745:5751   */\n  dup3\n    /* \"#utility.yul\":5742:5756   */\n  lt\n    /* \"#utility.yul\":5722:5740   */\n  dup2\n    /* \"#utility.yul\":5719:5757   */\n  sub\n    /* \"#utility.yul\":5716:5800   */\n  tag_112\n  jumpi\n    /* \"#utility.yul\":5772:5790   */\n  tag_113\n  tag_34\n  jump\t// in\ntag_113:\n    /* \"#utility.yul\":5716:5800   */\ntag_112:\n    /* \"#utility.yul\":5537:5806   */\n  pop\n    /* \"#utility.yul\":5486:5806   */\n  swap2\n  swap1\n  pop\n  jump\t// out\n    /* \"#utility.yul\":5812:5953   */\ntag_36:\n    /* \"#utility.yul\":5861:5865   */\n  0x00\n    /* \"#utility.yul\":5884:5887   */\n  dup2\n    /* \"#utility.yul\":5876:5887   */\n  swap1\n  pop\n    /* \"#utility.yul\":5907:5910   */\n  dup2\n    /* \"#utility.yul\":5904:5905   */\n  0x00\n    /* \"#utility.yul\":5897:5911   */\n  mstore\n    /* \"#utility.yul\":5941:5945   */\n  0x20\n    /* \"#utility.yul\":5938:5939   */\n  0x00\n    /* \"#utility.yul\":5928:5946   */\n  keccak256\n    /* \"#utility.yul\":5920:5946   */\n  swap1\n  pop\n    /* \"#utility.yul\":5812:5953   */\n  swap2\n  swap1\n  pop\n  jump\t// out\n    /* \"#utility.yul\":5959:6052   */\ntag_37:\n    /* \"#utility.yul\":5996:6002   */\n  0x00\n    /* \"#utility.yul\":6043:6045   */\n  0x20\n    /* \"#utility.yul\":6038:6040   */\n  0x1f\n    /* \"#utility.yul\":6031:6036   */\n  dup4\n    /* \"#utility.yul\":6027:6041   */\n  add\n    /* \"#utility.yul\":6023:6046   */\n  div\n    /* \"#utility.yul\":6013:6046   */\n  swap1\n  pop\n    /* \"#utility.yul\":5959:6052   */\n  swap2\n  swap1\n  pop\n  jump\t// out\n    /* \"#utility.yul\":6058:6165   */\ntag_38:\n    /* \"#utility.yul\":6102:6110   */\n  0x00\n    /* \"#utility.yul\":6152:6157   */\n  dup3\n    /* \"#utility.yul\":6146:6150   */\n  dup3\n    /* \"#utility.yul\":6142:6158   */\n  shl\n    /* \"#utility.yul\":6121:6158   */\n  swap1\n  pop\n    /* \"#utility.yul\":6058:6165   */\n  swap3\n  swap2\n  pop\n  pop\n  jump\t// out\n    /* \"#utility.yul\":6171:6564   */\ntag_39:\n    /* \"#utility.yul\":6240:6246   */\n  0x00\n    /* \"#utility.yul\":6290:6291   */\n  0x08\n    /* \"#utility.yul\":6278:6288   */\n  dup4\n    /* \"#utility.yul\":6274:6292   */\n  mul\n    /* \"#utility.yul\":6313:6410   */\n  tag_118\n    /* \"#utility.yul\":6343:6409   */\n  0xffffffffffffffffffffffffffffffffffffffffffffffffffffffffffffffff\n    /* \"#utility.yul\":6332:6341   */\n  dup3\n    /* \"#utility.yul\":6313:6410   */\n  tag_38\n  jump\t// in\ntag_118:\n    /* \"#utility.yul\":6431:6470   */\n  tag_119\n    /* \"#utility.yul\":6461:6469   */\n  dup7\n    /* \"#utility.yul\":6450:6459   */\n  dup4\n    /* \"#utility.yul\":6431:6470   */\n  tag_38\n  jump\t// in\ntag_119:\n    /* \"#utility.yul\":6419:6470   */\n  swap6\n  pop\n    /* \"#utility.yul\":6503:6507   */\n  dup1\n    /* \"#utility.yul\":6499:6508   */\n  not\n    /* \"#utility.yul\":6492:6497   */\n  dup5\n    /* \"#utility.yul\":6488:6509   */\n  and\n    /* \"#utility.yul\":6479:6509   */\n  swap4\n  pop\n    /* \"#utility.yul\":6552:6556   */\n  dup1\n    /* \"#utility.yul\":6542:6550   */\n  dup7\n    /* \"#utility.yul\":6538:6557   */\n  and\n    /* \"#utility.yul\":6531:6536   */\n  dup5\n    /* \"#utility.yul\":6528:6558   */\n  or\n    /* \"#utility.yul\":6518:6558   */\n  swap3\n  pop\n    /* \"#utility.yul\":6247:6564   */\n  pop\n  pop\n    /* \"#utility.yul\":6171:6564   */\n  swap4\n  swap3\n  pop\n  pop\n  pop\n  jump\t// out\n    /* \"#utility.yul\":6570:6647   */\ntag_40:\n    /* \"#utility.yul\":6607:6614   */\n  0x00\n    /* \"#utility.yul\":6636:6641   */\n  dup2\n    /* \"#utility.yul\":6625:6641   */\n  swap1\n  pop\n    /* \"#utility.yul\":6570:6647   */\n  swap2\n  swap1\n  pop\n  jump\t// out\n    /* \"#utility.yul\":6653:6713   */\ntag_41:\n    /* \"#utility.yul\":6681:6684   */\n  0x00\n    /* \"#utility.yul\":6702:6707   */\n  dup2\n    /* \"#utility.yul\":6695:6707   */\n  swap1\n  pop\n    /* \"#utility.yul\":6653:6713   */\n  swap2\n  swap1\n  pop\n  jump\t// out\n    /* \"#utility.yul\":6719:6861   */\ntag_42:\n    /* \"#utility.yul\":6769:6778   */\n  0x00\n    /* \"#utility.yul\":6802:6855   */\n  tag_123\n    /* \"#utility.yul\":6820:6854   */\n  tag_124\n    /* \"#utility.yul\":6829:6853   */\n  tag_125\n    /* \"#utility.yul\":6847:6852   */\n  dup5\n    /* \"#utility.yul\":6829:6853   */\n  tag_40\n  jump\t// in\ntag_125:\n    /* \"#utility.yul\":6820:6854   */\n  tag_41\n  jump\t// in\ntag_124:\n    /* \"#utility.yul\":6802:6855   */\n  tag_40\n  jump\t// in\ntag_123:\n    /* \"#utility.yul\":6789:6855   */\n  swap1\n  pop\n    /* \"#utility.yul\":6719:6861   */\n  swap2\n  swap1\n  pop\n  jump\t// out\n    /* \"#utility.yul\":6867:6942   */\ntag_43:\n    /* \"#utility.yul\":6910:6913   */\n  0x00\n    /* \"#utility.yul\":6931:6936   */\n  dup2\n    /* \"#utility.yul\":6924:6936   */\n  swap1\n  pop\n    /* \"#utility.yul\":6867:6942   */\n  swap2\n  swap1\n  pop\n  jump\t// out\n    /* \"#utility.yul\":6948:7217   */\ntag_44:\n    /* \"#utility.yul\":7058:7097   */\n  tag_128\n    /* \"#utility.yul\":7089:7096   */\n  dup4\n    /* \"#utility.yul\":7058:7097   */\n  tag_42\n  jump\t// in\ntag_128:\n    /* \"#utility.yul\":7119:7210   */\n  tag_129\n    /* \"#utility.yul\":7168:7209   */\n  tag_130\n    /* \"#utility.yul\":7192:7208   */\n  dup3\n    /* \"#utility.yul\":7168:7209   */\n  tag_43\n  jump\t// in\ntag_130:\n    /* \"#utility.yul\":7160:7166   */\n  dup5\n    /* \"#utility.yul\":7153:7157   */\n  dup5\n    /* \"#utility.yul\":7147:7158   */\n  sload\n    /* \"#utility.yul\":7119:7210   */\n  tag_39\n  jump\t// in\ntag_129:\n    /* \"#utility.yul\":7113:7117   */\n  dup3\n    /* \"#utility.yul\":7106:7211   */\n  sstore\n    /* \"#utility.yul\":7024:7217   */\n  pop\n    /* \"#utility.yul\":6948:7217   */\n  pop\n  pop\n  pop\n  jump\t// out\n    /* \"#utility.yul\":7223:7296   */\ntag_45:\n    /* \"#utility.yul\":7268:7271   */\n  0x00\n    /* \"#utility.yul\":7223:7296   */\n  swap1\n  jump\t// out\n    /* \"#utility.yul\":7302:7491   */\ntag_46:\n    /* \"#utility.yul\":7379:7411   */\n  tag_133\n  tag_45\n  jump\t// in\ntag_133:\n    /* \"#utility.yul\":7420:7485   */\n  tag_134\n    /* \"#utility.yul\":7478:7484   */\n  dup2\n    /* \"#utility.yul\":7470:7476   */\n  dup5\n    /* \"#utility.yul\":7464:7468   */\n  dup5\n    /* \"#utility.yul\":7420:7485   */\n  tag_44\n  jump\t// in\ntag_134:\n    /* \"#utility.yul\":7355:7491   */\n  pop\n    /* \"#utility.yul\":7302:7491   */\n  pop\n  pop\n  jump\t// out\n    /* \"#utility.yul\":7497:7683   */\ntag_47:\n    /* \"#utility.yul\":7557:7677   */\ntag_136:\n    /* \"#utility.yul\":7574:7577   */\n  dup2\n    /* \"#utility.yul\":7567:7572   */\n  dup2\n    /* \"#utility.yul\":7564:7578   */\n  lt\n    /* \"#utility.yul\":7557:7677   */\n  iszero\n  tag_138\n  jumpi\n    /* \"#utility.yul\":7628:7667   */\n  tag_139\n    /* \"#utility.yul\":7665:7666   */\n  0x00\n    /* \"#utility.yul\":7658:7663   */\n  dup3\n    /* \"#utility.yul\":7628:7667   */\n  tag_46\n  jump\t// in\ntag_139:\n    /* \"#utility.yul\":7601:7602   */\n  0x01\n    /* \"#utility.yul\":7594:7599   */\n  dup2\n    /* \"#utility.yul\":7590:7603   */\n  add\n    /* \"#utility.yul\":7581:7603   */\n  swap1\n  pop\n    /* \"#utility.yul\":7557:7677   */\n  jump(tag_136)\ntag_138:\n    /* \"#utility.yul\":7497:7683   */\n  pop\n  pop\n  jump\t// out\n    /* \"#utility.yul\":7689:8232   */\ntag_48:\n    /* \"#utility.yul\":7790:7792   */\n  0x1f\n    /* \"#utility.yul\":7785:7788   */\n  dup3\n    /* \"#utility.yul\":7782:7793   */\n  gt\n    /* \"#utility.yul\":7779:8225   */\n  iszero\n  tag_141\n  jumpi\n    /* \"#utility.yul\":7824:7862   */\n  tag_142\n    /* \"#utility.yul\":7856:7861   */\n  dup2\n    /* \"#utility.yul\":7824:7862   */\n  tag_36\n  jump\t// in\ntag_142:\n    /* \"#utility.yul\":7908:7937   */\n  tag_143\n    /* \"#utility.yul\":7926:7936   */\n  dup5\n    /* \"#utility.yul\":7908:7937   */\n  tag_37\n  jump\t// in\ntag_143:\n    /* \"#utility.yul\":7898:7906   */\n  dup2\n    /* \"#utility.yul\":7894:7938   */\n  add\n    /* \"#utility.yul\":8091:8093   */\n  0x20\n    /* \"#utility.yul\":8079:8089   */\n  dup6\n    /* \"#utility.yul\":8076:8094   */\n  lt\n    /* \"#utility.yul\":8073:8122   */\n  iszero\n  tag_144\n  jumpi\n    /* \"#utility.yul\":8112:8120   */\n  dup2\n    /* \"#utility.yul\":8097:8120   */\n  swap1\n  pop\n    /* \"#utility.yul\":8073:8122   */\ntag_144:\n    /* \"#utility.yul\":8135:8215   */\n  tag_145\n    /* \"#utility.yul\":8191:8213   */\n  tag_146\n    /* \"#utility.yul\":8209:8212   */\n  dup6\n    /* \"#utility.yul\":8191:8213   */\n  tag_37\n  jump\t// in\ntag_146:\n    /* \"#utility.yul\":8181:8189   */\n  dup4\n    /* \"#utility.yul\":8177:8214   */\n  add\n    /* \"#utility.yul\":8164:8175   */\n  dup3\n    /* \"#utility.yul\":8135:8215   */\n  tag_47\n  jump\t// in\ntag_145:\n    /* \"#utility.yul\":7794:8225   */\n  pop\n  pop\n    /* \"#utility.yul\":7779:8225   */\ntag_141:\n    /* \"#utility.yul\":7689:8232   */\n  pop\n  pop\n  pop\n  jump\t// out\n    /* \"#utility.yul\":8238:8355   */\ntag_49:\n    /* \"#utility.yul\":8292:8300   */\n  0x00\n    /* \"#utility.yul\":8342:8347   */\n  dup3\n    /* \"#utility.yul\":8336:8340   */\n  dup3\n    /* \"#utility.yul\":8332:8348   */\n  shr\n    /* \"#utility.yul\":8311:8348   */\n  swap1\n  pop\n    /* \"#utility.yul\":8238:8355   */\n  swap3\n  swap2\n  pop\n  pop\n  jump\t// out\n    /* \"#utility.yul\":8361:8530   */\ntag_50:\n    /* \"#utility.yul\":8405:8411   */\n  0x00\n    /* \"#utility.yul\":8438:8489   */\n  tag_149\n    /* \"#utility.yul\":8486:8487   */\n  0x00\n    /* \"#utility.yul\":8482:8488   */\n  not\n    /* \"#utility.yul\":8474:8479   */\n  dup5\n    /* \"#utility.yul\":8471:8472   */\n  0x08\n    /* \"#utility.yul\":8467:8480   */\n  mul\n    /* \"#utility.yul\":8438:8489   */\n  tag_49\n  jump\t// in\ntag_149:\n    /* \"#utility.yul\":8434:8490   */\n  not\n    /* \"#utility.yul\":8519:8523   */\n  dup1\n    /* \"#utility.yul\":8513:8517   */\n  dup4\n    /* \"#utility.yul\":8509:8524   */\n  and\n    /* \"#utility.yul\":8499:8524   */\n  swap2\n  pop\n    /* \"#utility.yul\":8412:8530   */\n  pop\n    /* \"#utility.yul\":8361:8530   */\n  swap3\n  swap2\n  pop\n  pop\n  jump\t// out\n    /* \"#utility.yul\":8535:8830   */\ntag_51:\n    /* \"#utility.yul\":8611:8615   */\n  0x00\n    /* \"#utility.yul\":8757:8786   */\n  tag_151\n    /* \"#utility.yul\":8782:8785   */\n  dup4\n    /* \"#utility.yul\":8776:8780   */\n  dup4\n    /* \"#utility.yul\":8757:8786   */\n  tag_50\n  jump\t// in\ntag_151:\n    /* \"#utility.yul\":8749:8786   */\n  swap2\n  pop\n    /* \"#utility.yul\":8819:8822   */\n  dup3\n    /* \"#utility.yul\":8816:8817   */\n  0x02\n    /* \"#utility.yul\":8812:8823   */\n  mul\n    /* \"#utility.yul\":8806:8810   */\n  dup3\n    /* \"#utility.yul\":8803:8824   */\n  or\n    /* \"#utility.yul\":8795:8824   */\n  swap1\n  pop\n    /* \"#utility.yul\":8535:8830   */\n  swap3\n  swap2\n  pop\n  pop\n  jump\t// out\n    /* \"#utility.yul\":8835:10230   */\ntag_14:\n    /* \"#utility.yul\":8952:8989   */\n  tag_153\n    /* \"#utility.yul\":8985:8988   */\n  dup3\n    /* \"#utility.yul\":8952:8989   */\n  tag_33\n  jump\t// in\ntag_153:\n    /* \"#utility.yul\":9054:9072   */\n  0xffffffffffffffff\n    /* \"#utility.yul\":9046:9052   */\n  dup2\n    /* \"#utility.yul\":9043:9073   */\n  gt\n    /* \"#utility.yul\":9040:9096   */\n  iszero\n  tag_154\n  jumpi\n    /* \"#utility.yul\":9076:9094   */\n  tag_155\n  tag_21\n  jump\t// in\ntag_155:\n    /* \"#utility.yul\":9040:9096   */\ntag_154:\n    /* \"#utility.yul\":9120:9158   */\n  tag_156\n    /* \"#utility.yul\":9152:9156   */\n  dup3\n    /* \"#utility.yul\":9146:9157   */\n  sload\n    /* \"#utility.yul\":9120:9158   */\n  tag_35\n  jump\t// in\ntag_156:\n    /* \"#utility.yul\":9205:9272   */\n  tag_157\n    /* \"#utility.yul\":9265:9271   */\n  dup3\n    /* \"#utility.yul\":9257:9263   */\n  dup3\n    /* \"#utility.yul\":9251:9255   */\n  dup6\n    /* \"#utility.yul\":9205:9272   */\n  tag_48\n  jump\t// in\ntag_157:\n    /* \"#utility.yul\":9299:9300   */\n  0x00\n    /* \"#utility.yul\":9323:9327   */\n  0x20\n    /* \"#utility.yul\":9310:9327   */\n  swap1\n  pop\n    /* \"#utility.yul\":9355:9357   */\n  0x1f\n    /* \"#utility.yul\":9347:9353   */\n  dup4\n    /* \"#utility.yul\":9344:9358   */\n  gt\n    /* \"#utility.yul\":9372:9373   */\n  0x01\n    /* \"#utility.yul\":9367:9985   */\n  dup2\n  eq\n  tag_159\n  jumpi\n    /* \"#utility.yul\":10029:10030   */\n  0x00\n    /* \"#utility.yul\":10046:10052   */\n  dup5\n    /* \"#utility.yul\":10043:10120   */\n  iszero\n  tag_160\n  jumpi\n    /* \"#utility.yul\":10095:10104   */\n  dup3\n    /* \"#utility.yul\":10090:10093   */\n  dup8\n    /* \"#utility.yul\":10086:10105   */\n  add\n    /* \"#utility.yul\":10080:10106   */\n  mload\n    /* \"#utility.yul\":10071:10106   */\n  swap1\n  pop\n    /* \"#utility.yul\":10043:10120   */\ntag_160:\n    /* \"#utility.yul\":10146:10213   */\n  tag_161\n    /* \"#utility.yul\":10206:10212   */\n  dup6\n    /* \"#utility.yul\":10199:10204   */\n  dup3\n    /* \"#utility.yul\":10146:10213   */\n  tag_51\n  jump\t// in\ntag_161:\n    /* \"#utility.yul\":10140:10144   */\n  dup7\n    /* \"#utility.yul\":10133:10214   */\n  sstore\n    /* \"#utility.yul\":10002:10224   */\n  pop\n    /* \"#utility.yul\":9337:10224   */\n  jump(tag_158)\n    /* \"#utility.yul\":9367:9985   */\ntag_159:\n    /* \"#utility.yul\":9419:9423   */\n  0x1f\n    /* \"#utility.yul\":9415:9424   */\n  not\n    /* \"#utility.yul\":9407:9413   */\n  dup5\n    /* \"#utility.yul\":9403:9425   */\n  and\n    /* \"#utility.yul\":9453:9490   */\n  tag_162\n    /* \"#utility.yul\":9485:9489   */\n  dup7\n    /* \"#utility.yul\":9453:9490   */\n  tag_36\n  jump\t// in\ntag_162:\n    /* \"#utility.yul\":9512:9513   */\n  0x00\n    /* \"#utility.yul\":9526:9734   */\ntag_163:\n    /* \"#utility.yul\":9540:9547   */\n  dup3\n    /* \"#utility.yul\":9537:9538   */\n  dup2\n    /* \"#utility.yul\":9534:9548   */\n  lt\n    /* \"#utility.yul\":9526:9734   */\n  iszero\n  tag_165\n  jumpi\n    /* \"#utility.yul\":9619:9628   */\n  dup5\n    /* \"#utility.yul\":9614:9617   */\n  dup10\n    /* \"#utility.yul\":9610:9629   */\n  add\n    /* \"#utility.yul\":9604:9630   */\n  mload\n    /* \"#utility.yul\":9596:9602   */\n  dup3\n    /* \"#utility.yul\":9589:9631   */\n  sstore\n    /* \"#utility.yul\":9670:9671   */\n  0x01\n    /* \"#utility.yul\":9662:9668   */\n  dup3\n    /* \"#utility.yul\":9658:9672   */\n  add\n    /* \"#utility.yul\":9648:9672   */\n  swap2\n  pop\n    /* \"#utility.yul\":9717:9719   */\n  0x20\n    /* \"#utility.yul\":9706:9715   */\n  dup6\n    /* \"#utility.yul\":9702:9720   */\n  add\n    /* \"#utility.yul\":9689:9720   */\n  swap5\n  pop\n    /* \"#utility.yul\":9563:9567   */\n  0x20\n    /* \"#utility.yul\":9560:9561   */\n  dup2\n    /* \"#utility.yul\":9556:9568   */\n  add\n    /* \"#utility.yul\":9551:9568   */\n  swap1\n  pop\n    /* \"#utility.yul\":9526:9734   */\n  jump(tag_163)\ntag_165:\n    /* \"#utility.yul\":9762:9768   */\n  dup7\n    /* \"#utility.yul\":9753:9760   */\n  dup4\n    /* \"#utility.yul\":9750:9769   */\n  lt\n    /* \"#utility.yul\":9747:9926   */\n  iszero\n  tag_166\n  jumpi\n    /* \"#utility.yul\":9820:9829   */\n  dup5\n    /* \"#utility.yul\":9815:9818   */\n  dup10\n    /* \"#utility.yul\":9811:9830   */\n  add\n    /* \"#utility.yul\":9805:9831   */\n  mload\n    /* \"#utility.yul\":9863:9911   */\n  tag_167\n    /* \"#utility.yul\":9905:9909   */\n  0x1f\n    /* \"#utility.yul\":9897:9903   */\n  dup10\n    /* \"#utility.yul\":9893:9910   */\n  and\n    /* \"#utility.yul\":9882:9891   */\n  dup3\n    /* \"#utility.yul\":9863:9911   */\n  tag_50\n  jump\t// in\ntag_167:\n    /* \"#utility.yul\":9855:9861   */\n  dup4\n    /* \"#utility.yul\":9848:9912   */\n  sstore\n    /* \"#utility.yul\":9770:9926   */\n  pop\n    /* \"#utility.yul\":9747:9926   */\ntag_166:\n    /* \"#utility.yul\":9972:9973   */\n  0x01\n    /* \"#utility.yul\":9968:9969   */\n  0x02\n    /* \"#utility.yul\":9960:9966   */\n  dup9\n    /* \"#utility.yul\":9956:9970   */\n  mul\n    /* \"#utility.yul\":9952:9974   */\n  add\n    /* \"#utility.yul\":9946:9950   */\n  dup9\n    /* \"#utility.yul\":9939:9975   */\n  sstore\n    /* \"#utility.yul\":9374:9985   */\n  pop\n  pop\n  pop\n    /* \"#utility.yul\":9337:10224   */\ntag_158:\n  pop\n    /* \"#utility.yul\":8927:10230   */\n  pop\n  pop\n  pop\n    /* \"#utility.yul\":8835:10230   */\n  pop\n  pop\n  jump\t// out\n    /* \"contracts/Voting.sol\":60:2610  contract Voting {... */\ntag_15:\n  dataSize(sub_0)\n  dup1\n  dataOffset(sub_0)\n  0x00\n  codecopy\n  0x00\n  return\nstop\n\nsub_0: assembly {\n        /* \"contracts/Voting.sol\":60:2610  contract Voting {... */\n      mstore(0x40, 0x80)\n      callvalue\n      dup1\n      iszero\n      tag_1\n      jumpi\n      0x00\n      dup1\n      revert\n    tag_1:\n      pop\n      jumpi(tag_2, lt(calldatasize, 0x04))\n      shr(0xe0, calldataload(0x00))\n      dup1\n      0x76804a03\n      gt\n      tag_13\n      jumpi\n      dup1\n      0x76804a03\n      eq\n      tag_8\n      jumpi\n      dup1\n      0x8da5cb5b\n      eq\n      tag_9\n      jumpi\n      dup1\n      0xa3ec138d\n      eq\n      tag_10\n      jumpi\n      dup1\n      0xa5134620\n      eq\n      tag_11\n      jumpi\n      dup1\n      0xd80528ae\n      eq\n      tag_12\n      jumpi\n      jump(tag_2)\n    tag_13:\n      dup1\n      0x0121b93f\n      eq\n      tag_3\n      jumpi\n      dup1\n      0x013cf08b\n      eq\n      tag_4\n      jumpi\n      dup1\n      0x2fdae3c5\n      eq\n      tag_5\n      jumpi\n      dup1\n      0x62564c48\n      eq\n      tag_6\n      jumpi\n      dup1\n      0x7478c9fe\n      eq\n      tag_7\n      jumpi\n    tag_2:\n      0x00\n      dup1\n      revert\n        /* \"contracts/Voting.sol\":1134:1534  function vote(uint _proposalId) external votingActive {... */\n    tag_3:\n      tag_14\n      0x04\n      dup1\n      calldatasize\n      sub\n      dup2\n      add\n      swap1\n      tag_15\n      swap2\n      swap1\n      tag_16\n      jump\t// in\n    tag_15:\n      tag_17\n      jump\t// in\n    tag_14:\n      stop\n        /* \"contracts/Voting.sol\":311:338  Proposal[] public proposals */\n    tag_4:\n      tag_18\n      0x04\n      dup1\n      calldatasize\n      sub\n      dup2\n      add\n      swap1\n      tag_19\n      swap2\n      swap1\n      tag_16\n      jump\t// in\n    tag_19:\n      tag_20\n      jump\t// in\n    tag_18:\n      mload(0x40)\n      tag_21\n      swap3\n      swap2\n      swap1\n      tag_22\n      jump\t// in\n    tag_21:\n      mload(0x40)\n      dup1\n      swap2\n      sub\n      swap1\n      return\n        /* \"contracts/Voting.sol\":1930:2063  function addProposal(string memory _name) external onlyOwner {... */\n    tag_5:\n      tag_23\n      0x04\n      dup1\n      calldatasize\n      sub\n      dup2\n      add\n      swap1\n      tag_24\n      swap2\n      swap1\n      tag_25\n      jump\t// in\n    tag_24:\n      tag_26\n      jump\t// in\n    tag_23:\n      stop\n        /* \"contracts/Voting.sol\":1542:1643  function getProposals() external view returns (Proposal[] memory) {... */\n    tag_6:\n      tag_27\n      tag_28\n      jump\t// in\n    tag_27:\n      mload(0x40)\n      tag_29\n      swap2\n      swap1\n      tag_30\n      jump\t// in\n    tag_29:\n      mload(0x40)\n      dup1\n      swap2\n      sub\n      swap1\n      return\n        /* \"contracts/Voting.sol\":1767:1918  function setVotingStatus(bool _isActive) external onlyOwner {... */\n    tag_7:\n      tag_31\n      0x04\n      dup1\n      calldatasize\n      sub\n      dup2\n      add\n      swap1\n      tag_32\n      swap2\n      swap1\n      tag_33\n      jump\t// in\n    tag_32:\n      tag_34\n      jump\t// in\n    tag_31:\n      stop\n        /* \"contracts/Voting.sol\":1655:1755  function getVotingStats() external view returns (VotingStats memory) {... */\n    tag_8:\n      tag_35\n      tag_36\n      jump\t// in\n    tag_35:\n      mload(0x40)\n      tag_37\n      swap2\n      swap1\n      tag_38\n      jump\t// in\n    tag_37:\n      mload(0x40)\n      dup1\n      swap2\n      sub\n      swap1\n      return\n        /* \"contracts/Voting.sol\":396:416  address public owner */\n    tag_9:\n      tag_39\n      tag_40\n      jump\t// in\n    tag_39:\n      mload(0x40)\n      tag_41\n      swap2\n      swap1\n      tag_42\n      jump\t// in\n    tag_41:\n      mload(0x40)\n      dup1\n      swap2\n      sub\n      swap1\n      return\n        /* \"contracts/Voting.sol\":345:383  mapping(address => bool) public voters */\n    tag_10:\n      tag_43\n      0x04\n      dup1\n      calldatasize\n      sub\n      dup2\n      add\n      swap1\n      tag_44\n      swap2\n      swap1\n      tag_45\n      jump\t// in\n    tag_44:\n      tag_46\n      jump\t// in\n    tag_43:\n      mload(0x40)\n      tag_47\n      swap2\n      swap1\n      tag_48\n      jump\t// in\n    tag_47:\n      mload(0x40)\n      dup1\n      swap2\n      sub\n      swap1\n      return\n        /* \"contracts/Voting.sol\":2075:2607  function getWinningProposal() external view returns (Proposal memory) {... */\n    tag_11:\n      tag_49\n      tag_50\n      jump\t// in\n    tag_49:\n      mload(0x40)\n      tag_51\n      swap2\n      swap1\n      tag_52\n      jump\t// in\n    tag_51:\n      mload(0x40)\n      dup1\n      swap2\n      sub\n      swap1\n      return\n        /* \"contracts/Voting.sol\":423:447  VotingStats public stats */\n    tag_12:\n      tag_53\n      tag_54\n      jump\t// in\n    tag_53:\n      mload(0x40)\n      tag_55\n      swap5\n      swap4\n      swap3\n      swap2\n      swap1\n      tag_56\n      jump\t// in\n    tag_55:\n      mload(0x40)\n      dup1\n      swap2\n      sub\n      swap1\n      return\n        /* \"contracts/Voting.sol\":1134:1534  function vote(uint _proposalId) external votingActive {... */\n    tag_17:\n        /* \"contracts/Voting.sol\":741:746  stats */\n      0x03\n        /* \"contracts/Voting.sol\":741:755  stats.isActive */\n      dup1\n      add\n      0x00\n      swap1\n      sload\n      swap1\n      0x0100\n      exp\n      swap1\n      div\n      0xff\n      and\n        /* \"contracts/Voting.sol\":733:780  require(stats.isActive, \"Voting is not active\") */\n      tag_58\n      jumpi\n      mload(0x40)\n      0x08c379a000000000000000000000000000000000000000000000000000000000\n      dup2\n      mstore\n      0x04\n      add\n      tag_59\n      swap1\n      tag_60\n      jump\t// in\n    tag_59:\n      mload(0x40)\n      dup1\n      swap2\n      sub\n      swap1\n      revert\n    tag_58:\n        /* \"contracts/Voting.sol\":1221:1230  proposals */\n      0x00\n        /* \"contracts/Voting.sol\":1221:1237  proposals.length */\n      dup1\n      sload\n      swap1\n      pop\n        /* \"contracts/Voting.sol\":1207:1218  _proposalId */\n      dup2\n        /* \"contracts/Voting.sol\":1207:1237  _proposalId < proposals.length */\n      lt\n        /* \"contracts/Voting.sol\":1199:1261  require(_proposalId < proposals.length, \"Invalid proposal ID\") */\n      tag_62\n      jumpi\n      mload(0x40)\n      0x08c379a000000000000000000000000000000000000000000000000000000000\n      dup2\n      mstore\n      0x04\n      add\n      tag_63\n      swap1\n      tag_64\n      jump\t// in\n    tag_63:\n      mload(0x40)\n      dup1\n      swap2\n      sub\n      swap1\n      revert\n    tag_62:\n        /* \"contracts/Voting.sol\":1281:1287  voters */\n      0x01\n        /* \"contracts/Voting.sol\":1281:1299  voters[msg.sender] */\n      0x00\n        /* \"contracts/Voting.sol\":1288:1298  msg.sender */\n      caller\n        /* \"contracts/Voting.sol\":1281:1299  voters[msg.sender] */\n      0xffffffffffffffffffffffffffffffffffffffff\n      and\n      0xffffffffffffffffffffffffffffffffffffffff\n      and\n      dup2\n      mstore\n      0x20\n      add\n      swap1\n      dup2\n      mstore\n      0x20\n      add\n      0x00\n      keccak256\n      0x00\n      swap1\n      sload\n      swap1\n      0x0100\n      exp\n      swap1\n      div\n      0xff\n      and\n        /* \"contracts/Voting.sol\":1280:1299  !voters[msg.sender] */\n      iszero\n        /* \"contracts/Voting.sol\":1272:1317  require(!voters[msg.sender], \"Already voted\") */\n      tag_65\n      jumpi\n      mload(0x40)\n      0x08c379a000000000000000000000000000000000000000000000000000000000\n      dup2\n      mstore\n      0x04\n      add\n      tag_66\n      swap1\n      tag_67\n      jump\t// in\n    tag_66:\n      mload(0x40)\n      dup1\n      swap2\n      sub\n      swap1\n      revert\n    tag_65:\n        /* \"contracts/Voting.sol\":1338:1347  proposals */\n      0x00\n        /* \"contracts/Voting.sol\":1348:1359  _proposalId */\n      dup2\n        /* \"contracts/Voting.sol\":1338:1360  proposals[_proposalId] */\n      dup2\n      sload\n      dup2\n      lt\n      tag_68\n      jumpi\n      tag_69\n      tag_70\n      jump\t// in\n    tag_69:\n    tag_68:\n      swap1\n      0x00\n      mstore\n      keccak256(0x00, 0x20)\n      swap1\n      0x02\n      mul\n      add\n        /* \"contracts/Voting.sol\":1338:1370  proposals[_proposalId].voteCount */\n      0x01\n      add\n      0x00\n        /* \"contracts/Voting.sol\":1338:1372  proposals[_proposalId].voteCount++ */\n      dup2\n      sload\n      dup1\n      swap3\n      swap2\n      swap1\n      tag_72\n      swap1\n      tag_73\n      jump\t// in\n    tag_72:\n      swap2\n      swap1\n      pop\n      sstore\n      pop\n        /* \"contracts/Voting.sol\":1404:1408  true */\n      0x01\n        /* \"contracts/Voting.sol\":1383:1389  voters */\n      dup1\n        /* \"contracts/Voting.sol\":1383:1401  voters[msg.sender] */\n      0x00\n        /* \"contracts/Voting.sol\":1390:1400  msg.sender */\n      caller\n        /* \"contracts/Voting.sol\":1383:1401  voters[msg.sender] */\n      0xffffffffffffffffffffffffffffffffffffffff\n      and\n      0xffffffffffffffffffffffffffffffffffffffff\n      and\n      dup2\n      mstore\n      0x20\n      add\n      swap1\n      dup2\n      mstore\n      0x20\n      add\n      0x00\n      keccak256\n      0x00\n        /* \"contracts/Voting.sol\":1383:1408  voters[msg.sender] = true */\n      0x0100\n      exp\n      dup2\n      sload\n      dup2\n      0xff\n      mul\n      not\n      and\n      swap1\n      dup4\n      iszero\n      iszero\n      mul\n      or\n      swap1\n      sstore\n      pop\n        /* \"contracts/Voting.sol\":1419:1424  stats */\n      0x03\n        /* \"contracts/Voting.sol\":1419:1435  stats.totalVotes */\n      0x00\n      add\n      0x00\n        /* \"contracts/Voting.sol\":1419:1437  stats.totalVotes++ */\n      dup2\n      sload\n      dup1\n      swap3\n      swap2\n      swap1\n      tag_74\n      swap1\n      tag_73\n      jump\t// in\n    tag_74:\n      swap2\n      swap1\n      pop\n      sstore\n      pop\n        /* \"contracts/Voting.sol\":1448:1453  stats */\n      0x03\n        /* \"contracts/Voting.sol\":1448:1465  stats.totalVoters */\n      0x01\n      add\n      0x00\n        /* \"contracts/Voting.sol\":1448:1467  stats.totalVoters++ */\n      dup2\n      sload\n      dup1\n      swap3\n      swap2\n      swap1\n      tag_75\n      swap1\n      tag_73\n      jump\t// in\n    tag_75:\n      swap2\n      swap1\n      pop\n      sstore\n      pop\n        /* \"contracts/Voting.sol\":1502:1512  msg.sender */\n      caller\n        /* \"contracts/Voting.sol\":1493:1526  VoteCast(msg.sender, _proposalId) */\n      0xffffffffffffffffffffffffffffffffffffffff\n      and\n      0xa36cc2bebb74db33e9f88110a07ef56e1b31b24b4c4f51b54b1664266e29f45b\n        /* \"contracts/Voting.sol\":1514:1525  _proposalId */\n      dup3\n        /* \"contracts/Voting.sol\":1493:1526  VoteCast(msg.sender, _proposalId) */\n      mload(0x40)\n      tag_76\n      swap2\n      swap1\n      tag_77\n      jump\t// in\n    tag_76:\n      mload(0x40)\n      dup1\n      swap2\n      sub\n      swap1\n      log2\n        /* \"contracts/Voting.sol\":1134:1534  function vote(uint _proposalId) external votingActive {... */\n      pop\n      jump\t// out\n        /* \"contracts/Voting.sol\":311:338  Proposal[] public proposals */\n    tag_20:\n      0x00\n      dup2\n      dup2\n      sload\n      dup2\n      lt\n      tag_78\n      jumpi\n      0x00\n      dup1\n      revert\n    tag_78:\n      swap1\n      0x00\n      mstore\n      keccak256(0x00, 0x20)\n      swap1\n      0x02\n      mul\n      add\n      0x00\n      swap2\n      pop\n      swap1\n      pop\n      dup1\n      0x00\n      add\n      dup1\n      sload\n      tag_80\n      swap1\n      tag_81\n      jump\t// in\n    tag_80:\n      dup1\n      0x1f\n      add\n      0x20\n      dup1\n      swap2\n      div\n      mul\n      0x20\n      add\n      mload(0x40)\n      swap1\n      dup2\n      add\n      0x40\n      mstore\n      dup1\n      swap3\n      swap2\n      swap1\n      dup2\n      dup2\n      mstore\n      0x20\n      add\n      dup3\n      dup1\n      sload\n      tag_82\n      swap1\n      tag_81\n      jump\t// in\n    tag_82:\n      dup1\n      iszero\n      tag_83\n      jumpi\n      dup1\n      0x1f\n      lt\n      tag_84\n      jumpi\n      0x0100\n      dup1\n      dup4\n      sload\n      div\n      mul\n      dup4\n      mstore\n      swap2\n      0x20\n      add\n      swap2\n      jump(tag_83)\n    tag_84:\n      dup3\n      add\n      swap2\n      swap1\n      0x00\n      mstore\n      keccak256(0x00, 0x20)\n      swap1\n    tag_85:\n      dup2\n      sload\n      dup2\n      mstore\n      swap1\n      0x01\n      add\n      swap1\n      0x20\n      add\n      dup1\n      dup4\n      gt\n      tag_85\n      jumpi\n      dup3\n      swap1\n      sub\n      0x1f\n      and\n      dup3\n      add\n      swap2\n    tag_83:\n      pop\n      pop\n      pop\n      pop\n      pop\n      swap1\n      dup1\n      0x01\n      add\n      sload\n      swap1\n      pop\n      dup3\n      jump\t// out\n        /* \"contracts/Voting.sol\":1930:2063  function addProposal(string memory _name) external onlyOwner {... */\n    tag_26:\n        /* \"contracts/Voting.sol\":627:632  owner */\n      0x02\n      0x00\n      swap1\n      sload\n      swap1\n      0x0100\n      exp\n      swap1\n      div\n      0xffffffffffffffffffffffffffffffffffffffff\n      and\n        /* \"contracts/Voting.sol\":613:632  msg.sender == owner */\n      0xffffffffffffffffffffffffffffffffffffffff\n      and\n        /* \"contracts/Voting.sol\":613:623  msg.sender */\n      caller\n        /* \"contracts/Voting.sol\":613:632  msg.sender == owner */\n      0xffffffffffffffffffffffffffffffffffffffff\n      and\n      eq\n        /* \"contracts/Voting.sol\":605:670  require(msg.sender == owner, \"Only owner can call this function\") */\n      tag_87\n      jumpi\n      mload(0x40)\n      0x08c379a000000000000000000000000000000000000000000000000000000000\n      dup2\n      mstore\n      0x04\n      add\n      tag_88\n      swap1\n      tag_89\n      jump\t// in\n    tag_88:\n      mload(0x40)\n      dup1\n      swap2\n      sub\n      swap1\n      revert\n    tag_87:\n        /* \"contracts/Voting.sol\":2002:2011  proposals */\n      0x00\n        /* \"contracts/Voting.sol\":2017:2054  Proposal({name: _name, voteCount: 0}) */\n      mload(0x40)\n      dup1\n      0x40\n      add\n      0x40\n      mstore\n      dup1\n        /* \"contracts/Voting.sol\":2033:2038  _name */\n      dup4\n        /* \"contracts/Voting.sol\":2017:2054  Proposal({name: _name, voteCount: 0}) */\n      dup2\n      mstore\n      0x20\n      add\n        /* \"contracts/Voting.sol\":2051:2052  0 */\n      0x00\n        /* \"contracts/Voting.sol\":2017:2054  Proposal({name: _name, voteCount: 0}) */\n      dup2\n      mstore\n      pop\n        /* \"contracts/Voting.sol\":2002:2055  proposals.push(Proposal({name: _name, voteCount: 0})) */\n      swap1\n      dup1\n      0x01\n      dup2\n      sload\n      add\n      dup1\n      dup3\n      sstore\n      dup1\n      swap2\n      pop\n      pop\n      0x01\n      swap1\n      sub\n      swap1\n      0x00\n      mstore\n      keccak256(0x00, 0x20)\n      swap1\n      0x02\n      mul\n      add\n      0x00\n      swap1\n      swap2\n      swap1\n      swap2\n      swap1\n      swap2\n      pop\n      0x00\n      dup3\n      add\n      mload\n      dup2\n      0x00\n      add\n      swap1\n      dup2\n      tag_92\n      swap2\n      swap1\n      tag_93\n      jump\t// in\n    tag_92:\n      pop\n      0x20\n      dup3\n      add\n      mload\n      dup2\n      0x01\n      add\n      sstore\n      pop\n      pop\n        /* \"contracts/Voting.sol\":1930:2063  function addProposal(string memory _name) external onlyOwner {... */\n      pop\n      jump\t// out\n        /* \"contracts/Voting.sol\":1542:1643  function getProposals() external view returns (Proposal[] memory) {... */\n    tag_28:\n        /* \"contracts/Voting.sol\":1589:1606  Proposal[] memory */\n      0x60\n        /* \"contracts/Voting.sol\":1626:1635  proposals */\n      0x00\n        /* \"contracts/Voting.sol\":1619:1635  return proposals */\n      dup1\n      sload\n      dup1\n      0x20\n      mul\n      0x20\n      add\n      mload(0x40)\n      swap1\n      dup2\n      add\n      0x40\n      mstore\n      dup1\n      swap3\n      swap2\n      swap1\n      dup2\n      dup2\n      mstore\n      0x20\n      add\n      0x00\n      swap1\n    tag_95:\n      dup3\n      dup3\n      lt\n      iszero\n      tag_96\n      jumpi\n      dup4\n      dup3\n      swap1\n      0x00\n      mstore\n      keccak256(0x00, 0x20)\n      swap1\n      0x02\n      mul\n      add\n      mload(0x40)\n      dup1\n      0x40\n      add\n      0x40\n      mstore\n      swap1\n      dup2\n      0x00\n      dup3\n      add\n      dup1\n      sload\n      tag_98\n      swap1\n      tag_81\n      jump\t// in\n    tag_98:\n      dup1\n      0x1f\n      add\n      0x20\n      dup1\n      swap2\n      div\n      mul\n      0x20\n      add\n      mload(0x40)\n      swap1\n      dup2\n      add\n      0x40\n      mstore\n      dup1\n      swap3\n      swap2\n      swap1\n      dup2\n      dup2\n      mstore\n      0x20\n      add\n      dup3\n      dup1\n      sload\n      tag_99\n      swap1\n      tag_81\n      jump\t// in\n    tag_99:\n      dup1\n      iszero\n      tag_100\n      jumpi\n      dup1\n      0x1f\n      lt\n      tag_101\n      jumpi\n      0x0100\n      dup1\n      dup4\n      sload\n      div\n      mul\n      dup4\n      mstore\n      swap2\n      0x20\n      add\n      swap2\n      jump(tag_100)\n    tag_101:\n      dup3\n      add\n      swap2\n      swap1\n      0x00\n      mstore\n      keccak256(0x00, 0x20)\n      swap1\n    tag_102:\n      dup2\n      sload\n      dup2\n      mstore\n      swap1\n      0x01\n      add\n      swap1\n      0x20\n      add\n      dup1\n      dup4\n      gt\n      tag_102\n      jumpi\n      dup3\n      swap1\n      sub\n      0x1f\n      and\n      dup3\n      add\n      swap2\n    tag_100:\n      pop\n      pop\n      pop\n      pop\n      pop\n      dup2\n      mstore\n      0x20\n      add\n      0x01\n      dup3\n      add\n      sload\n      dup2\n      mstore\n      pop\n      pop\n      dup2\n      mstore\n      0x20\n      add\n      swap1\n      0x01\n      add\n      swap1\n      jump(tag_95)\n    tag_96:\n      pop\n      pop\n      pop\n      pop\n      swap1\n      pop\n        /* \"contracts/Voting.sol\":1542:1643  function getProposals() external view returns (Proposal[] memory) {... */\n      swap1\n      jump\t// out\n        /* \"contracts/Voting.sol\":1767:1918  function setVotingStatus(bool _isActive) external onlyOwner {... */\n    tag_34:\n        /* \"contracts/Voting.sol\":627:632  owner */\n      0x02\n      0x00\n      swap1\n      sload\n      swap1\n      0x0100\n      exp\n      swap1\n      div\n      0xffffffffffffffffffffffffffffffffffffffff\n      and\n        /* \"contracts/Voting.sol\":613:632  msg.sender == owner */\n      0xffffffffffffffffffffffffffffffffffffffff\n      and\n        /* \"contracts/Voting.sol\":613:623  msg.sender */\n      caller\n        /* \"contracts/Voting.sol\":613:632  msg.sender == owner */\n      0xffffffffffffffffffffffffffffffffffffffff\n      and\n      eq\n        /* \"contracts/Voting.sol\":605:670  require(msg.sender == owner, \"Only owner can call this function\") */\n      tag_104\n      jumpi\n      mload(0x40)\n      0x08c379a000000000000000000000000000000000000000000000000000000000\n      dup2\n      mstore\n      0x04\n      add\n      tag_105\n      swap1\n      tag_89\n      jump\t// in\n    tag_105:\n      mload(0x40)\n      dup1\n      swap2\n      sub\n      swap1\n      revert\n    tag_104:\n        /* \"contracts/Voting.sol\":1855:1864  _isActive */\n      dup1\n        /* \"contracts/Voting.sol\":1838:1843  stats */\n      0x03\n        /* \"contracts/Voting.sol\":1838:1852  stats.isActive */\n      dup1\n      add\n      0x00\n        /* \"contracts/Voting.sol\":1838:1864  stats.isActive = _isActive */\n      0x0100\n      exp\n      dup2\n      sload\n      dup2\n      0xff\n      mul\n      not\n      and\n      swap1\n      dup4\n      iszero\n      iszero\n      mul\n      or\n      swap1\n      sstore\n      pop\n        /* \"contracts/Voting.sol\":1880:1910  VotingStatusChanged(_isActive) */\n      0x9069a1a16ace751e8690f383e12f87b01e8488ba387e626810bd113fef0417f9\n        /* \"contracts/Voting.sol\":1900:1909  _isActive */\n      dup2\n        /* \"contracts/Voting.sol\":1880:1910  VotingStatusChanged(_isActive) */\n      mload(0x40)\n      tag_107\n      swap2\n      swap1\n      tag_48\n      jump\t// in\n    tag_107:\n      mload(0x40)\n      dup1\n      swap2\n      sub\n      swap1\n      log1\n        /* \"contracts/Voting.sol\":1767:1918  function setVotingStatus(bool _isActive) external onlyOwner {... */\n      pop\n      jump\t// out\n        /* \"contracts/Voting.sol\":1655:1755  function getVotingStats() external view returns (VotingStats memory) {... */\n    tag_36:\n        /* \"contracts/Voting.sol\":1704:1722  VotingStats memory */\n      tag_108\n      tag_109\n      jump\t// in\n    tag_108:\n        /* \"contracts/Voting.sol\":1742:1747  stats */\n      0x03\n        /* \"contracts/Voting.sol\":1735:1747  return stats */\n      mload(0x40)\n      dup1\n      0x80\n      add\n      0x40\n      mstore\n      swap1\n      dup2\n      0x00\n      dup3\n      add\n      sload\n      dup2\n      mstore\n      0x20\n      add\n      0x01\n      dup3\n      add\n      sload\n      dup2\n      mstore\n      0x20\n      add\n      0x02\n      dup3\n      add\n      sload\n      dup2\n      mstore\n      0x20\n      add\n      0x03\n      dup3\n      add\n      0x00\n      swap1\n      sload\n      swap1\n      0x0100\n      exp\n      swap1\n      div\n      0xff\n      and\n      iszero\n      iszero\n      iszero\n      iszero\n      dup2\n      mstore\n      pop\n      pop\n      swap1\n      pop\n        /* \"contracts/Voting.sol\":1655:1755  function getVotingStats() external view returns (VotingStats memory) {... */\n      swap1\n      jump\t// out\n        /* \"contracts/Voting.sol\":396:416  address public owner */\n    tag_40:\n      0x02\n      0x00\n      swap1\n      sload\n      swap1\n      0x0100\n      exp\n      swap1\n      div\n      0xffffffffffffffffffffffffffffffffffffffff\n      and\n      dup2\n      jump\t// out\n        /* \"contracts/Voting.sol\":345:383  mapping(address => bool) public voters */\n    tag_46:\n      mstore(0x20, 0x01)\n      dup1\n      0x00\n      mstore\n      keccak256(0x00, 0x40)\n      0x00\n      swap2\n      pop\n      sload\n      swap1\n      0x0100\n      exp\n      swap1\n      div\n      0xff\n      and\n      dup2\n      jump\t// out\n        /* \"contracts/Voting.sol\":2075:2607  function getWinningProposal() external view returns (Proposal memory) {... */\n    tag_50:\n        /* \"contracts/Voting.sol\":2128:2143  Proposal memory */\n      tag_111\n      tag_112\n      jump\t// in\n    tag_111:\n        /* \"contracts/Voting.sol\":2183:2184  0 */\n      0x00\n        /* \"contracts/Voting.sol\":2164:2173  proposals */\n      dup1\n        /* \"contracts/Voting.sol\":2164:2180  proposals.length */\n      dup1\n      sload\n      swap1\n      pop\n        /* \"contracts/Voting.sol\":2164:2184  proposals.length > 0 */\n      gt\n        /* \"contracts/Voting.sol\":2156:2207  require(proposals.length > 0, \"No proposals exist\") */\n      tag_114\n      jumpi\n      mload(0x40)\n      0x08c379a000000000000000000000000000000000000000000000000000000000\n      dup2\n      mstore\n      0x04\n      add\n      tag_115\n      swap1\n      tag_116\n      jump\t// in\n    tag_115:\n      mload(0x40)\n      dup1\n      swap2\n      sub\n      swap1\n      revert\n    tag_114:\n        /* \"contracts/Voting.sol\":2228:2250  uint winningProposalId */\n      0x00\n        /* \"contracts/Voting.sol\":2265:2286  uint winningVoteCount */\n      dup1\n        /* \"contracts/Voting.sol\":2316:2322  uint i */\n      0x00\n        /* \"contracts/Voting.sol\":2311:2544  for (uint i = 0; i < proposals.length; i++) {... */\n    tag_117:\n        /* \"contracts/Voting.sol\":2332:2341  proposals */\n      0x00\n        /* \"contracts/Voting.sol\":2332:2348  proposals.length */\n      dup1\n      sload\n      swap1\n      pop\n        /* \"contracts/Voting.sol\":2328:2329  i */\n      dup2\n        /* \"contracts/Voting.sol\":2328:2348  i < proposals.length */\n      lt\n        /* \"contracts/Voting.sol\":2311:2544  for (uint i = 0; i < proposals.length; i++) {... */\n      iszero\n      tag_118\n      jumpi\n        /* \"contracts/Voting.sol\":2399:2415  winningVoteCount */\n      dup2\n        /* \"contracts/Voting.sol\":2374:2383  proposals */\n      0x00\n        /* \"contracts/Voting.sol\":2384:2385  i */\n      dup3\n        /* \"contracts/Voting.sol\":2374:2386  proposals[i] */\n      dup2\n      sload\n      dup2\n      lt\n      tag_120\n      jumpi\n      tag_121\n      tag_70\n      jump\t// in\n    tag_121:\n    tag_120:\n      swap1\n      0x00\n      mstore\n      keccak256(0x00, 0x20)\n      swap1\n      0x02\n      mul\n      add\n        /* \"contracts/Voting.sol\":2374:2396  proposals[i].voteCount */\n      0x01\n      add\n      sload\n        /* \"contracts/Voting.sol\":2374:2415  proposals[i].voteCount > winningVoteCount */\n      gt\n        /* \"contracts/Voting.sol\":2370:2533  if (proposals[i].voteCount > winningVoteCount) {... */\n      iszero\n      tag_123\n      jumpi\n        /* \"contracts/Voting.sol\":2455:2464  proposals */\n      0x00\n        /* \"contracts/Voting.sol\":2465:2466  i */\n      dup2\n        /* \"contracts/Voting.sol\":2455:2467  proposals[i] */\n      dup2\n      sload\n      dup2\n      lt\n      tag_124\n      jumpi\n      tag_125\n      tag_70\n      jump\t// in\n    tag_125:\n    tag_124:\n      swap1\n      0x00\n      mstore\n      keccak256(0x00, 0x20)\n      swap1\n      0x02\n      mul\n      add\n        /* \"contracts/Voting.sol\":2455:2477  proposals[i].voteCount */\n      0x01\n      add\n      sload\n        /* \"contracts/Voting.sol\":2436:2477  winningVoteCount = proposals[i].voteCount */\n      swap2\n      pop\n        /* \"contracts/Voting.sol\":2516:2517  i */\n      dup1\n        /* \"contracts/Voting.sol\":2496:2517  winningProposalId = i */\n      swap3\n      pop\n        /* \"contracts/Voting.sol\":2370:2533  if (proposals[i].voteCount > winningVoteCount) {... */\n    tag_123:\n        /* \"contracts/Voting.sol\":2350:2353  i++ */\n      dup1\n      dup1\n      0x01\n      add\n      swap2\n      pop\n      pop\n        /* \"contracts/Voting.sol\":2311:2544  for (uint i = 0; i < proposals.length; i++) {... */\n      jump(tag_117)\n    tag_118:\n      pop\n        /* \"contracts/Voting.sol\":2571:2580  proposals */\n      0x00\n        /* \"contracts/Voting.sol\":2581:2598  winningProposalId */\n      dup3\n        /* \"contracts/Voting.sol\":2571:2599  proposals[winningProposalId] */\n      dup2\n      sload\n      dup2\n      lt\n      tag_127\n      jumpi\n      tag_128\n      tag_70\n      jump\t// in\n    tag_128:\n    tag_127:\n      swap1\n      0x00\n      mstore\n      keccak256(0x00, 0x20)\n      swap1\n      0x02\n      mul\n      add\n        /* \"contracts/Voting.sol\":2564:2599  return proposals[winningProposalId] */\n      mload(0x40)\n      dup1\n      0x40\n      add\n      0x40\n      mstore\n      swap1\n      dup2\n      0x00\n      dup3\n      add\n      dup1\n      sload\n      tag_130\n      swap1\n      tag_81\n      jump\t// in\n    tag_130:\n      dup1\n      0x1f\n      add\n      0x20\n      dup1\n      swap2\n      div\n      mul\n      0x20\n      add\n      mload(0x40)\n      swap1\n      dup2\n      add\n      0x40\n      mstore\n      dup1\n      swap3\n      swap2\n      swap1\n      dup2\n      dup2\n      mstore\n      0x20\n      add\n      dup3\n      dup1\n      sload\n      tag_131\n      swap1\n      tag_81\n      jump\t// in\n    tag_131:\n      dup1\n      iszero\n      tag_132\n      jumpi\n      dup1\n      0x1f\n      lt\n      tag_133\n      jumpi\n      0x0100\n      dup1\n      dup4\n      sload\n      div\n      mul\n      dup4\n      mstore\n      swap2\n      0x20\n      add\n      swap2\n      jump(tag_132)\n    tag_133:\n      dup3\n      add\n      swap2\n      swap1\n      0x00\n      mstore\n      keccak256(0x00, 0x20)\n      swap1\n    tag_134:\n      dup2\n      sload\n      dup2\n      mstore\n      swap1\n      0x01\n      add\n      swap1\n      0x20\n      add\n      dup1\n      dup4\n      gt\n      tag_134\n      jumpi\n      dup3\n      swap1\n      sub\n      0x1f\n      and\n      dup3\n      add\n      swap2\n    tag_132:\n      pop\n      pop\n      pop\n      pop\n      pop\n      dup2\n      mstore\n      0x20\n      add\n      0x01\n      dup3\n      add\n      sload\n      dup2\n      mstore\n      pop\n      pop\n      swap3\n      pop\n      pop\n      pop\n        /* \"contracts/Voting.sol\":2075:2607  function getWinningProposal() external view returns (Proposal memory) {... */\n      swap1\n      jump\t// out\n        /* \"contracts/Voting.sol\":423:447  VotingStats public stats */\n    tag_54:\n      0x03\n      dup1\n      0x00\n      add\n      sload\n      swap1\n      dup1\n      0x01\n      add\n      sload\n      swap1\n      dup1\n      0x02\n      add\n      sload\n      swap1\n      dup1\n      0x03\n      add\n      0x00\n      swap1\n      sload\n      swap1\n      0x0100\n      exp\n      swap1\n      div\n      0xff\n      and\n      swap1\n      pop\n      dup5\n      jump\t// out\n    tag_109:\n      mload(0x40)\n      dup1\n      0x80\n      add\n      0x40\n      mstore\n      dup1\n      0x00\n      dup2\n      mstore\n      0x20\n      add\n      0x00\n      dup2\n      mstore\n      0x20\n      add\n      0x00\n      dup2\n      mstore\n      0x20\n      add\n      iszero(iszero(0x00))\n      dup2\n      mstore\n      pop\n      swap1\n      jump\t// out\n    tag_112:\n      mload(0x40)\n      dup1\n      0x40\n      add\n      0x40\n      mstore\n      dup1\n      0x60\n      dup2\n      mstore\n      0x20\n      add\n      0x00\n      dup2\n      mstore\n      pop\n      swap1\n      jump\t// out\n        /* \"#utility.yul\":7:82   */\n    tag_135:\n        /* \"#utility.yul\":40:46   */\n      0x00\n        /* \"#utility.yul\":73:75   */\n      0x40\n        /* \"#utility.yul\":67:76   */\n      mload\n        /* \"#utility.yul\":57:76   */\n      swap1\n      pop\n        /* \"#utility.yul\":7:82   */\n      swap1\n      jump\t// out\n        /* \"#utility.yul\":88:205   */\n    tag_136:\n        /* \"#utility.yul\":197:198   */\n      0x00\n        /* \"#utility.yul\":194:195   */\n      dup1\n        /* \"#utility.yul\":187:199   */\n      revert\n        /* \"#utility.yul\":211:328   */\n    tag_137:\n        /* \"#utility.yul\":320:321   */\n      0x00\n        /* \"#utility.yul\":317:318   */\n      dup1\n        /* \"#utility.yul\":310:322   */\n      revert\n        /* \"#utility.yul\":334:411   */\n    tag_138:\n        /* \"#utility.yul\":371:378   */\n      0x00\n        /* \"#utility.yul\":400:405   */\n      dup2\n        /* \"#utility.yul\":389:405   */\n      swap1\n      pop\n        /* \"#utility.yul\":334:411   */\n      swap2\n      swap1\n      pop\n      jump\t// out\n        /* \"#utility.yul\":417:539   */\n    tag_139:\n        /* \"#utility.yul\":490:514   */\n      tag_211\n        /* \"#utility.yul\":508:513   */\n      dup2\n        /* \"#utility.yul\":490:514   */\n      tag_138\n      jump\t// in\n    tag_211:\n        /* \"#utility.yul\":483:488   */\n      dup2\n        /* \"#utility.yul\":480:515   */\n      eq\n        /* \"#utility.yul\":470:533   */\n      tag_212\n      jumpi\n        /* \"#utility.yul\":529:530   */\n      0x00\n        /* \"#utility.yul\":526:527   */\n      dup1\n        /* \"#utility.yul\":519:531   */\n      revert\n        /* \"#utility.yul\":470:533   */\n    tag_212:\n        /* \"#utility.yul\":417:539   */\n      pop\n      jump\t// out\n        /* \"#utility.yul\":545:684   */\n    tag_140:\n        /* \"#utility.yul\":591:596   */\n      0x00\n        /* \"#utility.yul\":629:635   */\n      dup2\n        /* \"#utility.yul\":616:636   */\n      calldataload\n        /* \"#utility.yul\":607:636   */\n      swap1\n      pop\n        /* \"#utility.yul\":645:678   */\n      tag_214\n        /* \"#utility.yul\":672:677   */\n      dup2\n        /* \"#utility.yul\":645:678   */\n      tag_139\n      jump\t// in\n    tag_214:\n        /* \"#utility.yul\":545:684   */\n      swap3\n      swap2\n      pop\n      pop\n      jump\t// out\n        /* \"#utility.yul\":690:1019   */\n    tag_16:\n        /* \"#utility.yul\":749:755   */\n      0x00\n        /* \"#utility.yul\":798:800   */\n      0x20\n        /* \"#utility.yul\":786:795   */\n      dup3\n        /* \"#utility.yul\":777:784   */\n      dup5\n        /* \"#utility.yul\":773:796   */\n      sub\n        /* \"#utility.yul\":769:801   */\n      slt\n        /* \"#utility.yul\":766:885   */\n      iszero\n      tag_216\n      jumpi\n        /* \"#utility.yul\":804:883   */\n      tag_217\n      tag_136\n      jump\t// in\n    tag_217:\n        /* \"#utility.yul\":766:885   */\n    tag_216:\n        /* \"#utility.yul\":924:925   */\n      0x00\n        /* \"#utility.yul\":949:1002   */\n      tag_218\n        /* \"#utility.yul\":994:1001   */\n      dup5\n        /* \"#utility.yul\":985:991   */\n      dup3\n        /* \"#utility.yul\":974:983   */\n      dup6\n        /* \"#utility.yul\":970:992   */\n      add\n        /* \"#utility.yul\":949:1002   */\n      tag_140\n      jump\t// in\n    tag_218:\n        /* \"#utility.yul\":939:1002   */\n      swap2\n      pop\n        /* \"#utility.yul\":895:1012   */\n      pop\n        /* \"#utility.yul\":690:1019   */\n      swap3\n      swap2\n      pop\n      pop\n      jump\t// out\n        /* \"#utility.yul\":1025:1124   */\n    tag_141:\n        /* \"#utility.yul\":1077:1083   */\n      0x00\n        /* \"#utility.yul\":1111:1116   */\n      dup2\n        /* \"#utility.yul\":1105:1117   */\n      mload\n        /* \"#utility.yul\":1095:1117   */\n      swap1\n      pop\n        /* \"#utility.yul\":1025:1124   */\n      swap2\n      swap1\n      pop\n      jump\t// out\n        /* \"#utility.yul\":1130:1299   */\n    tag_142:\n        /* \"#utility.yul\":1214:1225   */\n      0x00\n        /* \"#utility.yul\":1248:1254   */\n      dup3\n        /* \"#utility.yul\":1243:1246   */\n      dup3\n        /* \"#utility.yul\":1236:1255   */\n      mstore\n        /* \"#utility.yul\":1288:1292   */\n      0x20\n        /* \"#utility.yul\":1283:1286   */\n      dup3\n        /* \"#utility.yul\":1279:1293   */\n      add\n        /* \"#utility.yul\":1264:1293   */\n      swap1\n      pop\n        /* \"#utility.yul\":1130:1299   */\n      swap3\n      swap2\n      pop\n      pop\n      jump\t// out\n        /* \"#utility.yul\":1305:1444   */\n    tag_143:\n        /* \"#utility.yul\":1394:1400   */\n      dup3\n        /* \"#utility.yul\":1389:1392   */\n      dup2\n        /* \"#utility.yul\":1384:1387   */\n      dup4\n        /* \"#utility.yul\":1378:1401   */\n      mcopy\n        /* \"#utility.yul\":1435:1436   */\n      0x00\n        /* \"#utility.yul\":1426:1432   */\n      dup4\n        /* \"#utility.yul\":1421:1424   */\n      dup4\n        /* \"#utility.yul\":1417:1433   */\n      add\n        /* \"#utility.yul\":1410:1437   */\n      mstore\n        /* \"#utility.yul\":1305:1444   */\n      pop\n      pop\n      pop\n      jump\t// out\n        /* \"#utility.yul\":1450:1552   */\n    tag_144:\n        /* \"#utility.yul\":1491:1497   */\n      0x00\n        /* \"#utility.yul\":1542:1544   */\n      0x1f\n        /* \"#utility.yul\":1538:1545   */\n      not\n        /* \"#utility.yul\":1533:1535   */\n      0x1f\n        /* \"#utility.yul\":1526:1531   */\n      dup4\n        /* \"#utility.yul\":1522:1536   */\n      add\n        /* \"#utility.yul\":1518:1546   */\n      and\n        /* \"#utility.yul\":1508:1546   */\n      swap1\n      pop\n        /* \"#utility.yul\":1450:1552   */\n      swap2\n      swap1\n      pop\n      jump\t// out\n        /* \"#utility.yul\":1558:1935   */\n    tag_145:\n        /* \"#utility.yul\":1646:1649   */\n      0x00\n        /* \"#utility.yul\":1674:1713   */\n      tag_224\n        /* \"#utility.yul\":1707:1712   */\n      dup3\n        /* \"#utility.yul\":1674:1713   */\n      tag_141\n      jump\t// in\n    tag_224:\n        /* \"#utility.yul\":1729:1800   */\n      tag_225\n        /* \"#utility.yul\":1793:1799   */\n      dup2\n        /* \"#utility.yul\":1788:1791   */\n      dup6\n        /* \"#utility.yul\":1729:1800   */\n      tag_142\n      jump\t// in\n    tag_225:\n        /* \"#utility.yul\":1722:1800   */\n      swap4\n      pop\n        /* \"#utility.yul\":1809:1874   */\n      tag_226\n        /* \"#utility.yul\":1867:1873   */\n      dup2\n        /* \"#utility.yul\":1862:1865   */\n      dup6\n        /* \"#utility.yul\":1855:1859   */\n      0x20\n        /* \"#utility.yul\":1848:1853   */\n      dup7\n        /* \"#utility.yul\":1844:1860   */\n      add\n        /* \"#utility.yul\":1809:1874   */\n      tag_143\n      jump\t// in\n    tag_226:\n        /* \"#utility.yul\":1899:1928   */\n      tag_227\n        /* \"#utility.yul\":1921:1927   */\n      dup2\n        /* \"#utility.yul\":1899:1928   */\n      tag_144\n      jump\t// in\n    tag_227:\n        /* \"#utility.yul\":1894:1897   */\n      dup5\n        /* \"#utility.yul\":1890:1929   */\n      add\n        /* \"#utility.yul\":1883:1929   */\n      swap2\n      pop\n        /* \"#utility.yul\":1650:1935   */\n      pop\n        /* \"#utility.yul\":1558:1935   */\n      swap3\n      swap2\n      pop\n      pop\n      jump\t// out\n        /* \"#utility.yul\":1941:2059   */\n    tag_146:\n        /* \"#utility.yul\":2028:2052   */\n      tag_229\n        /* \"#utility.yul\":2046:2051   */\n      dup2\n        /* \"#utility.yul\":2028:2052   */\n      tag_138\n      jump\t// in\n    tag_229:\n        /* \"#utility.yul\":2023:2026   */\n      dup3\n        /* \"#utility.yul\":2016:2053   */\n      mstore\n        /* \"#utility.yul\":1941:2059   */\n      pop\n      pop\n      jump\t// out\n        /* \"#utility.yul\":2065:2488   */\n    tag_22:\n        /* \"#utility.yul\":2206:2210   */\n      0x00\n        /* \"#utility.yul\":2244:2246   */\n      0x40\n        /* \"#utility.yul\":2233:2242   */\n      dup3\n        /* \"#utility.yul\":2229:2247   */\n      add\n        /* \"#utility.yul\":2221:2247   */\n      swap1\n      pop\n        /* \"#utility.yul\":2293:2302   */\n      dup2\n        /* \"#utility.yul\":2287:2291   */\n      dup2\n        /* \"#utility.yul\":2283:2303   */\n      sub\n        /* \"#utility.yul\":2279:2280   */\n      0x00\n        /* \"#utility.yul\":2268:2277   */\n      dup4\n        /* \"#utility.yul\":2264:2281   */\n      add\n        /* \"#utility.yul\":2257:2304   */\n      mstore\n        /* \"#utility.yul\":2321:2399   */\n      tag_231\n        /* \"#utility.yul\":2394:2398   */\n      dup2\n        /* \"#utility.yul\":2385:2391   */\n      dup6\n        /* \"#utility.yul\":2321:2399   */\n      tag_145\n      jump\t// in\n    tag_231:\n        /* \"#utility.yul\":2313:2399   */\n      swap1\n      pop\n        /* \"#utility.yul\":2409:2481   */\n      tag_232\n        /* \"#utility.yul\":2477:2479   */\n      0x20\n        /* \"#utility.yul\":2466:2475   */\n      dup4\n        /* \"#utility.yul\":2462:2480   */\n      add\n        /* \"#utility.yul\":2453:2459   */\n      dup5\n        /* \"#utility.yul\":2409:2481   */\n      tag_146\n      jump\t// in\n    tag_232:\n        /* \"#utility.yul\":2065:2488   */\n      swap4\n      swap3\n      pop\n      pop\n      pop\n      jump\t// out\n        /* \"#utility.yul\":2494:2611   */\n    tag_147:\n        /* \"#utility.yul\":2603:2604   */\n      0x00\n        /* \"#utility.yul\":2600:2601   */\n      dup1\n        /* \"#utility.yul\":2593:2605   */\n      revert\n        /* \"#utility.yul\":2617:2734   */\n    tag_148:\n        /* \"#utility.yul\":2726:2727   */\n      0x00\n        /* \"#utility.yul\":2723:2724   */\n      dup1\n        /* \"#utility.yul\":2716:2728   */\n      revert\n        /* \"#utility.yul\":2740:2920   */\n    tag_149:\n        /* \"#utility.yul\":2788:2865   */\n      0x4e487b7100000000000000000000000000000000000000000000000000000000\n        /* \"#utility.yul\":2785:2786   */\n      0x00\n        /* \"#utility.yul\":2778:2866   */\n      mstore\n        /* \"#utility.yul\":2885:2889   */\n      0x41\n        /* \"#utility.yul\":2882:2883   */\n      0x04\n        /* \"#utility.yul\":2875:2890   */\n      mstore\n        /* \"#utility.yul\":2909:2913   */\n      0x24\n        /* \"#utility.yul\":2906:2907   */\n      0x00\n        /* \"#utility.yul\":2899:2914   */\n      revert\n        /* \"#utility.yul\":2926:3207   */\n    tag_150:\n        /* \"#utility.yul\":3009:3036   */\n      tag_237\n        /* \"#utility.yul\":3031:3035   */\n      dup3\n        /* \"#utility.yul\":3009:3036   */\n      tag_144\n      jump\t// in\n    tag_237:\n        /* \"#utility.yul\":3001:3007   */\n      dup2\n        /* \"#utility.yul\":2997:3037   */\n      add\n        /* \"#utility.yul\":3139:3145   */\n      dup2\n        /* \"#utility.yul\":3127:3137   */\n      dup2\n        /* \"#utility.yul\":3124:3146   */\n      lt\n        /* \"#utility.yul\":3103:3121   */\n      0xffffffffffffffff\n        /* \"#utility.yul\":3091:3101   */\n      dup3\n        /* \"#utility.yul\":3088:3122   */\n      gt\n        /* \"#utility.yul\":3085:3147   */\n      or\n        /* \"#utility.yul\":3082:3170   */\n      iszero\n      tag_238\n      jumpi\n        /* \"#utility.yul\":3150:3168   */\n      tag_239\n      tag_149\n      jump\t// in\n    tag_239:\n        /* \"#utility.yul\":3082:3170   */\n    tag_238:\n        /* \"#utility.yul\":3190:3200   */\n      dup1\n        /* \"#utility.yul\":3186:3188   */\n      0x40\n        /* \"#utility.yul\":3179:3201   */\n      mstore\n        /* \"#utility.yul\":2969:3207   */\n      pop\n        /* \"#utility.yul\":2926:3207   */\n      pop\n      pop\n      jump\t// out\n        /* \"#utility.yul\":3213:3342   */\n    tag_151:\n        /* \"#utility.yul\":3247:3253   */\n      0x00\n        /* \"#utility.yul\":3274:3294   */\n      tag_241\n      tag_135\n      jump\t// in\n    tag_241:\n        /* \"#utility.yul\":3264:3294   */\n      swap1\n      pop\n        /* \"#utility.yul\":3303:3336   */\n      tag_242\n        /* \"#utility.yul\":3331:3335   */\n      dup3\n        /* \"#utility.yul\":3323:3329   */\n      dup3\n        /* \"#utility.yul\":3303:3336   */\n      tag_150\n      jump\t// in\n    tag_242:\n        /* \"#utility.yul\":3213:3342   */\n      swap2\n      swap1\n      pop\n      jump\t// out\n        /* \"#utility.yul\":3348:3656   */\n    tag_152:\n        /* \"#utility.yul\":3410:3414   */\n      0x00\n        /* \"#utility.yul\":3500:3518   */\n      0xffffffffffffffff\n        /* \"#utility.yul\":3492:3498   */\n      dup3\n        /* \"#utility.yul\":3489:3519   */\n      gt\n        /* \"#utility.yul\":3486:3542   */\n      iszero\n      tag_244\n      jumpi\n        /* \"#utility.yul\":3522:3540   */\n      tag_245\n      tag_149\n      jump\t// in\n    tag_245:\n        /* \"#utility.yul\":3486:3542   */\n    tag_244:\n        /* \"#utility.yul\":3560:3589   */\n      tag_246\n        /* \"#utility.yul\":3582:3588   */\n      dup3\n        /* \"#utility.yul\":3560:3589   */\n      tag_144\n      jump\t// in\n    tag_246:\n        /* \"#utility.yul\":3552:3589   */\n      swap1\n      pop\n        /* \"#utility.yul\":3644:3648   */\n      0x20\n        /* \"#utility.yul\":3638:3642   */\n      dup2\n        /* \"#utility.yul\":3634:3649   */\n      add\n        /* \"#utility.yul\":3626:3649   */\n      swap1\n      pop\n        /* \"#utility.yul\":3348:3656   */\n      swap2\n      swap1\n      pop\n      jump\t// out\n        /* \"#utility.yul\":3662:3810   */\n    tag_153:\n        /* \"#utility.yul\":3760:3766   */\n      dup3\n        /* \"#utility.yul\":3755:3758   */\n      dup2\n        /* \"#utility.yul\":3750:3753   */\n      dup4\n        /* \"#utility.yul\":3737:3767   */\n      calldatacopy\n        /* \"#utility.yul\":3801:3802   */\n      0x00\n        /* \"#utility.yul\":3792:3798   */\n      dup4\n        /* \"#utility.yul\":3787:3790   */\n      dup4\n        /* \"#utility.yul\":3783:3799   */\n      add\n        /* \"#utility.yul\":3776:3803   */\n      mstore\n        /* \"#utility.yul\":3662:3810   */\n      pop\n      pop\n      pop\n      jump\t// out\n        /* \"#utility.yul\":3816:4241   */\n    tag_154:\n        /* \"#utility.yul\":3894:3899   */\n      0x00\n        /* \"#utility.yul\":3919:3985   */\n      tag_249\n        /* \"#utility.yul\":3935:3984   */\n      tag_250\n        /* \"#utility.yul\":3977:3983   */\n      dup5\n        /* \"#utility.yul\":3935:3984   */\n      tag_152\n      jump\t// in\n    tag_250:\n        /* \"#utility.yul\":3919:3985   */\n      tag_151\n      jump\t// in\n    tag_249:\n        /* \"#utility.yul\":3910:3985   */\n      swap1\n      pop\n        /* \"#utility.yul\":4008:4014   */\n      dup3\n        /* \"#utility.yul\":4001:4006   */\n      dup2\n        /* \"#utility.yul\":3994:4015   */\n      mstore\n        /* \"#utility.yul\":4046:4050   */\n      0x20\n        /* \"#utility.yul\":4039:4044   */\n      dup2\n        /* \"#utility.yul\":4035:4051   */\n      add\n        /* \"#utility.yul\":4084:4087   */\n      dup5\n        /* \"#utility.yul\":4075:4081   */\n      dup5\n        /* \"#utility.yul\":4070:4073   */\n      dup5\n        /* \"#utility.yul\":4066:4082   */\n      add\n        /* \"#utility.yul\":4063:4088   */\n      gt\n        /* \"#utility.yul\":4060:4172   */\n      iszero\n      tag_251\n      jumpi\n        /* \"#utility.yul\":4091:4170   */\n      tag_252\n      tag_148\n      jump\t// in\n    tag_252:\n        /* \"#utility.yul\":4060:4172   */\n    tag_251:\n        /* \"#utility.yul\":4181:4235   */\n      tag_253\n        /* \"#utility.yul\":4228:4234   */\n      dup5\n        /* \"#utility.yul\":4223:4226   */\n      dup3\n        /* \"#utility.yul\":4218:4221   */\n      dup6\n        /* \"#utility.yul\":4181:4235   */\n      tag_153\n      jump\t// in\n    tag_253:\n        /* \"#utility.yul\":3900:4241   */\n      pop\n        /* \"#utility.yul\":3816:4241   */\n      swap4\n      swap3\n      pop\n      pop\n      pop\n      jump\t// out\n        /* \"#utility.yul\":4261:4601   */\n    tag_155:\n        /* \"#utility.yul\":4317:4322   */\n      0x00\n        /* \"#utility.yul\":4366:4369   */\n      dup3\n        /* \"#utility.yul\":4359:4363   */\n      0x1f\n        /* \"#utility.yul\":4351:4357   */\n      dup4\n        /* \"#utility.yul\":4347:4364   */\n      add\n        /* \"#utility.yul\":4343:4370   */\n      slt\n        /* \"#utility.yul\":4333:4455   */\n      tag_255\n      jumpi\n        /* \"#utility.yul\":4374:4453   */\n      tag_256\n      tag_147\n      jump\t// in\n    tag_256:\n        /* \"#utility.yul\":4333:4455   */\n    tag_255:\n        /* \"#utility.yul\":4491:4497   */\n      dup2\n        /* \"#utility.yul\":4478:4498   */\n      calldataload\n        /* \"#utility.yul\":4516:4595   */\n      tag_257\n        /* \"#utility.yul\":4591:4594   */\n      dup5\n        /* \"#utility.yul\":4583:4589   */\n      dup3\n        /* \"#utility.yul\":4576:4580   */\n      0x20\n        /* \"#utility.yul\":4568:4574   */\n      dup7\n        /* \"#utility.yul\":4564:4581   */\n      add\n        /* \"#utility.yul\":4516:4595   */\n      tag_154\n      jump\t// in\n    tag_257:\n        /* \"#utility.yul\":4507:4595   */\n      swap2\n      pop\n        /* \"#utility.yul\":4323:4601   */\n      pop\n        /* \"#utility.yul\":4261:4601   */\n      swap3\n      swap2\n      pop\n      pop\n      jump\t// out\n        /* \"#utility.yul\":4607:5116   */\n    tag_25:\n        /* \"#utility.yul\":4676:4682   */\n      0x00\n        /* \"#utility.yul\":4725:4727   */\n      0x20\n        /* \"#utility.yul\":4713:4722   */\n      dup3\n        /* \"#utility.yul\":4704:4711   */\n      dup5\n        /* \"#utility.yul\":4700:4723   */\n      sub\n        /* \"#utility.yul\":4696:4728   */\n      slt\n        /* \"#utility.yul\":4693:4812   */\n      iszero\n      tag_259\n      jumpi\n        /* \"#utility.yul\":4731:4810   */\n      tag_260\n      tag_136\n      jump\t// in\n    tag_260:\n        /* \"#utility.yul\":4693:4812   */\n    tag_259:\n        /* \"#utility.yul\":4879:4880   */\n      0x00\n        /* \"#utility.yul\":4868:4877   */\n      dup3\n        /* \"#utility.yul\":4864:4881   */\n      add\n        /* \"#utility.yul\":4851:4882   */\n      calldataload\n        /* \"#utility.yul\":4909:4927   */\n      0xffffffffffffffff\n        /* \"#utility.yul\":4901:4907   */\n      dup2\n        /* \"#utility.yul\":4898:4928   */\n      gt\n        /* \"#utility.yul\":4895:5012   */\n      iszero\n      tag_261\n      jumpi\n        /* \"#utility.yul\":4931:5010   */\n      tag_262\n      tag_137\n      jump\t// in\n    tag_262:\n        /* \"#utility.yul\":4895:5012   */\n    tag_261:\n        /* \"#utility.yul\":5036:5099   */\n      tag_263\n        /* \"#utility.yul\":5091:5098   */\n      dup5\n        /* \"#utility.yul\":5082:5088   */\n      dup3\n        /* \"#utility.yul\":5071:5080   */\n      dup6\n        /* \"#utility.yul\":5067:5089   */\n      add\n        /* \"#utility.yul\":5036:5099   */\n      tag_155\n      jump\t// in\n    tag_263:\n        /* \"#utility.yul\":5026:5099   */\n      swap2\n      pop\n        /* \"#utility.yul\":4822:5109   */\n      pop\n        /* \"#utility.yul\":4607:5116   */\n      swap3\n      swap2\n      pop\n      pop\n      jump\t// out\n        /* \"#utility.yul\":5122:5259   */\n    tag_156:\n        /* \"#utility.yul\":5212:5218   */\n      0x00\n        /* \"#utility.yul\":5246:5251   */\n      dup2\n        /* \"#utility.yul\":5240:5252   */\n      mload\n        /* \"#utility.yul\":5230:5252   */\n      swap1\n      pop\n        /* \"#utility.yul\":5122:5259   */\n      swap2\n      swap1\n      pop\n      jump\t// out\n        /* \"#utility.yul\":5265:5472   */\n    tag_157:\n        /* \"#utility.yul\":5387:5398   */\n      0x00\n        /* \"#utility.yul\":5421:5427   */\n      dup3\n        /* \"#utility.yul\":5416:5419   */\n      dup3\n        /* \"#utility.yul\":5409:5428   */\n      mstore\n        /* \"#utility.yul\":5461:5465   */\n      0x20\n        /* \"#utility.yul\":5456:5459   */\n      dup3\n        /* \"#utility.yul\":5452:5466   */\n      add\n        /* \"#utility.yul\":5437:5466   */\n      swap1\n      pop\n        /* \"#utility.yul\":5265:5472   */\n      swap3\n      swap2\n      pop\n      pop\n      jump\t// out\n        /* \"#utility.yul\":5478:5633   */\n    tag_158:\n        /* \"#utility.yul\":5568:5572   */\n      0x00\n        /* \"#utility.yul\":5591:5594   */\n      dup2\n        /* \"#utility.yul\":5583:5594   */\n      swap1\n      pop\n        /* \"#utility.yul\":5621:5625   */\n      0x20\n        /* \"#utility.yul\":5616:5619   */\n      dup3\n        /* \"#utility.yul\":5612:5626   */\n      add\n        /* \"#utility.yul\":5604:5626   */\n      swap1\n      pop\n        /* \"#utility.yul\":5478:5633   */\n      swap2\n      swap1\n      pop\n      jump\t// out\n        /* \"#utility.yul\":5639:5798   */\n    tag_159:\n        /* \"#utility.yul\":5713:5724   */\n      0x00\n        /* \"#utility.yul\":5747:5753   */\n      dup3\n        /* \"#utility.yul\":5742:5745   */\n      dup3\n        /* \"#utility.yul\":5735:5754   */\n      mstore\n        /* \"#utility.yul\":5787:5791   */\n      0x20\n        /* \"#utility.yul\":5782:5785   */\n      dup3\n        /* \"#utility.yul\":5778:5792   */\n      add\n        /* \"#utility.yul\":5763:5792   */\n      swap1\n      pop\n        /* \"#utility.yul\":5639:5798   */\n      swap3\n      swap2\n      pop\n      pop\n      jump\t// out\n        /* \"#utility.yul\":5804:6161   */\n    tag_160:\n        /* \"#utility.yul\":5882:5885   */\n      0x00\n        /* \"#utility.yul\":5910:5949   */\n      tag_269\n        /* \"#utility.yul\":5943:5948   */\n      dup3\n        /* \"#utility.yul\":5910:5949   */\n      tag_141\n      jump\t// in\n    tag_269:\n        /* \"#utility.yul\":5965:6026   */\n      tag_270\n        /* \"#utility.yul\":6019:6025   */\n      dup2\n        /* \"#utility.yul\":6014:6017   */\n      dup6\n        /* \"#utility.yul\":5965:6026   */\n      tag_159\n      jump\t// in\n    tag_270:\n        /* \"#utility.yul\":5958:6026   */\n      swap4\n      pop\n        /* \"#utility.yul\":6035:6100   */\n      tag_271\n        /* \"#utility.yul\":6093:6099   */\n      dup2\n        /* \"#utility.yul\":6088:6091   */\n      dup6\n        /* \"#utility.yul\":6081:6085   */\n      0x20\n        /* \"#utility.yul\":6074:6079   */\n      dup7\n        /* \"#utility.yul\":6070:6086   */\n      add\n        /* \"#utility.yul\":6035:6100   */\n      tag_143\n      jump\t// in\n    tag_271:\n        /* \"#utility.yul\":6125:6154   */\n      tag_272\n        /* \"#utility.yul\":6147:6153   */\n      dup2\n        /* \"#utility.yul\":6125:6154   */\n      tag_144\n      jump\t// in\n    tag_272:\n        /* \"#utility.yul\":6120:6123   */\n      dup5\n        /* \"#utility.yul\":6116:6155   */\n      add\n        /* \"#utility.yul\":6109:6155   */\n      swap2\n      pop\n        /* \"#utility.yul\":5886:6161   */\n      pop\n        /* \"#utility.yul\":5804:6161   */\n      swap3\n      swap2\n      pop\n      pop\n      jump\t// out\n        /* \"#utility.yul\":6167:6275   */\n    tag_161:\n        /* \"#utility.yul\":6244:6268   */\n      tag_274\n        /* \"#utility.yul\":6262:6267   */\n      dup2\n        /* \"#utility.yul\":6244:6268   */\n      tag_138\n      jump\t// in\n    tag_274:\n        /* \"#utility.yul\":6239:6242   */\n      dup3\n        /* \"#utility.yul\":6232:6269   */\n      mstore\n        /* \"#utility.yul\":6167:6275   */\n      pop\n      pop\n      jump\t// out\n        /* \"#utility.yul\":6337:6934   */\n    tag_162:\n        /* \"#utility.yul\":6442:6445   */\n      0x00\n        /* \"#utility.yul\":6478:6482   */\n      0x40\n        /* \"#utility.yul\":6473:6476   */\n      dup4\n        /* \"#utility.yul\":6469:6483   */\n      add\n        /* \"#utility.yul\":6565:6569   */\n      0x00\n        /* \"#utility.yul\":6558:6563   */\n      dup4\n        /* \"#utility.yul\":6554:6570   */\n      add\n        /* \"#utility.yul\":6548:6571   */\n      mload\n        /* \"#utility.yul\":6618:6621   */\n      dup5\n        /* \"#utility.yul\":6612:6616   */\n      dup3\n        /* \"#utility.yul\":6608:6622   */\n      sub\n        /* \"#utility.yul\":6601:6605   */\n      0x00\n        /* \"#utility.yul\":6596:6599   */\n      dup7\n        /* \"#utility.yul\":6592:6606   */\n      add\n        /* \"#utility.yul\":6585:6623   */\n      mstore\n        /* \"#utility.yul\":6644:6717   */\n      tag_276\n        /* \"#utility.yul\":6712:6716   */\n      dup3\n        /* \"#utility.yul\":6698:6710   */\n      dup3\n        /* \"#utility.yul\":6644:6717   */\n      tag_160\n      jump\t// in\n    tag_276:\n        /* \"#utility.yul\":6636:6717   */\n      swap2\n      pop\n        /* \"#utility.yul\":6493:6728   */\n      pop\n        /* \"#utility.yul\":6815:6819   */\n      0x20\n        /* \"#utility.yul\":6808:6813   */\n      dup4\n        /* \"#utility.yul\":6804:6820   */\n      add\n        /* \"#utility.yul\":6798:6821   */\n      mload\n        /* \"#utility.yul\":6834:6897   */\n      tag_277\n        /* \"#utility.yul\":6891:6895   */\n      0x20\n        /* \"#utility.yul\":6886:6889   */\n      dup7\n        /* \"#utility.yul\":6882:6896   */\n      add\n        /* \"#utility.yul\":6868:6880   */\n      dup3\n        /* \"#utility.yul\":6834:6897   */\n      tag_161\n      jump\t// in\n    tag_277:\n        /* \"#utility.yul\":6738:6907   */\n      pop\n        /* \"#utility.yul\":6924:6928   */\n      dup1\n        /* \"#utility.yul\":6917:6928   */\n      swap2\n      pop\n        /* \"#utility.yul\":6447:6934   */\n      pop\n        /* \"#utility.yul\":6337:6934   */\n      swap3\n      swap2\n      pop\n      pop\n      jump\t// out\n        /* \"#utility.yul\":6940:7188   */\n    tag_163:\n        /* \"#utility.yul\":7055:7065   */\n      0x00\n        /* \"#utility.yul\":7090:7182   */\n      tag_279\n        /* \"#utility.yul\":7178:7181   */\n      dup4\n        /* \"#utility.yul\":7170:7176   */\n      dup4\n        /* \"#utility.yul\":7090:7182   */\n      tag_162\n      jump\t// in\n    tag_279:\n        /* \"#utility.yul\":7076:7182   */\n      swap1\n      pop\n        /* \"#utility.yul\":6940:7188   */\n      swap3\n      swap2\n      pop\n      pop\n      jump\t// out\n        /* \"#utility.yul\":7194:7330   */\n    tag_164:\n        /* \"#utility.yul\":7287:7291   */\n      0x00\n        /* \"#utility.yul\":7319:7323   */\n      0x20\n        /* \"#utility.yul\":7314:7317   */\n      dup3\n        /* \"#utility.yul\":7310:7324   */\n      add\n        /* \"#utility.yul\":7302:7324   */\n      swap1\n      pop\n        /* \"#utility.yul\":7194:7330   */\n      swap2\n      swap1\n      pop\n      jump\t// out\n        /* \"#utility.yul\":7396:8491   */\n    tag_165:\n        /* \"#utility.yul\":7561:7564   */\n      0x00\n        /* \"#utility.yul\":7590:7667   */\n      tag_282\n        /* \"#utility.yul\":7661:7666   */\n      dup3\n        /* \"#utility.yul\":7590:7667   */\n      tag_156\n      jump\t// in\n    tag_282:\n        /* \"#utility.yul\":7683:7792   */\n      tag_283\n        /* \"#utility.yul\":7785:7791   */\n      dup2\n        /* \"#utility.yul\":7780:7783   */\n      dup6\n        /* \"#utility.yul\":7683:7792   */\n      tag_157\n      jump\t// in\n    tag_283:\n        /* \"#utility.yul\":7676:7792   */\n      swap4\n      pop\n        /* \"#utility.yul\":7818:7821   */\n      dup4\n        /* \"#utility.yul\":7863:7867   */\n      0x20\n        /* \"#utility.yul\":7855:7861   */\n      dup3\n        /* \"#utility.yul\":7851:7868   */\n      mul\n        /* \"#utility.yul\":7846:7849   */\n      dup6\n        /* \"#utility.yul\":7842:7869   */\n      add\n        /* \"#utility.yul\":7893:7972   */\n      tag_284\n        /* \"#utility.yul\":7966:7971   */\n      dup6\n        /* \"#utility.yul\":7893:7972   */\n      tag_158\n      jump\t// in\n    tag_284:\n        /* \"#utility.yul\":7995:8002   */\n      dup1\n        /* \"#utility.yul\":8026:8027   */\n      0x00\n        /* \"#utility.yul\":8011:8446   */\n    tag_285:\n        /* \"#utility.yul\":8036:8042   */\n      dup6\n        /* \"#utility.yul\":8033:8034   */\n      dup2\n        /* \"#utility.yul\":8030:8043   */\n      lt\n        /* \"#utility.yul\":8011:8446   */\n      iszero\n      tag_287\n      jumpi\n        /* \"#utility.yul\":8107:8116   */\n      dup5\n        /* \"#utility.yul\":8101:8105   */\n      dup5\n        /* \"#utility.yul\":8097:8117   */\n      sub\n        /* \"#utility.yul\":8092:8095   */\n      dup10\n        /* \"#utility.yul\":8085:8118   */\n      mstore\n        /* \"#utility.yul\":8158:8164   */\n      dup2\n        /* \"#utility.yul\":8152:8165   */\n      mload\n        /* \"#utility.yul\":8186:8296   */\n      tag_288\n        /* \"#utility.yul\":8291:8295   */\n      dup6\n        /* \"#utility.yul\":8276:8289   */\n      dup3\n        /* \"#utility.yul\":8186:8296   */\n      tag_163\n      jump\t// in\n    tag_288:\n        /* \"#utility.yul\":8178:8296   */\n      swap5\n      pop\n        /* \"#utility.yul\":8319:8402   */\n      tag_289\n        /* \"#utility.yul\":8395:8401   */\n      dup4\n        /* \"#utility.yul\":8319:8402   */\n      tag_164\n      jump\t// in\n    tag_289:\n        /* \"#utility.yul\":8309:8402   */\n      swap3\n      pop\n        /* \"#utility.yul\":8431:8435   */\n      0x20\n        /* \"#utility.yul\":8426:8429   */\n      dup11\n        /* \"#utility.yul\":8422:8436   */\n      add\n        /* \"#utility.yul\":8415:8436   */\n      swap10\n      pop\n        /* \"#utility.yul\":8071:8446   */\n      pop\n        /* \"#utility.yul\":8058:8059   */\n      0x01\n        /* \"#utility.yul\":8055:8056   */\n      dup2\n        /* \"#utility.yul\":8051:8060   */\n      add\n        /* \"#utility.yul\":8046:8060   */\n      swap1\n      pop\n        /* \"#utility.yul\":8011:8446   */\n      jump(tag_285)\n    tag_287:\n        /* \"#utility.yul\":8015:8029   */\n      pop\n        /* \"#utility.yul\":8462:8466   */\n      dup3\n        /* \"#utility.yul\":8455:8466   */\n      swap8\n      pop\n        /* \"#utility.yul\":8482:8485   */\n      dup8\n        /* \"#utility.yul\":8475:8485   */\n      swap6\n      pop\n        /* \"#utility.yul\":7566:8491   */\n      pop\n      pop\n      pop\n      pop\n      pop\n        /* \"#utility.yul\":7396:8491   */\n      swap3\n      swap2\n      pop\n      pop\n      jump\t// out\n        /* \"#utility.yul\":8497:8962   */\n    tag_30:\n        /* \"#utility.yul\":8686:8690   */\n      0x00\n        /* \"#utility.yul\":8724:8726   */\n      0x20\n        /* \"#utility.yul\":8713:8722   */\n      dup3\n        /* \"#utility.yul\":8709:8727   */\n      add\n        /* \"#utility.yul\":8701:8727   */\n      swap1\n      pop\n        /* \"#utility.yul\":8773:8782   */\n      dup2\n        /* \"#utility.yul\":8767:8771   */\n      dup2\n        /* \"#utility.yul\":8763:8783   */\n      sub\n        /* \"#utility.yul\":8759:8760   */\n      0x00\n        /* \"#utility.yul\":8748:8757   */\n      dup4\n        /* \"#utility.yul\":8744:8761   */\n      add\n        /* \"#utility.yul\":8737:8784   */\n      mstore\n        /* \"#utility.yul\":8801:8955   */\n      tag_291\n        /* \"#utility.yul\":8950:8954   */\n      dup2\n        /* \"#utility.yul\":8941:8947   */\n      dup5\n        /* \"#utility.yul\":8801:8955   */\n      tag_165\n      jump\t// in\n    tag_291:\n        /* \"#utility.yul\":8793:8955   */\n      swap1\n      pop\n        /* \"#utility.yul\":8497:8962   */\n      swap3\n      swap2\n      pop\n      pop\n      jump\t// out\n        /* \"#utility.yul\":8968:9058   */\n    tag_166:\n        /* \"#utility.yul\":9002:9009   */\n      0x00\n        /* \"#utility.yul\":9045:9050   */\n      dup2\n        /* \"#utility.yul\":9038:9051   */\n      iszero\n        /* \"#utility.yul\":9031:9052   */\n      iszero\n        /* \"#utility.yul\":9020:9052   */\n      swap1\n      pop\n        /* \"#utility.yul\":8968:9058   */\n      swap2\n      swap1\n      pop\n      jump\t// out\n        /* \"#utility.yul\":9064:9180   */\n    tag_167:\n        /* \"#utility.yul\":9134:9155   */\n      tag_294\n        /* \"#utility.yul\":9149:9154   */\n      dup2\n        /* \"#utility.yul\":9134:9155   */\n      tag_166\n      jump\t// in\n    tag_294:\n        /* \"#utility.yul\":9127:9132   */\n      dup2\n        /* \"#utility.yul\":9124:9156   */\n      eq\n        /* \"#utility.yul\":9114:9174   */\n      tag_295\n      jumpi\n        /* \"#utility.yul\":9170:9171   */\n      0x00\n        /* \"#utility.yul\":9167:9168   */\n      dup1\n        /* \"#utility.yul\":9160:9172   */\n      revert\n        /* \"#utility.yul\":9114:9174   */\n    tag_295:\n        /* \"#utility.yul\":9064:9180   */\n      pop\n      jump\t// out\n        /* \"#utility.yul\":9186:9319   */\n    tag_168:\n        /* \"#utility.yul\":9229:9234   */\n      0x00\n        /* \"#utility.yul\":9267:9273   */\n      dup2\n        /* \"#utility.yul\":9254:9274   */\n      calldataload\n        /* \"#utility.yul\":9245:9274   */\n      swap1\n      pop\n        /* \"#utility.yul\":9283:9313   */\n      tag_297\n        /* \"#utility.yul\":9307:9312   */\n      dup2\n        /* \"#utility.yul\":9283:9313   */\n      tag_167\n      jump\t// in\n    tag_297:\n        /* \"#utility.yul\":9186:9319   */\n      swap3\n      swap2\n      pop\n      pop\n      jump\t// out\n        /* \"#utility.yul\":9325:9648   */\n    tag_33:\n        /* \"#utility.yul\":9381:9387   */\n      0x00\n        /* \"#utility.yul\":9430:9432   */\n      0x20\n        /* \"#utility.yul\":9418:9427   */\n      dup3\n        /* \"#utility.yul\":9409:9416   */\n      dup5\n        /* \"#utility.yul\":9405:9428   */\n      sub\n        /* \"#utility.yul\":9401:9433   */\n      slt\n        /* \"#utility.yul\":9398:9517   */\n      iszero\n      tag_299\n      jumpi\n        /* \"#utility.yul\":9436:9515   */\n      tag_300\n      tag_136\n      jump\t// in\n    tag_300:\n        /* \"#utility.yul\":9398:9517   */\n    tag_299:\n        /* \"#utility.yul\":9556:9557   */\n      0x00\n        /* \"#utility.yul\":9581:9631   */\n      tag_301\n        /* \"#utility.yul\":9623:9630   */\n      dup5\n        /* \"#utility.yul\":9614:9620   */\n      dup3\n        /* \"#utility.yul\":9603:9612   */\n      dup6\n        /* \"#utility.yul\":9599:9621   */\n      add\n        /* \"#utility.yul\":9581:9631   */\n      tag_168\n      jump\t// in\n    tag_301:\n        /* \"#utility.yul\":9571:9631   */\n      swap2\n      pop\n        /* \"#utility.yul\":9527:9641   */\n      pop\n        /* \"#utility.yul\":9325:9648   */\n      swap3\n      swap2\n      pop\n      pop\n      jump\t// out\n        /* \"#utility.yul\":9654:9753   */\n    tag_169:\n        /* \"#utility.yul\":9725:9746   */\n      tag_303\n        /* \"#utility.yul\":9740:9745   */\n      dup2\n        /* \"#utility.yul\":9725:9746   */\n      tag_166\n      jump\t// in\n    tag_303:\n        /* \"#utility.yul\":9720:9723   */\n      dup3\n        /* \"#utility.yul\":9713:9747   */\n      mstore\n        /* \"#utility.yul\":9654:9753   */\n      pop\n      pop\n      jump\t// out\n        /* \"#utility.yul\":9821:10696   */\n    tag_170:\n        /* \"#utility.yul\":9972:9976   */\n      0x80\n        /* \"#utility.yul\":9967:9970   */\n      dup3\n        /* \"#utility.yul\":9963:9977   */\n      add\n        /* \"#utility.yul\":10065:10069   */\n      0x00\n        /* \"#utility.yul\":10058:10063   */\n      dup3\n        /* \"#utility.yul\":10054:10070   */\n      add\n        /* \"#utility.yul\":10048:10071   */\n      mload\n        /* \"#utility.yul\":10084:10147   */\n      tag_305\n        /* \"#utility.yul\":10141:10145   */\n      0x00\n        /* \"#utility.yul\":10136:10139   */\n      dup6\n        /* \"#utility.yul\":10132:10146   */\n      add\n        /* \"#utility.yul\":10118:10130   */\n      dup3\n        /* \"#utility.yul\":10084:10147   */\n      tag_161\n      jump\t// in\n    tag_305:\n        /* \"#utility.yul\":9987:10157   */\n      pop\n        /* \"#utility.yul\":10246:10250   */\n      0x20\n        /* \"#utility.yul\":10239:10244   */\n      dup3\n        /* \"#utility.yul\":10235:10251   */\n      add\n        /* \"#utility.yul\":10229:10252   */\n      mload\n        /* \"#utility.yul\":10265:10328   */\n      tag_306\n        /* \"#utility.yul\":10322:10326   */\n      0x20\n        /* \"#utility.yul\":10317:10320   */\n      dup6\n        /* \"#utility.yul\":10313:10327   */\n      add\n        /* \"#utility.yul\":10299:10311   */\n      dup3\n        /* \"#utility.yul\":10265:10328   */\n      tag_161\n      jump\t// in\n    tag_306:\n        /* \"#utility.yul\":10167:10338   */\n      pop\n        /* \"#utility.yul\":10425:10429   */\n      0x40\n        /* \"#utility.yul\":10418:10423   */\n      dup3\n        /* \"#utility.yul\":10414:10430   */\n      add\n        /* \"#utility.yul\":10408:10431   */\n      mload\n        /* \"#utility.yul\":10444:10507   */\n      tag_307\n        /* \"#utility.yul\":10501:10505   */\n      0x40\n        /* \"#utility.yul\":10496:10499   */\n      dup6\n        /* \"#utility.yul\":10492:10506   */\n      add\n        /* \"#utility.yul\":10478:10490   */\n      dup3\n        /* \"#utility.yul\":10444:10507   */\n      tag_161\n      jump\t// in\n    tag_307:\n        /* \"#utility.yul\":10348:10517   */\n      pop\n        /* \"#utility.yul\":10603:10607   */\n      0x60\n        /* \"#utility.yul\":10596:10601   */\n      dup3\n        /* \"#utility.yul\":10592:10608   */\n      add\n        /* \"#utility.yul\":10586:10609   */\n      mload\n        /* \"#utility.yul\":10622:10679   */\n      tag_308\n        /* \"#utility.yul\":10673:10677   */\n      0x60\n        /* \"#utility.yul\":10668:10671   */\n      dup6\n        /* \"#utility.yul\":10664:10678   */\n      add\n        /* \"#utility.yul\":10650:10662   */\n      dup3\n        /* \"#utility.yul\":10622:10679   */\n      tag_169\n      jump\t// in\n    tag_308:\n        /* \"#utility.yul\":10527:10689   */\n      pop\n        /* \"#utility.yul\":9941:10696   */\n      pop\n        /* \"#utility.yul\":9821:10696   */\n      pop\n      pop\n      jump\t// out\n        /* \"#utility.yul\":10702:11033   */\n    tag_38:\n        /* \"#utility.yul\":10849:10853   */\n      0x00\n        /* \"#utility.yul\":10887:10890   */\n      0x80\n        /* \"#utility.yul\":10876:10885   */\n      dup3\n        /* \"#utility.yul\":10872:10891   */\n      add\n        /* \"#utility.yul\":10864:10891   */\n      swap1\n      pop\n        /* \"#utility.yul\":10901:11026   */\n      tag_310\n        /* \"#utility.yul\":11023:11024   */\n      0x00\n        /* \"#utility.yul\":11012:11021   */\n      dup4\n        /* \"#utility.yul\":11008:11025   */\n      add\n        /* \"#utility.yul\":10999:11005   */\n      dup5\n        /* \"#utility.yul\":10901:11026   */\n      tag_170\n      jump\t// in\n    tag_310:\n        /* \"#utility.yul\":10702:11033   */\n      swap3\n      swap2\n      pop\n      pop\n      jump\t// out\n        /* \"#utility.yul\":11039:11165   */\n    tag_171:\n        /* \"#utility.yul\":11076:11083   */\n      0x00\n        /* \"#utility.yul\":11116:11158   */\n      0xffffffffffffffffffffffffffffffffffffffff\n        /* \"#utility.yul\":11109:11114   */\n      dup3\n        /* \"#utility.yul\":11105:11159   */\n      and\n        /* \"#utility.yul\":11094:11159   */\n      swap1\n      pop\n        /* \"#utility.yul\":11039:11165   */\n      swap2\n      swap1\n      pop\n      jump\t// out\n        /* \"#utility.yul\":11171:11267   */\n    tag_172:\n        /* \"#utility.yul\":11208:11215   */\n      0x00\n        /* \"#utility.yul\":11237:11261   */\n      tag_313\n        /* \"#utility.yul\":11255:11260   */\n      dup3\n        /* \"#utility.yul\":11237:11261   */\n      tag_171\n      jump\t// in\n    tag_313:\n        /* \"#utility.yul\":11226:11261   */\n      swap1\n      pop\n        /* \"#utility.yul\":11171:11267   */\n      swap2\n      swap1\n      pop\n      jump\t// out\n        /* \"#utility.yul\":11273:11391   */\n    tag_173:\n        /* \"#utility.yul\":11360:11384   */\n      tag_315\n        /* \"#utility.yul\":11378:11383   */\n      dup2\n        /* \"#utility.yul\":11360:11384   */\n      tag_172\n      jump\t// in\n    tag_315:\n        /* \"#utility.yul\":11355:11358   */\n      dup3\n        /* \"#utility.yul\":11348:11385   */\n      mstore\n        /* \"#utility.yul\":11273:11391   */\n      pop\n      pop\n      jump\t// out\n        /* \"#utility.yul\":11397:11619   */\n    tag_42:\n        /* \"#utility.yul\":11490:11494   */\n      0x00\n        /* \"#utility.yul\":11528:11530   */\n      0x20\n        /* \"#utility.yul\":11517:11526   */\n      dup3\n        /* \"#utility.yul\":11513:11531   */\n      add\n        /* \"#utility.yul\":11505:11531   */\n      swap1\n      pop\n        /* \"#utility.yul\":11541:11612   */\n      tag_317\n        /* \"#utility.yul\":11609:11610   */\n      0x00\n        /* \"#utility.yul\":11598:11607   */\n      dup4\n        /* \"#utility.yul\":11594:11611   */\n      add\n        /* \"#utility.yul\":11585:11591   */\n      dup5\n        /* \"#utility.yul\":11541:11612   */\n      tag_173\n      jump\t// in\n    tag_317:\n        /* \"#utility.yul\":11397:11619   */\n      swap3\n      swap2\n      pop\n      pop\n      jump\t// out\n        /* \"#utility.yul\":11625:11747   */\n    tag_174:\n        /* \"#utility.yul\":11698:11722   */\n      tag_319\n        /* \"#utility.yul\":11716:11721   */\n      dup2\n        /* \"#utility.yul\":11698:11722   */\n      tag_172\n      jump\t// in\n    tag_319:\n        /* \"#utility.yul\":11691:11696   */\n      dup2\n        /* \"#utility.yul\":11688:11723   */\n      eq\n        /* \"#utility.yul\":11678:11741   */\n      tag_320\n      jumpi\n        /* \"#utility.yul\":11737:11738   */\n      0x00\n        /* \"#utility.yul\":11734:11735   */\n      dup1\n        /* \"#utility.yul\":11727:11739   */\n      revert\n        /* \"#utility.yul\":11678:11741   */\n    tag_320:\n        /* \"#utility.yul\":11625:11747   */\n      pop\n      jump\t// out\n        /* \"#utility.yul\":11753:11892   */\n    tag_175:\n        /* \"#utility.yul\":11799:11804   */\n      0x00\n        /* \"#utility.yul\":11837:11843   */\n      dup2\n        /* \"#utility.yul\":11824:11844   */\n      calldataload\n        /* \"#utility.yul\":11815:11844   */\n      swap1\n      pop\n        /* \"#utility.yul\":11853:11886   */\n      tag_322\n        /* \"#utility.yul\":11880:11885   */\n      dup2\n        /* \"#utility.yul\":11853:11886   */\n      tag_174\n      jump\t// in\n    tag_322:\n        /* \"#utility.yul\":11753:11892   */\n      swap3\n      swap2\n      pop\n      pop\n      jump\t// out\n        /* \"#utility.yul\":11898:12227   */\n    tag_45:\n        /* \"#utility.yul\":11957:11963   */\n      0x00\n        /* \"#utility.yul\":12006:12008   */\n      0x20\n        /* \"#utility.yul\":11994:12003   */\n      dup3\n        /* \"#utility.yul\":11985:11992   */\n      dup5\n        /* \"#utility.yul\":11981:12004   */\n      sub\n        /* \"#utility.yul\":11977:12009   */\n      slt\n        /* \"#utility.yul\":11974:12093   */\n      iszero\n      tag_324\n      jumpi\n        /* \"#utility.yul\":12012:12091   */\n      tag_325\n      tag_136\n      jump\t// in\n    tag_325:\n        /* \"#utility.yul\":11974:12093   */\n    tag_324:\n        /* \"#utility.yul\":12132:12133   */\n      0x00\n        /* \"#utility.yul\":12157:12210   */\n      tag_326\n        /* \"#utility.yul\":12202:12209   */\n      dup5\n        /* \"#utility.yul\":12193:12199   */\n      dup3\n        /* \"#utility.yul\":12182:12191   */\n      dup6\n        /* \"#utility.yul\":12178:12200   */\n      add\n        /* \"#utility.yul\":12157:12210   */\n      tag_175\n      jump\t// in\n    tag_326:\n        /* \"#utility.yul\":12147:12210   */\n      swap2\n      pop\n        /* \"#utility.yul\":12103:12220   */\n      pop\n        /* \"#utility.yul\":11898:12227   */\n      swap3\n      swap2\n      pop\n      pop\n      jump\t// out\n        /* \"#utility.yul\":12233:12342   */\n    tag_176:\n        /* \"#utility.yul\":12314:12335   */\n      tag_328\n        /* \"#utility.yul\":12329:12334   */\n      dup2\n        /* \"#utility.yul\":12314:12335   */\n      tag_166\n      jump\t// in\n    tag_328:\n        /* \"#utility.yul\":12309:12312   */\n      dup3\n        /* \"#utility.yul\":12302:12336   */\n      mstore\n        /* \"#utility.yul\":12233:12342   */\n      pop\n      pop\n      jump\t// out\n        /* \"#utility.yul\":12348:12558   */\n    tag_48:\n        /* \"#utility.yul\":12435:12439   */\n      0x00\n        /* \"#utility.yul\":12473:12475   */\n      0x20\n        /* \"#utility.yul\":12462:12471   */\n      dup3\n        /* \"#utility.yul\":12458:12476   */\n      add\n        /* \"#utility.yul\":12450:12476   */\n      swap1\n      pop\n        /* \"#utility.yul\":12486:12551   */\n      tag_330\n        /* \"#utility.yul\":12548:12549   */\n      0x00\n        /* \"#utility.yul\":12537:12546   */\n      dup4\n        /* \"#utility.yul\":12533:12550   */\n      add\n        /* \"#utility.yul\":12524:12530   */\n      dup5\n        /* \"#utility.yul\":12486:12551   */\n      tag_176\n      jump\t// in\n    tag_330:\n        /* \"#utility.yul\":12348:12558   */\n      swap3\n      swap2\n      pop\n      pop\n      jump\t// out\n        /* \"#utility.yul\":12620:13227   */\n    tag_177:\n        /* \"#utility.yul\":12735:12738   */\n      0x00\n        /* \"#utility.yul\":12771:12775   */\n      0x40\n        /* \"#utility.yul\":12766:12769   */\n      dup4\n        /* \"#utility.yul\":12762:12776   */\n      add\n        /* \"#utility.yul\":12858:12862   */\n      0x00\n        /* \"#utility.yul\":12851:12856   */\n      dup4\n        /* \"#utility.yul\":12847:12863   */\n      add\n        /* \"#utility.yul\":12841:12864   */\n      mload\n        /* \"#utility.yul\":12911:12914   */\n      dup5\n        /* \"#utility.yul\":12905:12909   */\n      dup3\n        /* \"#utility.yul\":12901:12915   */\n      sub\n        /* \"#utility.yul\":12894:12898   */\n      0x00\n        /* \"#utility.yul\":12889:12892   */\n      dup7\n        /* \"#utility.yul\":12885:12899   */\n      add\n        /* \"#utility.yul\":12878:12916   */\n      mstore\n        /* \"#utility.yul\":12937:13010   */\n      tag_332\n        /* \"#utility.yul\":13005:13009   */\n      dup3\n        /* \"#utility.yul\":12991:13003   */\n      dup3\n        /* \"#utility.yul\":12937:13010   */\n      tag_160\n      jump\t// in\n    tag_332:\n        /* \"#utility.yul\":12929:13010   */\n      swap2\n      pop\n        /* \"#utility.yul\":12786:13021   */\n      pop\n        /* \"#utility.yul\":13108:13112   */\n      0x20\n        /* \"#utility.yul\":13101:13106   */\n      dup4\n        /* \"#utility.yul\":13097:13113   */\n      add\n        /* \"#utility.yul\":13091:13114   */\n      mload\n        /* \"#utility.yul\":13127:13190   */\n      tag_333\n        /* \"#utility.yul\":13184:13188   */\n      0x20\n        /* \"#utility.yul\":13179:13182   */\n      dup7\n        /* \"#utility.yul\":13175:13189   */\n      add\n        /* \"#utility.yul\":13161:13173   */\n      dup3\n        /* \"#utility.yul\":13127:13190   */\n      tag_161\n      jump\t// in\n    tag_333:\n        /* \"#utility.yul\":13031:13200   */\n      pop\n        /* \"#utility.yul\":13217:13221   */\n      dup1\n        /* \"#utility.yul\":13210:13221   */\n      swap2\n      pop\n        /* \"#utility.yul\":12740:13227   */\n      pop\n        /* \"#utility.yul\":12620:13227   */\n      swap3\n      swap2\n      pop\n      pop\n      jump\t// out\n        /* \"#utility.yul\":13233:13598   */\n    tag_52:\n        /* \"#utility.yul\":13372:13376   */\n      0x00\n        /* \"#utility.yul\":13410:13412   */\n      0x20\n        /* \"#utility.yul\":13399:13408   */\n      dup3\n        /* \"#utility.yul\":13395:13413   */\n      add\n        /* \"#utility.yul\":13387:13413   */\n      swap1\n      pop\n        /* \"#utility.yul\":13459:13468   */\n      dup2\n        /* \"#utility.yul\":13453:13457   */\n      dup2\n        /* \"#utility.yul\":13449:13469   */\n      sub\n        /* \"#utility.yul\":13445:13446   */\n      0x00\n        /* \"#utility.yul\":13434:13443   */\n      dup4\n        /* \"#utility.yul\":13430:13447   */\n      add\n        /* \"#utility.yul\":13423:13470   */\n      mstore\n        /* \"#utility.yul\":13487:13591   */\n      tag_335\n        /* \"#utility.yul\":13586:13590   */\n      dup2\n        /* \"#utility.yul\":13577:13583   */\n      dup5\n        /* \"#utility.yul\":13487:13591   */\n      tag_177\n      jump\t// in\n    tag_335:\n        /* \"#utility.yul\":13479:13591   */\n      swap1\n      pop\n        /* \"#utility.yul\":13233:13598   */\n      swap3\n      swap2\n      pop\n      pop\n      jump\t// out\n        /* \"#utility.yul\":13604:14145   */\n    tag_56:\n        /* \"#utility.yul\":13775:13779   */\n      0x00\n        /* \"#utility.yul\":13813:13816   */\n      0x80\n        /* \"#utility.yul\":13802:13811   */\n      dup3\n        /* \"#utility.yul\":13798:13817   */\n      add\n        /* \"#utility.yul\":13790:13817   */\n      swap1\n      pop\n        /* \"#utility.yul\":13827:13898   */\n      tag_337\n        /* \"#utility.yul\":13895:13896   */\n      0x00\n        /* \"#utility.yul\":13884:13893   */\n      dup4\n        /* \"#utility.yul\":13880:13897   */\n      add\n        /* \"#utility.yul\":13871:13877   */\n      dup8\n        /* \"#utility.yul\":13827:13898   */\n      tag_146\n      jump\t// in\n    tag_337:\n        /* \"#utility.yul\":13908:13980   */\n      tag_338\n        /* \"#utility.yul\":13976:13978   */\n      0x20\n        /* \"#utility.yul\":13965:13974   */\n      dup4\n        /* \"#utility.yul\":13961:13979   */\n      add\n        /* \"#utility.yul\":13952:13958   */\n      dup7\n        /* \"#utility.yul\":13908:13980   */\n      tag_146\n      jump\t// in\n    tag_338:\n        /* \"#utility.yul\":13990:14062   */\n      tag_339\n        /* \"#utility.yul\":14058:14060   */\n      0x40\n        /* \"#utility.yul\":14047:14056   */\n      dup4\n        /* \"#utility.yul\":14043:14061   */\n      add\n        /* \"#utility.yul\":14034:14040   */\n      dup6\n        /* \"#utility.yul\":13990:14062   */\n      tag_146\n      jump\t// in\n    tag_339:\n        /* \"#utility.yul\":14072:14138   */\n      tag_340\n        /* \"#utility.yul\":14134:14136   */\n      0x60\n        /* \"#utility.yul\":14123:14132   */\n      dup4\n        /* \"#utility.yul\":14119:14137   */\n      add\n        /* \"#utility.yul\":14110:14116   */\n      dup5\n        /* \"#utility.yul\":14072:14138   */\n      tag_176\n      jump\t// in\n    tag_340:\n        /* \"#utility.yul\":13604:14145   */\n      swap6\n      swap5\n      pop\n      pop\n      pop\n      pop\n      pop\n      jump\t// out\n        /* \"#utility.yul\":14151:14321   */\n    tag_178:\n        /* \"#utility.yul\":14291:14313   */\n      0x566f74696e67206973206e6f7420616374697665000000000000000000000000\n        /* \"#utility.yul\":14287:14288   */\n      0x00\n        /* \"#utility.yul\":14279:14285   */\n      dup3\n        /* \"#utility.yul\":14275:14289   */\n      add\n        /* \"#utility.yul\":14268:14314   */\n      mstore\n        /* \"#utility.yul\":14151:14321   */\n      pop\n      jump\t// out\n        /* \"#utility.yul\":14327:14693   */\n    tag_179:\n        /* \"#utility.yul\":14469:14472   */\n      0x00\n        /* \"#utility.yul\":14490:14557   */\n      tag_343\n        /* \"#utility.yul\":14554:14556   */\n      0x14\n        /* \"#utility.yul\":14549:14552   */\n      dup4\n        /* \"#utility.yul\":14490:14557   */\n      tag_142\n      jump\t// in\n    tag_343:\n        /* \"#utility.yul\":14483:14557   */\n      swap2\n      pop\n        /* \"#utility.yul\":14566:14659   */\n      tag_344\n        /* \"#utility.yul\":14655:14658   */\n      dup3\n        /* \"#utility.yul\":14566:14659   */\n      tag_178\n      jump\t// in\n    tag_344:\n        /* \"#utility.yul\":14684:14686   */\n      0x20\n        /* \"#utility.yul\":14679:14682   */\n      dup3\n        /* \"#utility.yul\":14675:14687   */\n      add\n        /* \"#utility.yul\":14668:14687   */\n      swap1\n      pop\n        /* \"#utility.yul\":14327:14693   */\n      swap2\n      swap1\n      pop\n      jump\t// out\n        /* \"#utility.yul\":14699:15118   */\n    tag_60:\n        /* \"#utility.yul\":14865:14869   */\n      0x00\n        /* \"#utility.yul\":14903:14905   */\n      0x20\n        /* \"#utility.yul\":14892:14901   */\n      dup3\n        /* \"#utility.yul\":14888:14906   */\n      add\n        /* \"#utility.yul\":14880:14906   */\n      swap1\n      pop\n        /* \"#utility.yul\":14952:14961   */\n      dup2\n        /* \"#utility.yul\":14946:14950   */\n      dup2\n        /* \"#utility.yul\":14942:14962   */\n      sub\n        /* \"#utility.yul\":14938:14939   */\n      0x00\n        /* \"#utility.yul\":14927:14936   */\n      dup4\n        /* \"#utility.yul\":14923:14940   */\n      add\n        /* \"#utility.yul\":14916:14963   */\n      mstore\n        /* \"#utility.yul\":14980:15111   */\n      tag_346\n        /* \"#utility.yul\":15106:15110   */\n      dup2\n        /* \"#utility.yul\":14980:15111   */\n      tag_179\n      jump\t// in\n    tag_346:\n        /* \"#utility.yul\":14972:15111   */\n      swap1\n      pop\n        /* \"#utility.yul\":14699:15118   */\n      swap2\n      swap1\n      pop\n      jump\t// out\n        /* \"#utility.yul\":15124:15293   */\n    tag_180:\n        /* \"#utility.yul\":15264:15285   */\n      0x496e76616c69642070726f706f73616c20494400000000000000000000000000\n        /* \"#utility.yul\":15260:15261   */\n      0x00\n        /* \"#utility.yul\":15252:15258   */\n      dup3\n        /* \"#utility.yul\":15248:15262   */\n      add\n        /* \"#utility.yul\":15241:15286   */\n      mstore\n        /* \"#utility.yul\":15124:15293   */\n      pop\n      jump\t// out\n        /* \"#utility.yul\":15299:15665   */\n    tag_181:\n        /* \"#utility.yul\":15441:15444   */\n      0x00\n        /* \"#utility.yul\":15462:15529   */\n      tag_349\n        /* \"#utility.yul\":15526:15528   */\n      0x13\n        /* \"#utility.yul\":15521:15524   */\n      dup4\n        /* \"#utility.yul\":15462:15529   */\n      tag_142\n      jump\t// in\n    tag_349:\n        /* \"#utility.yul\":15455:15529   */\n      swap2\n      pop\n        /* \"#utility.yul\":15538:15631   */\n      tag_350\n        /* \"#utility.yul\":15627:15630   */\n      dup3\n        /* \"#utility.yul\":15538:15631   */\n      tag_180\n      jump\t// in\n    tag_350:\n        /* \"#utility.yul\":15656:15658   */\n      0x20\n        /* \"#utility.yul\":15651:15654   */\n      dup3\n        /* \"#utility.yul\":15647:15659   */\n      add\n        /* \"#utility.yul\":15640:15659   */\n      swap1\n      pop\n        /* \"#utility.yul\":15299:15665   */\n      swap2\n      swap1\n      pop\n      jump\t// out\n        /* \"#utility.yul\":15671:16090   */\n    tag_64:\n        /* \"#utility.yul\":15837:15841   */\n      0x00\n        /* \"#utility.yul\":15875:15877   */\n      0x20\n        /* \"#utility.yul\":15864:15873   */\n      dup3\n        /* \"#utility.yul\":15860:15878   */\n      add\n        /* \"#utility.yul\":15852:15878   */\n      swap1\n      pop\n        /* \"#utility.yul\":15924:15933   */\n      dup2\n        /* \"#utility.yul\":15918:15922   */\n      dup2\n        /* \"#utility.yul\":15914:15934   */\n      sub\n        /* \"#utility.yul\":15910:15911   */\n      0x00\n        /* \"#utility.yul\":15899:15908   */\n      dup4\n        /* \"#utility.yul\":15895:15912   */\n      add\n        /* \"#utility.yul\":15888:15935   */\n      mstore\n        /* \"#utility.yul\":15952:16083   */\n      tag_352\n        /* \"#utility.yul\":16078:16082   */\n      dup2\n        /* \"#utility.yul\":15952:16083   */\n      tag_181\n      jump\t// in\n    tag_352:\n        /* \"#utility.yul\":15944:16083   */\n      swap1\n      pop\n        /* \"#utility.yul\":15671:16090   */\n      swap2\n      swap1\n      pop\n      jump\t// out\n        /* \"#utility.yul\":16096:16259   */\n    tag_182:\n        /* \"#utility.yul\":16236:16251   */\n      0x416c726561647920766f74656400000000000000000000000000000000000000\n        /* \"#utility.yul\":16232:16233   */\n      0x00\n        /* \"#utility.yul\":16224:16230   */\n      dup3\n        /* \"#utility.yul\":16220:16234   */\n      add\n        /* \"#utility.yul\":16213:16252   */\n      mstore\n        /* \"#utility.yul\":16096:16259   */\n      pop\n      jump\t// out\n        /* \"#utility.yul\":16265:16631   */\n    tag_183:\n        /* \"#utility.yul\":16407:16410   */\n      0x00\n        /* \"#utility.yul\":16428:16495   */\n      tag_355\n        /* \"#utility.yul\":16492:16494   */\n      0x0d\n        /* \"#utility.yul\":16487:16490   */\n      dup4\n        /* \"#utility.yul\":16428:16495   */\n      tag_142\n      jump\t// in\n    tag_355:\n        /* \"#utility.yul\":16421:16495   */\n      swap2\n      pop\n        /* \"#utility.yul\":16504:16597   */\n      tag_356\n        /* \"#utility.yul\":16593:16596   */\n      dup3\n        /* \"#utility.yul\":16504:16597   */\n      tag_182\n      jump\t// in\n    tag_356:\n        /* \"#utility.yul\":16622:16624   */\n      0x20\n        /* \"#utility.yul\":16617:16620   */\n      dup3\n        /* \"#utility.yul\":16613:16625   */\n      add\n        /* \"#utility.yul\":16606:16625   */\n      swap1\n      pop\n        /* \"#utility.yul\":16265:16631   */\n      swap2\n      swap1\n      pop\n      jump\t// out\n        /* \"#utility.yul\":16637:17056   */\n    tag_67:\n        /* \"#utility.yul\":16803:16807   */\n      0x00\n        /* \"#utility.yul\":16841:16843   */\n      0x20\n        /* \"#utility.yul\":16830:16839   */\n      dup3\n        /* \"#utility.yul\":16826:16844   */\n      add\n        /* \"#utility.yul\":16818:16844   */\n      swap1\n      pop\n        /* \"#utility.yul\":16890:16899   */\n      dup2\n        /* \"#utility.yul\":16884:16888   */\n      dup2\n        /* \"#utility.yul\":16880:16900   */\n      sub\n        /* \"#utility.yul\":16876:16877   */\n      0x00\n        /* \"#utility.yul\":16865:16874   */\n      dup4\n        /* \"#utility.yul\":16861:16878   */\n      add\n        /* \"#utility.yul\":16854:16901   */\n      mstore\n        /* \"#utility.yul\":16918:17049   */\n      tag_358\n        /* \"#utility.yul\":17044:17048   */\n      dup2\n        /* \"#utility.yul\":16918:17049   */\n      tag_183\n      jump\t// in\n    tag_358:\n        /* \"#utility.yul\":16910:17049   */\n      swap1\n      pop\n        /* \"#utility.yul\":16637:17056   */\n      swap2\n      swap1\n      pop\n      jump\t// out\n        /* \"#utility.yul\":17062:17242   */\n    tag_70:\n        /* \"#utility.yul\":17110:17187   */\n      0x4e487b7100000000000000000000000000000000000000000000000000000000\n        /* \"#utility.yul\":17107:17108   */\n      0x00\n        /* \"#utility.yul\":17100:17188   */\n      mstore\n        /* \"#utility.yul\":17207:17211   */\n      0x32\n        /* \"#utility.yul\":17204:17205   */\n      0x04\n        /* \"#utility.yul\":17197:17212   */\n      mstore\n        /* \"#utility.yul\":17231:17235   */\n      0x24\n        /* \"#utility.yul\":17228:17229   */\n      0x00\n        /* \"#utility.yul\":17221:17236   */\n      revert\n        /* \"#utility.yul\":17248:17428   */\n    tag_184:\n        /* \"#utility.yul\":17296:17373   */\n      0x4e487b7100000000000000000000000000000000000000000000000000000000\n        /* \"#utility.yul\":17293:17294   */\n      0x00\n        /* \"#utility.yul\":17286:17374   */\n      mstore\n        /* \"#utility.yul\":17393:17397   */\n      0x11\n        /* \"#utility.yul\":17390:17391   */\n      0x04\n        /* \"#utility.yul\":17383:17398   */\n      mstore\n        /* \"#utility.yul\":17417:17421   */\n      0x24\n        /* \"#utility.yul\":17414:17415   */\n      0x00\n        /* \"#utility.yul\":17407:17422   */\n      revert\n        /* \"#utility.yul\":17434:17667   */\n    tag_73:\n        /* \"#utility.yul\":17473:17476   */\n      0x00\n        /* \"#utility.yul\":17496:17520   */\n      tag_362\n        /* \"#utility.yul\":17514:17519   */\n      dup3\n        /* \"#utility.yul\":17496:17520   */\n      tag_138\n      jump\t// in\n    tag_362:\n        /* \"#utility.yul\":17487:17520   */\n      swap2\n      pop\n        /* \"#utility.yul\":17542:17608   */\n      0xffffffffffffffffffffffffffffffffffffffffffffffffffffffffffffffff\n        /* \"#utility.yul\":17535:17540   */\n      dup3\n        /* \"#utility.yul\":17532:17609   */\n      sub\n        /* \"#utility.yul\":17529:17632   */\n      tag_363\n      jumpi\n        /* \"#utility.yul\":17612:17630   */\n      tag_364\n      tag_184\n      jump\t// in\n    tag_364:\n        /* \"#utility.yul\":17529:17632   */\n    tag_363:\n        /* \"#utility.yul\":17659:17660   */\n      0x01\n        /* \"#utility.yul\":17652:17657   */\n      dup3\n        /* \"#utility.yul\":17648:17661   */\n      add\n        /* \"#utility.yul\":17641:17661   */\n      swap1\n      pop\n        /* \"#utility.yul\":17434:17667   */\n      swap2\n      swap1\n      pop\n      jump\t// out\n        /* \"#utility.yul\":17673:17895   */\n    tag_77:\n        /* \"#utility.yul\":17766:17770   */\n      0x00\n        /* \"#utility.yul\":17804:17806   */\n      0x20\n        /* \"#utility.yul\":17793:17802   */\n      dup3\n        /* \"#utility.yul\":17789:17807   */\n      add\n        /* \"#utility.yul\":17781:17807   */\n      swap1\n      pop\n        /* \"#utility.yul\":17817:17888   */\n      tag_366\n        /* \"#utility.yul\":17885:17886   */\n      0x00\n        /* \"#utility.yul\":17874:17883   */\n      dup4\n        /* \"#utility.yul\":17870:17887   */\n      add\n        /* \"#utility.yul\":17861:17867   */\n      dup5\n        /* \"#utility.yul\":17817:17888   */\n      tag_146\n      jump\t// in\n    tag_366:\n        /* \"#utility.yul\":17673:17895   */\n      swap3\n      swap2\n      pop\n      pop\n      jump\t// out\n        /* \"#utility.yul\":17901:18081   */\n    tag_185:\n        /* \"#utility.yul\":17949:18026   */\n      0x4e487b7100000000000000000000000000000000000000000000000000000000\n        /* \"#utility.yul\":17946:17947   */\n      0x00\n        /* \"#utility.yul\":17939:18027   */\n      mstore\n        /* \"#utility.yul\":18046:18050   */\n      0x22\n        /* \"#utility.yul\":18043:18044   */\n      0x04\n        /* \"#utility.yul\":18036:18051   */\n      mstore\n        /* \"#utility.yul\":18070:18074   */\n      0x24\n        /* \"#utility.yul\":18067:18068   */\n      0x00\n        /* \"#utility.yul\":18060:18075   */\n      revert\n        /* \"#utility.yul\":18087:18407   */\n    tag_81:\n        /* \"#utility.yul\":18131:18137   */\n      0x00\n        /* \"#utility.yul\":18168:18169   */\n      0x02\n        /* \"#utility.yul\":18162:18166   */\n      dup3\n        /* \"#utility.yul\":18158:18170   */\n      div\n        /* \"#utility.yul\":18148:18170   */\n      swap1\n      pop\n        /* \"#utility.yul\":18215:18216   */\n      0x01\n        /* \"#utility.yul\":18209:18213   */\n      dup3\n        /* \"#utility.yul\":18205:18217   */\n      and\n        /* \"#utility.yul\":18236:18254   */\n      dup1\n        /* \"#utility.yul\":18226:18307   */\n      tag_369\n      jumpi\n        /* \"#utility.yul\":18292:18296   */\n      0x7f\n        /* \"#utility.yul\":18284:18290   */\n      dup3\n        /* \"#utility.yul\":18280:18297   */\n      and\n        /* \"#utility.yul\":18270:18297   */\n      swap2\n      pop\n        /* \"#utility.yul\":18226:18307   */\n    tag_369:\n        /* \"#utility.yul\":18354:18356   */\n      0x20\n        /* \"#utility.yul\":18346:18352   */\n      dup3\n        /* \"#utility.yul\":18343:18357   */\n      lt\n        /* \"#utility.yul\":18323:18341   */\n      dup2\n        /* \"#utility.yul\":18320:18358   */\n      sub\n        /* \"#utility.yul\":18317:18401   */\n      tag_370\n      jumpi\n        /* \"#utility.yul\":18373:18391   */\n      tag_371\n      tag_185\n      jump\t// in\n    tag_371:\n        /* \"#utility.yul\":18317:18401   */\n    tag_370:\n        /* \"#utility.yul\":18138:18407   */\n      pop\n        /* \"#utility.yul\":18087:18407   */\n      swap2\n      swap1\n      pop\n      jump\t// out\n        /* \"#utility.yul\":18413:18633   */\n    tag_186:\n        /* \"#utility.yul\":18553:18587   */\n      0x4f6e6c79206f776e65722063616e2063616c6c20746869732066756e6374696f\n        /* \"#utility.yul\":18549:18550   */\n      0x00\n        /* \"#utility.yul\":18541:18547   */\n      dup3\n        /* \"#utility.yul\":18537:18551   */\n      add\n        /* \"#utility.yul\":18530:18588   */\n      mstore\n        /* \"#utility.yul\":18622:18625   */\n      0x6e00000000000000000000000000000000000000000000000000000000000000\n        /* \"#utility.yul\":18617:18619   */\n      0x20\n        /* \"#utility.yul\":18609:18615   */\n      dup3\n        /* \"#utility.yul\":18605:18620   */\n      add\n        /* \"#utility.yul\":18598:18626   */\n      mstore\n        /* \"#utility.yul\":18413:18633   */\n      pop\n      jump\t// out\n        /* \"#utility.yul\":18639:19005   */\n    tag_187:\n        /* \"#utility.yul\":18781:18784   */\n      0x00\n        /* \"#utility.yul\":18802:18869   */\n      tag_374\n        /* \"#utility.yul\":18866:18868   */\n      0x21\n        /* \"#utility.yul\":18861:18864   */\n      dup4\n        /* \"#utility.yul\":18802:18869   */\n      tag_142\n      jump\t// in\n    tag_374:\n        /* \"#utility.yul\":18795:18869   */\n      swap2\n      pop\n        /* \"#utility.yul\":18878:18971   */\n      tag_375\n        /* \"#utility.yul\":18967:18970   */\n      dup3\n        /* \"#utility.yul\":18878:18971   */\n      tag_186\n      jump\t// in\n    tag_375:\n        /* \"#utility.yul\":18996:18998   */\n      0x40\n        /* \"#utility.yul\":18991:18994   */\n      dup3\n        /* \"#utility.yul\":18987:18999   */\n      add\n        /* \"#utility.yul\":18980:18999   */\n      swap1\n      pop\n        /* \"#utility.yul\":18639:19005   */\n      swap2\n      swap1\n      pop\n      jump\t// out\n        /* \"#utility.yul\":19011:19430   */\n    tag_89:\n        /* \"#utility.yul\":19177:19181   */\n      0x00\n        /* \"#utility.yul\":19215:19217   */\n      0x20\n        /* \"#utility.yul\":19204:19213   */\n      dup3\n        /* \"#utility.yul\":19200:19218   */\n      add\n        /* \"#utility.yul\":19192:19218   */\n      swap1\n      pop\n        /* \"#utility.yul\":19264:19273   */\n      dup2\n        /* \"#utility.yul\":19258:19262   */\n      dup2\n        /* \"#utility.yul\":19254:19274   */\n      sub\n        /* \"#utility.yul\":19250:19251   */\n      0x00\n        /* \"#utility.yul\":19239:19248   */\n      dup4\n        /* \"#utility.yul\":19235:19252   */\n      add\n        /* \"#utility.yul\":19228:19275   */\n      mstore\n        /* \"#utility.yul\":19292:19423   */\n      tag_377\n        /* \"#utility.yul\":19418:19422   */\n      dup2\n        /* \"#utility.yul\":19292:19423   */\n      tag_187\n      jump\t// in\n    tag_377:\n        /* \"#utility.yul\":19284:19423   */\n      swap1\n      pop\n        /* \"#utility.yul\":19011:19430   */\n      swap2\n      swap1\n      pop\n      jump\t// out\n        /* \"#utility.yul\":19436:19577   */\n    tag_188:\n        /* \"#utility.yul\":19485:19489   */\n      0x00\n        /* \"#utility.yul\":19508:19511   */\n      dup2\n        /* \"#utility.yul\":19500:19511   */\n      swap1\n      pop\n        /* \"#utility.yul\":19531:19534   */\n      dup2\n        /* \"#utility.yul\":19528:19529   */\n      0x00\n        /* \"#utility.yul\":19521:19535   */\n      mstore\n        /* \"#utility.yul\":19565:19569   */\n      0x20\n        /* \"#utility.yul\":19562:19563   */\n      0x00\n        /* \"#utility.yul\":19552:19570   */\n      keccak256\n        /* \"#utility.yul\":19544:19570   */\n      swap1\n      pop\n        /* \"#utility.yul\":19436:19577   */\n      swap2\n      swap1\n      pop\n      jump\t// out\n        /* \"#utility.yul\":19583:19676   */\n    tag_189:\n        /* \"#utility.yul\":19620:19626   */\n      0x00\n        /* \"#utility.yul\":19667:19669   */\n      0x20\n        /* \"#utility.yul\":19662:19664   */\n      0x1f\n        /* \"#utility.yul\":19655:19660   */\n      dup4\n        /* \"#utility.yul\":19651:19665   */\n      add\n        /* \"#utility.yul\":19647:19670   */\n      div\n        /* \"#utility.yul\":19637:19670   */\n      swap1\n      pop\n        /* \"#utility.yul\":19583:19676   */\n      swap2\n      swap1\n      pop\n      jump\t// out\n        /* \"#utility.yul\":19682:19789   */\n    tag_190:\n        /* \"#utility.yul\":19726:19734   */\n      0x00\n        /* \"#utility.yul\":19776:19781   */\n      dup3\n        /* \"#utility.yul\":19770:19774   */\n      dup3\n        /* \"#utility.yul\":19766:19782   */\n      shl\n        /* \"#utility.yul\":19745:19782   */\n      swap1\n      pop\n        /* \"#utility.yul\":19682:19789   */\n      swap3\n      swap2\n      pop\n      pop\n      jump\t// out\n        /* \"#utility.yul\":19795:20188   */\n    tag_191:\n        /* \"#utility.yul\":19864:19870   */\n      0x00\n        /* \"#utility.yul\":19914:19915   */\n      0x08\n        /* \"#utility.yul\":19902:19912   */\n      dup4\n        /* \"#utility.yul\":19898:19916   */\n      mul\n        /* \"#utility.yul\":19937:20034   */\n      tag_382\n        /* \"#utility.yul\":19967:20033   */\n      0xffffffffffffffffffffffffffffffffffffffffffffffffffffffffffffffff\n        /* \"#utility.yul\":19956:19965   */\n      dup3\n        /* \"#utility.yul\":19937:20034   */\n      tag_190\n      jump\t// in\n    tag_382:\n        /* \"#utility.yul\":20055:20094   */\n      tag_383\n        /* \"#utility.yul\":20085:20093   */\n      dup7\n        /* \"#utility.yul\":20074:20083   */\n      dup4\n        /* \"#utility.yul\":20055:20094   */\n      tag_190\n      jump\t// in\n    tag_383:\n        /* \"#utility.yul\":20043:20094   */\n      swap6\n      pop\n        /* \"#utility.yul\":20127:20131   */\n      dup1\n        /* \"#utility.yul\":20123:20132   */\n      not\n        /* \"#utility.yul\":20116:20121   */\n      dup5\n        /* \"#utility.yul\":20112:20133   */\n      and\n        /* \"#utility.yul\":20103:20133   */\n      swap4\n      pop\n        /* \"#utility.yul\":20176:20180   */\n      dup1\n        /* \"#utility.yul\":20166:20174   */\n      dup7\n        /* \"#utility.yul\":20162:20181   */\n      and\n        /* \"#utility.yul\":20155:20160   */\n      dup5\n        /* \"#utility.yul\":20152:20182   */\n      or\n        /* \"#utility.yul\":20142:20182   */\n      swap3\n      pop\n        /* \"#utility.yul\":19871:20188   */\n      pop\n      pop\n        /* \"#utility.yul\":19795:20188   */\n      swap4\n      swap3\n      pop\n      pop\n      pop\n      jump\t// out\n        /* \"#utility.yul\":20194:20254   */\n    tag_192:\n        /* \"#utility.yul\":20222:20225   */\n      0x00\n        /* \"#utility.yul\":20243:20248   */\n      dup2\n        /* \"#utility.yul\":20236:20248   */\n      swap1\n      pop\n        /* \"#utility.yul\":20194:20254   */\n      swap2\n      swap1\n      pop\n      jump\t// out\n        /* \"#utility.yul\":20260:20402   */\n    tag_193:\n        /* \"#utility.yul\":20310:20319   */\n      0x00\n        /* \"#utility.yul\":20343:20396   */\n      tag_386\n        /* \"#utility.yul\":20361:20395   */\n      tag_387\n        /* \"#utility.yul\":20370:20394   */\n      tag_388\n        /* \"#utility.yul\":20388:20393   */\n      dup5\n        /* \"#utility.yul\":20370:20394   */\n      tag_138\n      jump\t// in\n    tag_388:\n        /* \"#utility.yul\":20361:20395   */\n      tag_192\n      jump\t// in\n    tag_387:\n        /* \"#utility.yul\":20343:20396   */\n      tag_138\n      jump\t// in\n    tag_386:\n        /* \"#utility.yul\":20330:20396   */\n      swap1\n      pop\n        /* \"#utility.yul\":20260:20402   */\n      swap2\n      swap1\n      pop\n      jump\t// out\n        /* \"#utility.yul\":20408:20483   */\n    tag_194:\n        /* \"#utility.yul\":20451:20454   */\n      0x00\n        /* \"#utility.yul\":20472:20477   */\n      dup2\n        /* \"#utility.yul\":20465:20477   */\n      swap1\n      pop\n        /* \"#utility.yul\":20408:20483   */\n      swap2\n      swap1\n      pop\n      jump\t// out\n        /* \"#utility.yul\":20489:20758   */\n    tag_195:\n        /* \"#utility.yul\":20599:20638   */\n      tag_391\n        /* \"#utility.yul\":20630:20637   */\n      dup4\n        /* \"#utility.yul\":20599:20638   */\n      tag_193\n      jump\t// in\n    tag_391:\n        /* \"#utility.yul\":20660:20751   */\n      tag_392\n        /* \"#utility.yul\":20709:20750   */\n      tag_393\n        /* \"#utility.yul\":20733:20749   */\n      dup3\n        /* \"#utility.yul\":20709:20750   */\n      tag_194\n      jump\t// in\n    tag_393:\n        /* \"#utility.yul\":20701:20707   */\n      dup5\n        /* \"#utility.yul\":20694:20698   */\n      dup5\n        /* \"#utility.yul\":20688:20699   */\n      sload\n        /* \"#utility.yul\":20660:20751   */\n      tag_191\n      jump\t// in\n    tag_392:\n        /* \"#utility.yul\":20654:20658   */\n      dup3\n        /* \"#utility.yul\":20647:20752   */\n      sstore\n        /* \"#utility.yul\":20565:20758   */\n      pop\n        /* \"#utility.yul\":20489:20758   */\n      pop\n      pop\n      pop\n      jump\t// out\n        /* \"#utility.yul\":20764:20837   */\n    tag_196:\n        /* \"#utility.yul\":20809:20812   */\n      0x00\n        /* \"#utility.yul\":20764:20837   */\n      swap1\n      jump\t// out\n        /* \"#utility.yul\":20843:21032   */\n    tag_197:\n        /* \"#utility.yul\":20920:20952   */\n      tag_396\n      tag_196\n      jump\t// in\n    tag_396:\n        /* \"#utility.yul\":20961:21026   */\n      tag_397\n        /* \"#utility.yul\":21019:21025   */\n      dup2\n        /* \"#utility.yul\":21011:21017   */\n      dup5\n        /* \"#utility.yul\":21005:21009   */\n      dup5\n        /* \"#utility.yul\":20961:21026   */\n      tag_195\n      jump\t// in\n    tag_397:\n        /* \"#utility.yul\":20896:21032   */\n      pop\n        /* \"#utility.yul\":20843:21032   */\n      pop\n      pop\n      jump\t// out\n        /* \"#utility.yul\":21038:21224   */\n    tag_198:\n        /* \"#utility.yul\":21098:21218   */\n    tag_399:\n        /* \"#utility.yul\":21115:21118   */\n      dup2\n        /* \"#utility.yul\":21108:21113   */\n      dup2\n        /* \"#utility.yul\":21105:21119   */\n      lt\n        /* \"#utility.yul\":21098:21218   */\n      iszero\n      tag_401\n      jumpi\n        /* \"#utility.yul\":21169:21208   */\n      tag_402\n        /* \"#utility.yul\":21206:21207   */\n      0x00\n        /* \"#utility.yul\":21199:21204   */\n      dup3\n        /* \"#utility.yul\":21169:21208   */\n      tag_197\n      jump\t// in\n    tag_402:\n        /* \"#utility.yul\":21142:21143   */\n      0x01\n        /* \"#utility.yul\":21135:21140   */\n      dup2\n        /* \"#utility.yul\":21131:21144   */\n      add\n        /* \"#utility.yul\":21122:21144   */\n      swap1\n      pop\n        /* \"#utility.yul\":21098:21218   */\n      jump(tag_399)\n    tag_401:\n        /* \"#utility.yul\":21038:21224   */\n      pop\n      pop\n      jump\t// out\n        /* \"#utility.yul\":21230:21773   */\n    tag_199:\n        /* \"#utility.yul\":21331:21333   */\n      0x1f\n        /* \"#utility.yul\":21326:21329   */\n      dup3\n        /* \"#utility.yul\":21323:21334   */\n      gt\n        /* \"#utility.yul\":21320:21766   */\n      iszero\n      tag_404\n      jumpi\n        /* \"#utility.yul\":21365:21403   */\n      tag_405\n        /* \"#utility.yul\":21397:21402   */\n      dup2\n        /* \"#utility.yul\":21365:21403   */\n      tag_188\n      jump\t// in\n    tag_405:\n        /* \"#utility.yul\":21449:21478   */\n      tag_406\n        /* \"#utility.yul\":21467:21477   */\n      dup5\n        /* \"#utility.yul\":21449:21478   */\n      tag_189\n      jump\t// in\n    tag_406:\n        /* \"#utility.yul\":21439:21447   */\n      dup2\n        /* \"#utility.yul\":21435:21479   */\n      add\n        /* \"#utility.yul\":21632:21634   */\n      0x20\n        /* \"#utility.yul\":21620:21630   */\n      dup6\n        /* \"#utility.yul\":21617:21635   */\n      lt\n        /* \"#utility.yul\":21614:21663   */\n      iszero\n      tag_407\n      jumpi\n        /* \"#utility.yul\":21653:21661   */\n      dup2\n        /* \"#utility.yul\":21638:21661   */\n      swap1\n      pop\n        /* \"#utility.yul\":21614:21663   */\n    tag_407:\n        /* \"#utility.yul\":21676:21756   */\n      tag_408\n        /* \"#utility.yul\":21732:21754   */\n      tag_409\n        /* \"#utility.yul\":21750:21753   */\n      dup6\n        /* \"#utility.yul\":21732:21754   */\n      tag_189\n      jump\t// in\n    tag_409:\n        /* \"#utility.yul\":21722:21730   */\n      dup4\n        /* \"#utility.yul\":21718:21755   */\n      add\n        /* \"#utility.yul\":21705:21716   */\n      dup3\n        /* \"#utility.yul\":21676:21756   */\n      tag_198\n      jump\t// in\n    tag_408:\n        /* \"#utility.yul\":21335:21766   */\n      pop\n      pop\n        /* \"#utility.yul\":21320:21766   */\n    tag_404:\n        /* \"#utility.yul\":21230:21773   */\n      pop\n      pop\n      pop\n      jump\t// out\n        /* \"#utility.yul\":21779:21896   */\n    tag_200:\n        /* \"#utility.yul\":21833:21841   */\n      0x00\n        /* \"#utility.yul\":21883:21888   */\n      dup3\n        /* \"#utility.yul\":21877:21881   */\n      dup3\n        /* \"#utility.yul\":21873:21889   */\n      shr\n        /* \"#utility.yul\":21852:21889   */\n      swap1\n      pop\n        /* \"#utility.yul\":21779:21896   */\n      swap3\n      swap2\n      pop\n      pop\n      jump\t// out\n        /* \"#utility.yul\":21902:22071   */\n    tag_201:\n        /* \"#utility.yul\":21946:21952   */\n      0x00\n        /* \"#utility.yul\":21979:22030   */\n      tag_412\n        /* \"#utility.yul\":22027:22028   */\n      0x00\n        /* \"#utility.yul\":22023:22029   */\n      not\n        /* \"#utility.yul\":22015:22020   */\n      dup5\n        /* \"#utility.yul\":22012:22013   */\n      0x08\n        /* \"#utility.yul\":22008:22021   */\n      mul\n        /* \"#utility.yul\":21979:22030   */\n      tag_200\n      jump\t// in\n    tag_412:\n        /* \"#utility.yul\":21975:22031   */\n      not\n        /* \"#utility.yul\":22060:22064   */\n      dup1\n        /* \"#utility.yul\":22054:22058   */\n      dup4\n        /* \"#utility.yul\":22050:22065   */\n      and\n        /* \"#utility.yul\":22040:22065   */\n      swap2\n      pop\n        /* \"#utility.yul\":21953:22071   */\n      pop\n        /* \"#utility.yul\":21902:22071   */\n      swap3\n      swap2\n      pop\n      pop\n      jump\t// out\n        /* \"#utility.yul\":22076:22371   */\n    tag_202:\n        /* \"#utility.yul\":22152:22156   */\n      0x00\n        /* \"#utility.yul\":22298:22327   */\n      tag_414\n        /* \"#utility.yul\":22323:22326   */\n      dup4\n        /* \"#utility.yul\":22317:22321   */\n      dup4\n        /* \"#utility.yul\":22298:22327   */\n      tag_201\n      jump\t// in\n    tag_414:\n        /* \"#utility.yul\":22290:22327   */\n      swap2\n      pop\n        /* \"#utility.yul\":22360:22363   */\n      dup3\n        /* \"#utility.yul\":22357:22358   */\n      0x02\n        /* \"#utility.yul\":22353:22364   */\n      mul\n        /* \"#utility.yul\":22347:22351   */\n      dup3\n        /* \"#utility.yul\":22344:22365   */\n      or\n        /* \"#utility.yul\":22336:22365   */\n      swap1\n      pop\n        /* \"#utility.yul\":22076:22371   */\n      swap3\n      swap2\n      pop\n      pop\n      jump\t// out\n        /* \"#utility.yul\":22376:23771   */\n    tag_93:\n        /* \"#utility.yul\":22493:22530   */\n      tag_416\n        /* \"#utility.yul\":22526:22529   */\n      dup3\n        /* \"#utility.yul\":22493:22530   */\n      tag_141\n      jump\t// in\n    tag_416:\n        /* \"#utility.yul\":22595:22613   */\n      0xffffffffffffffff\n        /* \"#utility.yul\":22587:22593   */\n      dup2\n        /* \"#utility.yul\":22584:22614   */\n      gt\n        /* \"#utility.yul\":22581:22637   */\n      iszero\n      tag_417\n      jumpi\n        /* \"#utility.yul\":22617:22635   */\n      tag_418\n      tag_149\n      jump\t// in\n    tag_418:\n        /* \"#utility.yul\":22581:22637   */\n    tag_417:\n        /* \"#utility.yul\":22661:22699   */\n      tag_419\n        /* \"#utility.yul\":22693:22697   */\n      dup3\n        /* \"#utility.yul\":22687:22698   */\n      sload\n        /* \"#utility.yul\":22661:22699   */\n      tag_81\n      jump\t// in\n    tag_419:\n        /* \"#utility.yul\":22746:22813   */\n      tag_420\n        /* \"#utility.yul\":22806:22812   */\n      dup3\n        /* \"#utility.yul\":22798:22804   */\n      dup3\n        /* \"#utility.yul\":22792:22796   */\n      dup6\n        /* \"#utility.yul\":22746:22813   */\n      tag_199\n      jump\t// in\n    tag_420:\n        /* \"#utility.yul\":22840:22841   */\n      0x00\n        /* \"#utility.yul\":22864:22868   */\n      0x20\n        /* \"#utility.yul\":22851:22868   */\n      swap1\n      pop\n        /* \"#utility.yul\":22896:22898   */\n      0x1f\n        /* \"#utility.yul\":22888:22894   */\n      dup4\n        /* \"#utility.yul\":22885:22899   */\n      gt\n        /* \"#utility.yul\":22913:22914   */\n      0x01\n        /* \"#utility.yul\":22908:23526   */\n      dup2\n      eq\n      tag_422\n      jumpi\n        /* \"#utility.yul\":23570:23571   */\n      0x00\n        /* \"#utility.yul\":23587:23593   */\n      dup5\n        /* \"#utility.yul\":23584:23661   */\n      iszero\n      tag_423\n      jumpi\n        /* \"#utility.yul\":23636:23645   */\n      dup3\n        /* \"#utility.yul\":23631:23634   */\n      dup8\n        /* \"#utility.yul\":23627:23646   */\n      add\n        /* \"#utility.yul\":23621:23647   */\n      mload\n        /* \"#utility.yul\":23612:23647   */\n      swap1\n      pop\n        /* \"#utility.yul\":23584:23661   */\n    tag_423:\n        /* \"#utility.yul\":23687:23754   */\n      tag_424\n        /* \"#utility.yul\":23747:23753   */\n      dup6\n        /* \"#utility.yul\":23740:23745   */\n      dup3\n        /* \"#utility.yul\":23687:23754   */\n      tag_202\n      jump\t// in\n    tag_424:\n        /* \"#utility.yul\":23681:23685   */\n      dup7\n        /* \"#utility.yul\":23674:23755   */\n      sstore\n        /* \"#utility.yul\":23543:23765   */\n      pop\n        /* \"#utility.yul\":22878:23765   */\n      jump(tag_421)\n        /* \"#utility.yul\":22908:23526   */\n    tag_422:\n        /* \"#utility.yul\":22960:22964   */\n      0x1f\n        /* \"#utility.yul\":22956:22965   */\n      not\n        /* \"#utility.yul\":22948:22954   */\n      dup5\n        /* \"#utility.yul\":22944:22966   */\n      and\n        /* \"#utility.yul\":22994:23031   */\n      tag_425\n        /* \"#utility.yul\":23026:23030   */\n      dup7\n        /* \"#utility.yul\":22994:23031   */\n      tag_188\n      jump\t// in\n    tag_425:\n        /* \"#utility.yul\":23053:23054   */\n      0x00\n        /* \"#utility.yul\":23067:23275   */\n    tag_426:\n        /* \"#utility.yul\":23081:23088   */\n      dup3\n        /* \"#utility.yul\":23078:23079   */\n      dup2\n        /* \"#utility.yul\":23075:23089   */\n      lt\n        /* \"#utility.yul\":23067:23275   */\n      iszero\n      tag_428\n      jumpi\n        /* \"#utility.yul\":23160:23169   */\n      dup5\n        /* \"#utility.yul\":23155:23158   */\n      dup10\n        /* \"#utility.yul\":23151:23170   */\n      add\n        /* \"#utility.yul\":23145:23171   */\n      mload\n        /* \"#utility.yul\":23137:23143   */\n      dup3\n        /* \"#utility.yul\":23130:23172   */\n      sstore\n        /* \"#utility.yul\":23211:23212   */\n      0x01\n        /* \"#utility.yul\":23203:23209   */\n      dup3\n        /* \"#utility.yul\":23199:23213   */\n      add\n        /* \"#utility.yul\":23189:23213   */\n      swap2\n      pop\n        /* \"#utility.yul\":23258:23260   */\n      0x20\n        /* \"#utility.yul\":23247:23256   */\n      dup6\n        /* \"#utility.yul\":23243:23261   */\n      add\n        /* \"#utility.yul\":23230:23261   */\n      swap5\n      pop\n        /* \"#utility.yul\":23104:23108   */\n      0x20\n        /* \"#utility.yul\":23101:23102   */\n      dup2\n        /* \"#utility.yul\":23097:23109   */\n      add\n        /* \"#utility.yul\":23092:23109   */\n      swap1\n      pop\n        /* \"#utility.yul\":23067:23275   */\n      jump(tag_426)\n    tag_428:\n        /* \"#utility.yul\":23303:23309   */\n      dup7\n        /* \"#utility.yul\":23294:23301   */\n      dup4\n        /* \"#utility.yul\":23291:23310   */\n      lt\n        /* \"#utility.yul\":23288:23467   */\n      iszero\n      tag_429\n      jumpi\n        /* \"#utility.yul\":23361:23370   */\n      dup5\n        /* \"#utility.yul\":23356:23359   */\n      dup10\n        /* \"#utility.yul\":23352:23371   */\n      add\n        /* \"#utility.yul\":23346:23372   */\n      mload\n        /* \"#utility.yul\":23404:23452   */\n      tag_430\n        /* \"#utility.yul\":23446:23450   */\n      0x1f\n        /* \"#utility.yul\":23438:23444   */\n      dup10\n        /* \"#utility.yul\":23434:23451   */\n      and\n        /* \"#utility.yul\":23423:23432   */\n      dup3\n        /* \"#utility.yul\":23404:23452   */\n      tag_201\n      jump\t// in\n    tag_430:\n        /* \"#utility.yul\":23396:23402   */\n      dup4\n        /* \"#utility.yul\":23389:23453   */\n      sstore\n        /* \"#utility.yul\":23311:23467   */\n      pop\n        /* \"#utility.yul\":23288:23467   */\n    tag_429:\n        /* \"#utility.yul\":23513:23514   */\n      0x01\n        /* \"#utility.yul\":23509:23510   */\n      0x02\n        /* \"#utility.yul\":23501:23507   */\n      dup9\n        /* \"#utility.yul\":23497:23511   */\n      mul\n        /* \"#utility.yul\":23493:23515   */\n      add\n        /* \"#utility.yul\":23487:23491   */\n      dup9\n        /* \"#utility.yul\":23480:23516   */\n      sstore\n        /* \"#utility.yul\":22915:23526   */\n      pop\n      pop\n      pop\n        /* \"#utility.yul\":22878:23765   */\n    tag_421:\n      pop\n        /* \"#utility.yul\":22468:23771   */\n      pop\n      pop\n      pop\n        /* \"#utility.yul\":22376:23771   */\n      pop\n      pop\n      jump\t// out\n        /* \"#utility.yul\":23777:23945   */\n    tag_203:\n        /* \"#utility.yul\":23917:23937   */\n      0x4e6f2070726f706f73616c732065786973740000000000000000000000000000\n        /* \"#utility.yul\":23913:23914   */\n      0x00\n        /* \"#utility.yul\":23905:23911   */\n      dup3\n        /* \"#utility.yul\":23901:23915   */\n      add\n        /* \"#utility.yul\":23894:23938   */\n      mstore\n        /* \"#utility.yul\":23777:23945   */\n      pop\n      jump\t// out\n        /* \"#utility.yul\":23951:24317   */\n    tag_204:\n        /* \"#utility.yul\":24093:24096   */\n      0x00\n        /* \"#utility.yul\":24114:24181   */\n      tag_433\n        /* \"#utility.yul\":24178:24180   */\n      0x12\n        /* \"#utility.yul\":24173:24176   */\n      dup4\n        /* \"#utility.yul\":24114:24181   */\n      tag_142\n      jump\t// in\n    tag_433:\n        /* \"#utility.yul\":24107:24181   */\n      swap2\n      pop\n        /* \"#utility.yul\":24190:24283   */\n      tag_434\n        /* \"#utility.yul\":24279:24282   */\n      dup3\n        /* \"#utility.yul\":24190:24283   */\n      tag_203\n      jump\t// in\n    tag_434:\n        /* \"#utility.yul\":24308:24310   */\n      0x20\n        /* \"#utility.yul\":24303:24306   */\n      dup3\n        /* \"#utility.yul\":24299:24311   */\n      add\n        /* \"#utility.yul\":24292:24311   */\n      swap1\n      pop\n        /* \"#utility.yul\":23951:24317   */\n      swap2\n      swap1\n      pop\n      jump\t// out\n        /* \"#utility.yul\":24323:24742   */\n    tag_116:\n        /* \"#utility.yul\":24489:24493   */\n      0x00\n        /* \"#utility.yul\":24527:24529   */\n      0x20\n        /* \"#utility.yul\":24516:24525   */\n      dup3\n        /* \"#utility.yul\":24512:24530   */\n      add\n        /* \"#utility.yul\":24504:24530   */\n      swap1\n      pop\n        /* \"#utility.yul\":24576:24585   */\n      dup2\n        /* \"#utility.yul\":24570:24574   */\n      dup2\n        /* \"#utility.yul\":24566:24586   */\n      sub\n        /* \"#utility.yul\":24562:24563   */\n      0x00\n        /* \"#utility.yul\":24551:24560   */\n      dup4\n        /* \"#utility.yul\":24547:24564   */\n      add\n        /* \"#utility.yul\":24540:24587   */\n      mstore\n        /* \"#utility.yul\":24604:24735   */\n      tag_436\n        /* \"#utility.yul\":24730:24734   */\n      dup2\n        /* \"#utility.yul\":24604:24735   */\n      tag_204\n      jump\t// in\n    tag_436:\n        /* \"#utility.yul\":24596:24735   */\n      swap1\n      pop\n        /* \"#utility.yul\":24323:24742   */\n      swap2\n      swap1\n      pop\n      jump\t// out\n\n    auxdata: 0xa2646970667358221220e4c9cf769cae09b4e10a8b77a365aa5bc0a29223cf6fe070816b71ed76f2921464736f6c634300081a0033\n}\n",
				"bytecode": {
					"linkReferences": {},
					"object": "608060405234801561000f575f80fd5b50604051611d02380380611d028339818101604052810190610031919061035b565b3360025f6101000a81548173ffffffffffffffffffffffffffffffffffffffff021916908373ffffffffffffffffffffffffffffffffffffffff160217905550426003600201819055506001600380015f6101000a81548160ff0219169083151502179055505f5b8151811015610125575f60405180604001604052808484815181106100c1576100c06103a2565b5b602002602001015181526020015f815250908060018154018082558091505060019003905f5260205f2090600202015f909190919091505f820151815f01908161010b91906105dc565b506020820151816001015550508080600101915050610099565b50506106ab565b5f604051905090565b5f80fd5b5f80fd5b5f80fd5b5f601f19601f8301169050919050565b7f4e487b71000000000000000000000000000000000000000000000000000000005f52604160045260245ffd5b61018782610141565b810181811067ffffffffffffffff821117156101a6576101a5610151565b5b80604052505050565b5f6101b861012c565b90506101c4828261017e565b919050565b5f67ffffffffffffffff8211156101e3576101e2610151565b5b602082029050602081019050919050565b5f80fd5b5f80fd5b5f67ffffffffffffffff82111561021657610215610151565b5b61021f82610141565b9050602081019050919050565b8281835e5f83830152505050565b5f61024c610247846101fc565b6101af565b905082815260208101848484011115610268576102676101f8565b5b61027384828561022c565b509392505050565b5f82601f83011261028f5761028e61013d565b5b815161029f84826020860161023a565b91505092915050565b5f6102ba6102b5846101c9565b6101af565b905080838252602082019050602084028301858111156102dd576102dc6101f4565b5b835b8181101561032457805167ffffffffffffffff8111156103025761030161013d565b5b80860161030f898261027b565b855260208501945050506020810190506102df565b5050509392505050565b5f82601f8301126103425761034161013d565b5b81516103528482602086016102a8565b91505092915050565b5f602082840312156103705761036f610135565b5b5f82015167ffffffffffffffff81111561038d5761038c610139565b5b6103998482850161032e565b91505092915050565b7f4e487b71000000000000000000000000000000000000000000000000000000005f52603260045260245ffd5b5f81519050919050565b7f4e487b71000000000000000000000000000000000000000000000000000000005f52602260045260245ffd5b5f600282049050600182168061041d57607f821691505b6020821081036104305761042f6103d9565b5b50919050565b5f819050815f5260205f209050919050565b5f6020601f8301049050919050565b5f82821b905092915050565b5f600883026104927fffffffffffffffffffffffffffffffffffffffffffffffffffffffffffffffff82610457565b61049c8683610457565b95508019841693508086168417925050509392505050565b5f819050919050565b5f819050919050565b5f6104e06104db6104d6846104b4565b6104bd565b6104b4565b9050919050565b5f819050919050565b6104f9836104c6565b61050d610505826104e7565b848454610463565b825550505050565b5f90565b610521610515565b61052c8184846104f0565b505050565b5b8181101561054f576105445f82610519565b600181019050610532565b5050565b601f8211156105945761056581610436565b61056e84610448565b8101602085101561057d578190505b61059161058985610448565b830182610531565b50505b505050565b5f82821c905092915050565b5f6105b45f1984600802610599565b1980831691505092915050565b5f6105cc83836105a5565b9150826002028217905092915050565b6105e5826103cf565b67ffffffffffffffff8111156105fe576105fd610151565b5b6106088254610406565b610613828285610553565b5f60209050601f831160018114610644575f8415610632578287015190505b61063c85826105c1565b8655506106a3565b601f19841661065286610436565b5f5b8281101561067957848901518255600182019150602085019450602081019050610654565b868310156106965784890151610692601f8916826105a5565b8355505b6001600288020188555050505b505050505050565b61164a806106b85f395ff3fe608060405234801561000f575f80fd5b506004361061009c575f3560e01c806376804a031161006457806376804a03146101435780638da5cb5b14610161578063a3ec138d1461017f578063a5134620146101af578063d80528ae146101cd5761009c565b80630121b93f146100a0578063013cf08b146100bc5780632fdae3c5146100ed57806362564c48146101095780637478c9fe14610127575b5f80fd5b6100ba60048036038101906100b59190610a5f565b6101ee565b005b6100d660048036038101906100d19190610a5f565b61041d565b6040516100e4929190610b09565b60405180910390f35b61010760048036038101906101029190610c63565b6104d1565b005b6101116105bf565b60405161011e9190610df6565b60405180910390f35b610141600480360381019061013c9190610e4b565b6106b3565b005b61014b610797565b6040516101589190610ed8565b60405180910390f35b6101696107e8565b6040516101769190610f30565b60405180910390f35b61019960048036038101906101949190610f73565b61080d565b6040516101a69190610fad565b60405180910390f35b6101b761082a565b6040516101c49190611000565b60405180910390f35b6101d56109b3565b6040516101e59493929190611020565b60405180910390f35b600380015f9054906101000a900460ff1661023e576040517f08c379a0000000000000000000000000000000000000000000000000000000008152600401610235906110ad565b60405180910390fd5b5f805490508110610284576040517f08c379a000000000000000000000000000000000000000000000000000000000815260040161027b90611115565b60405180910390fd5b60015f3373ffffffffffffffffffffffffffffffffffffffff1673ffffffffffffffffffffffffffffffffffffffff1681526020019081526020015f205f9054906101000a900460ff161561030e576040517f08c379a00000000000000000000000000000000000000000000000000000000081526004016103059061117d565b60405180910390fd5b5f81815481106103215761032061119b565b5b905f5260205f2090600202016001015f815480929190610340906111f5565b91905055506001805f3373ffffffffffffffffffffffffffffffffffffffff1673ffffffffffffffffffffffffffffffffffffffff1681526020019081526020015f205f6101000a81548160ff02191690831515021790555060035f015f8154809291906103ad906111f5565b919050555060036001015f8154809291906103c7906111f5565b91905055503373ffffffffffffffffffffffffffffffffffffffff167fa36cc2bebb74db33e9f88110a07ef56e1b31b24b4c4f51b54b1664266e29f45b82604051610412919061123c565b60405180910390a250565b5f818154811061042b575f80fd5b905f5260205f2090600202015f91509050805f01805461044a90611282565b80601f016020809104026020016040519081016040528092919081815260200182805461047690611282565b80156104c15780601f10610498576101008083540402835291602001916104c1565b820191905f5260205f20905b8154815290600101906020018083116104a457829003601f168201915b5050505050908060010154905082565b60025f9054906101000a900473ffffffffffffffffffffffffffffffffffffffff1673ffffffffffffffffffffffffffffffffffffffff163373ffffffffffffffffffffffffffffffffffffffff1614610560576040517f08c379a000000000000000000000000000000000000000000000000000000000815260040161055790611322565b60405180910390fd5b5f60405180604001604052808381526020015f815250908060018154018082558091505060019003905f5260205f2090600202015f909190919091505f820151815f0190816105af91906114dd565b5060208201518160010155505050565b60605f805480602002602001604051908101604052809291908181526020015f905b828210156106aa578382905f5260205f2090600202016040518060400160405290815f8201805461061190611282565b80601f016020809104026020016040519081016040528092919081815260200182805461063d90611282565b80156106885780601f1061065f57610100808354040283529160200191610688565b820191905f5260205f20905b81548152906001019060200180831161066b57829003601f168201915b50505050508152602001600182015481525050815260200190600101906105e1565b50505050905090565b60025f9054906101000a900473ffffffffffffffffffffffffffffffffffffffff1673ffffffffffffffffffffffffffffffffffffffff163373ffffffffffffffffffffffffffffffffffffffff1614610742576040517f08c379a000000000000000000000000000000000000000000000000000000000815260040161073990611322565b60405180910390fd5b80600380015f6101000a81548160ff0219169083151502179055507f9069a1a16ace751e8690f383e12f87b01e8488ba387e626810bd113fef0417f98160405161078c9190610fad565b60405180910390a150565b61079f6109dc565b60036040518060800160405290815f82015481526020016001820154815260200160028201548152602001600382015f9054906101000a900460ff161515151581525050905090565b60025f9054906101000a900473ffffffffffffffffffffffffffffffffffffffff1681565b6001602052805f5260405f205f915054906101000a900460ff1681565b610832610a02565b5f808054905011610878576040517f08c379a000000000000000000000000000000000000000000000000000000000815260040161086f906115f6565b60405180910390fd5b5f805f5b5f805490508110156108e857815f828154811061089c5761089b61119b565b5b905f5260205f2090600202016001015411156108db575f81815481106108c5576108c461119b565b5b905f5260205f2090600202016001015491508092505b808060010191505061087c565b505f82815481106108fc576108fb61119b565b5b905f5260205f2090600202016040518060400160405290815f8201805461092290611282565b80601f016020809104026020016040519081016040528092919081815260200182805461094e90611282565b80156109995780601f1061097057610100808354040283529160200191610999565b820191905f5260205f20905b81548152906001019060200180831161097c57829003601f168201915b505050505081526020016001820154815250509250505090565b6003805f015490806001015490806002015490806003015f9054906101000a900460ff16905084565b60405180608001604052805f81526020015f81526020015f81526020015f151581525090565b6040518060400160405280606081526020015f81525090565b5f604051905090565b5f80fd5b5f80fd5b5f819050919050565b610a3e81610a2c565b8114610a48575f80fd5b50565b5f81359050610a5981610a35565b92915050565b5f60208284031215610a7457610a73610a24565b5b5f610a8184828501610a4b565b91505092915050565b5f81519050919050565b5f82825260208201905092915050565b8281835e5f83830152505050565b5f601f19601f8301169050919050565b5f610acc82610a8a565b610ad68185610a94565b9350610ae6818560208601610aa4565b610aef81610ab2565b840191505092915050565b610b0381610a2c565b82525050565b5f6040820190508181035f830152610b218185610ac2565b9050610b306020830184610afa565b9392505050565b5f80fd5b5f80fd5b7f4e487b71000000000000000000000000000000000000000000000000000000005f52604160045260245ffd5b610b7582610ab2565b810181811067ffffffffffffffff82111715610b9457610b93610b3f565b5b80604052505050565b5f610ba6610a1b565b9050610bb28282610b6c565b919050565b5f67ffffffffffffffff821115610bd157610bd0610b3f565b5b610bda82610ab2565b9050602081019050919050565b828183375f83830152505050565b5f610c07610c0284610bb7565b610b9d565b905082815260208101848484011115610c2357610c22610b3b565b5b610c2e848285610be7565b509392505050565b5f82601f830112610c4a57610c49610b37565b5b8135610c5a848260208601610bf5565b91505092915050565b5f60208284031215610c7857610c77610a24565b5b5f82013567ffffffffffffffff811115610c9557610c94610a28565b5b610ca184828501610c36565b91505092915050565b5f81519050919050565b5f82825260208201905092915050565b5f819050602082019050919050565b5f82825260208201905092915050565b5f610ced82610a8a565b610cf78185610cd3565b9350610d07818560208601610aa4565b610d1081610ab2565b840191505092915050565b610d2481610a2c565b82525050565b5f604083015f8301518482035f860152610d448282610ce3565b9150506020830151610d596020860182610d1b565b508091505092915050565b5f610d6f8383610d2a565b905092915050565b5f602082019050919050565b5f610d8d82610caa565b610d978185610cb4565b935083602082028501610da985610cc4565b805f5b85811015610de45784840389528151610dc58582610d64565b9450610dd083610d77565b925060208a01995050600181019050610dac565b50829750879550505050505092915050565b5f6020820190508181035f830152610e0e8184610d83565b905092915050565b5f8115159050919050565b610e2a81610e16565b8114610e34575f80fd5b50565b5f81359050610e4581610e21565b92915050565b5f60208284031215610e6057610e5f610a24565b5b5f610e6d84828501610e37565b91505092915050565b610e7f81610e16565b82525050565b608082015f820151610e995f850182610d1b565b506020820151610eac6020850182610d1b565b506040820151610ebf6040850182610d1b565b506060820151610ed26060850182610e76565b50505050565b5f608082019050610eeb5f830184610e85565b92915050565b5f73ffffffffffffffffffffffffffffffffffffffff82169050919050565b5f610f1a82610ef1565b9050919050565b610f2a81610f10565b82525050565b5f602082019050610f435f830184610f21565b92915050565b610f5281610f10565b8114610f5c575f80fd5b50565b5f81359050610f6d81610f49565b92915050565b5f60208284031215610f8857610f87610a24565b5b5f610f9584828501610f5f565b91505092915050565b610fa781610e16565b82525050565b5f602082019050610fc05f830184610f9e565b92915050565b5f604083015f8301518482035f860152610fe08282610ce3565b9150506020830151610ff56020860182610d1b565b508091505092915050565b5f6020820190508181035f8301526110188184610fc6565b905092915050565b5f6080820190506110335f830187610afa565b6110406020830186610afa565b61104d6040830185610afa565b61105a6060830184610f9e565b95945050505050565b7f566f74696e67206973206e6f74206163746976650000000000000000000000005f82015250565b5f611097601483610a94565b91506110a282611063565b602082019050919050565b5f6020820190508181035f8301526110c48161108b565b9050919050565b7f496e76616c69642070726f706f73616c204944000000000000000000000000005f82015250565b5f6110ff601383610a94565b915061110a826110cb565b602082019050919050565b5f6020820190508181035f83015261112c816110f3565b9050919050565b7f416c726561647920766f746564000000000000000000000000000000000000005f82015250565b5f611167600d83610a94565b915061117282611133565b602082019050919050565b5f6020820190508181035f8301526111948161115b565b9050919050565b7f4e487b71000000000000000000000000000000000000000000000000000000005f52603260045260245ffd5b7f4e487b71000000000000000000000000000000000000000000000000000000005f52601160045260245ffd5b5f6111ff82610a2c565b91507fffffffffffffffffffffffffffffffffffffffffffffffffffffffffffffffff8203611231576112306111c8565b5b600182019050919050565b5f60208201905061124f5f830184610afa565b92915050565b7f4e487b71000000000000000000000000000000000000000000000000000000005f52602260045260245ffd5b5f600282049050600182168061129957607f821691505b6020821081036112ac576112ab611255565b5b50919050565b7f4f6e6c79206f776e65722063616e2063616c6c20746869732066756e6374696f5f8201527f6e00000000000000000000000000000000000000000000000000000000000000602082015250565b5f61130c602183610a94565b9150611317826112b2565b604082019050919050565b5f6020820190508181035f83015261133981611300565b9050919050565b5f819050815f5260205f209050919050565b5f6020601f8301049050919050565b5f82821b905092915050565b5f6008830261139c7fffffffffffffffffffffffffffffffffffffffffffffffffffffffffffffffff82611361565b6113a68683611361565b95508019841693508086168417925050509392505050565b5f819050919050565b5f6113e16113dc6113d784610a2c565b6113be565b610a2c565b9050919050565b5f819050919050565b6113fa836113c7565b61140e611406826113e8565b84845461136d565b825550505050565b5f90565b611422611416565b61142d8184846113f1565b505050565b5b81811015611450576114455f8261141a565b600181019050611433565b5050565b601f8211156114955761146681611340565b61146f84611352565b8101602085101561147e578190505b61149261148a85611352565b830182611432565b50505b505050565b5f82821c905092915050565b5f6114b55f198460080261149a565b1980831691505092915050565b5f6114cd83836114a6565b9150826002028217905092915050565b6114e682610a8a565b67ffffffffffffffff8111156114ff576114fe610b3f565b5b6115098254611282565b611514828285611454565b5f60209050601f831160018114611545575f8415611533578287015190505b61153d85826114c2565b8655506115a4565b601f19841661155386611340565b5f5b8281101561157a57848901518255600182019150602085019450602081019050611555565b868310156115975784890151611593601f8916826114a6565b8355505b6001600288020188555050505b505050505050565b7f4e6f2070726f706f73616c7320657869737400000000000000000000000000005f82015250565b5f6115e0601283610a94565b91506115eb826115ac565b602082019050919050565b5f6020820190508181035f83015261160d816115d4565b905091905056fea2646970667358221220e4c9cf769cae09b4e10a8b77a365aa5bc0a29223cf6fe070816b71ed76f2921464736f6c634300081a0033",
					"opcodes": "PUSH1 0x80 PUSH1 0x40 MSTORE CALLVALUE DUP1 ISZERO PUSH2 0xF JUMPI PUSH0 DUP1 REVERT JUMPDEST POP PUSH1 0x40 MLOAD PUSH2 0x1D02 CODESIZE SUB DUP1 PUSH2 0x1D02 DUP4 CODECOPY DUP2 DUP2 ADD PUSH1 0x40 MSTORE DUP2 ADD SWAP1 PUSH2 0x31 SWAP2 SWAP1 PUSH2 0x35B JUMP JUMPDEST CALLER PUSH1 0x2 PUSH0 PUSH2 0x100 EXP DUP2 SLOAD DUP2 PUSH20 0xFFFFFFFFFFFFFFFFFFFFFFFFFFFFFFFFFFFFFFFF MUL NOT AND SWAP1 DUP4 PUSH20 0xFFFFFFFFFFFFFFFFFFFFFFFFFFFFFFFFFFFFFFFF AND MUL OR SWAP1 SSTORE POP TIMESTAMP PUSH1 0x3 PUSH1 0x2 ADD DUP2 SWAP1 SSTORE POP PUSH1 0x1 PUSH1 0x3 DUP1 ADD PUSH0 PUSH2 0x100 EXP DUP2 SLOAD DUP2 PUSH1 0xFF MUL NOT AND SWAP1 DUP4 ISZERO ISZERO MUL OR SWAP1 SSTORE POP PUSH0 JUMPDEST DUP2 MLOAD DUP2 LT ISZERO PUSH2 0x125 JUMPI PUSH0 PUSH1 0x40 MLOAD DUP1 PUSH1 0x40 ADD PUSH1 0x40 MSTORE DUP1 DUP5 DUP5 DUP2 MLOAD DUP2 LT PUSH2 0xC1 JUMPI PUSH2 0xC0 PUSH2 0x3A2 JUMP JUMPDEST JUMPDEST PUSH1 0x20 MUL PUSH1 0x20 ADD ADD MLOAD DUP2 MSTORE PUSH1 0x20 ADD PUSH0 DUP2 MSTORE POP SWAP1 DUP1 PUSH1 0x1 DUP2 SLOAD ADD DUP1 DUP3 SSTORE DUP1 SWAP2 POP POP PUSH1 0x1 SWAP1 SUB SWAP1 PUSH0 MSTORE PUSH1 0x20 PUSH0 KECCAK256 SWAP1 PUSH1 0x2 MUL ADD PUSH0 SWAP1 SWAP2 SWAP1 SWAP2 SWAP1 SWAP2 POP PUSH0 DUP3 ADD MLOAD DUP2 PUSH0 ADD SWAP1 DUP2 PUSH2 0x10B SWAP2 SWAP1 PUSH2 0x5DC JUMP JUMPDEST POP PUSH1 0x20 DUP3 ADD MLOAD DUP2 PUSH1 0x1 ADD SSTORE POP POP DUP1 DUP1 PUSH1 0x1 ADD SWAP2 POP POP PUSH2 0x99 JUMP JUMPDEST POP POP PUSH2 0x6AB JUMP JUMPDEST PUSH0 PUSH1 0x40 MLOAD SWAP1 POP SWAP1 JUMP JUMPDEST PUSH0 DUP1 REVERT JUMPDEST PUSH0 DUP1 REVERT JUMPDEST PUSH0 DUP1 REVERT JUMPDEST PUSH0 PUSH1 0x1F NOT PUSH1 0x1F DUP4 ADD AND SWAP1 POP SWAP2 SWAP1 POP JUMP JUMPDEST PUSH32 0x4E487B7100000000000000000000000000000000000000000000000000000000 PUSH0 MSTORE PUSH1 0x41 PUSH1 0x4 MSTORE PUSH1 0x24 PUSH0 REVERT JUMPDEST PUSH2 0x187 DUP3 PUSH2 0x141 JUMP JUMPDEST DUP2 ADD DUP2 DUP2 LT PUSH8 0xFFFFFFFFFFFFFFFF DUP3 GT OR ISZERO PUSH2 0x1A6 JUMPI PUSH2 0x1A5 PUSH2 0x151 JUMP JUMPDEST JUMPDEST DUP1 PUSH1 0x40 MSTORE POP POP POP JUMP JUMPDEST PUSH0 PUSH2 0x1B8 PUSH2 0x12C JUMP JUMPDEST SWAP1 POP PUSH2 0x1C4 DUP3 DUP3 PUSH2 0x17E JUMP JUMPDEST SWAP2 SWAP1 POP JUMP JUMPDEST PUSH0 PUSH8 0xFFFFFFFFFFFFFFFF DUP3 GT ISZERO PUSH2 0x1E3 JUMPI PUSH2 0x1E2 PUSH2 0x151 JUMP JUMPDEST JUMPDEST PUSH1 0x20 DUP3 MUL SWAP1 POP PUSH1 0x20 DUP2 ADD SWAP1 POP SWAP2 SWAP1 POP JUMP JUMPDEST PUSH0 DUP1 REVERT JUMPDEST PUSH0 DUP1 REVERT JUMPDEST PUSH0 PUSH8 0xFFFFFFFFFFFFFFFF DUP3 GT ISZERO PUSH2 0x216 JUMPI PUSH2 0x215 PUSH2 0x151 JUMP JUMPDEST JUMPDEST PUSH2 0x21F DUP3 PUSH2 0x141 JUMP JUMPDEST SWAP1 POP PUSH1 0x20 DUP2 ADD SWAP1 POP SWAP2 SWAP1 POP JUMP JUMPDEST DUP3 DUP2 DUP4 MCOPY PUSH0 DUP4 DUP4 ADD MSTORE POP POP POP JUMP JUMPDEST PUSH0 PUSH2 0x24C PUSH2 0x247 DUP5 PUSH2 0x1FC JUMP JUMPDEST PUSH2 0x1AF JUMP JUMPDEST SWAP1 POP DUP3 DUP2 MSTORE PUSH1 0x20 DUP2 ADD DUP5 DUP5 DUP5 ADD GT ISZERO PUSH2 0x268 JUMPI PUSH2 0x267 PUSH2 0x1F8 JUMP JUMPDEST JUMPDEST PUSH2 0x273 DUP5 DUP3 DUP6 PUSH2 0x22C JUMP JUMPDEST POP SWAP4 SWAP3 POP POP POP JUMP JUMPDEST PUSH0 DUP3 PUSH1 0x1F DUP4 ADD SLT PUSH2 0x28F JUMPI PUSH2 0x28E PUSH2 0x13D JUMP JUMPDEST JUMPDEST DUP2 MLOAD PUSH2 0x29F DUP5 DUP3 PUSH1 0x20 DUP7 ADD PUSH2 0x23A JUMP JUMPDEST SWAP2 POP POP SWAP3 SWAP2 POP POP JUMP JUMPDEST PUSH0 PUSH2 0x2BA PUSH2 0x2B5 DUP5 PUSH2 0x1C9 JUMP JUMPDEST PUSH2 0x1AF JUMP JUMPDEST SWAP1 POP DUP1 DUP4 DUP3 MSTORE PUSH1 0x20 DUP3 ADD SWAP1 POP PUSH1 0x20 DUP5 MUL DUP4 ADD DUP6 DUP2 GT ISZERO PUSH2 0x2DD JUMPI PUSH2 0x2DC PUSH2 0x1F4 JUMP JUMPDEST JUMPDEST DUP4 JUMPDEST DUP2 DUP2 LT ISZERO PUSH2 0x324 JUMPI DUP1 MLOAD PUSH8 0xFFFFFFFFFFFFFFFF DUP2 GT ISZERO PUSH2 0x302 JUMPI PUSH2 0x301 PUSH2 0x13D JUMP JUMPDEST JUMPDEST DUP1 DUP7 ADD PUSH2 0x30F DUP10 DUP3 PUSH2 0x27B JUMP JUMPDEST DUP6 MSTORE PUSH1 0x20 DUP6 ADD SWAP5 POP POP POP PUSH1 0x20 DUP2 ADD SWAP1 POP PUSH2 0x2DF JUMP JUMPDEST POP POP POP SWAP4 SWAP3 POP POP POP JUMP JUMPDEST PUSH0 DUP3 PUSH1 0x1F DUP4 ADD SLT PUSH2 0x342 JUMPI PUSH2 0x341 PUSH2 0x13D JUMP JUMPDEST JUMPDEST DUP2 MLOAD PUSH2 0x352 DUP5 DUP3 PUSH1 0x20 DUP7 ADD PUSH2 0x2A8 JUMP JUMPDEST SWAP2 POP POP SWAP3 SWAP2 POP POP JUMP JUMPDEST PUSH0 PUSH1 0x20 DUP3 DUP5 SUB SLT ISZERO PUSH2 0x370 JUMPI PUSH2 0x36F PUSH2 0x135 JUMP JUMPDEST JUMPDEST PUSH0 DUP3 ADD MLOAD PUSH8 0xFFFFFFFFFFFFFFFF DUP2 GT ISZERO PUSH2 0x38D JUMPI PUSH2 0x38C PUSH2 0x139 JUMP JUMPDEST JUMPDEST PUSH2 0x399 DUP5 DUP3 DUP6 ADD PUSH2 0x32E JUMP JUMPDEST SWAP2 POP POP SWAP3 SWAP2 POP POP JUMP JUMPDEST PUSH32 0x4E487B7100000000000000000000000000000000000000000000000000000000 PUSH0 MSTORE PUSH1 0x32 PUSH1 0x4 MSTORE PUSH1 0x24 PUSH0 REVERT JUMPDEST PUSH0 DUP2 MLOAD SWAP1 POP SWAP2 SWAP1 POP JUMP JUMPDEST PUSH32 0x4E487B7100000000000000000000000000000000000000000000000000000000 PUSH0 MSTORE PUSH1 0x22 PUSH1 0x4 MSTORE PUSH1 0x24 PUSH0 REVERT JUMPDEST PUSH0 PUSH1 0x2 DUP3 DIV SWAP1 POP PUSH1 0x1 DUP3 AND DUP1 PUSH2 0x41D JUMPI PUSH1 0x7F DUP3 AND SWAP2 POP JUMPDEST PUSH1 0x20 DUP3 LT DUP2 SUB PUSH2 0x430 JUMPI PUSH2 0x42F PUSH2 0x3D9 JUMP JUMPDEST JUMPDEST POP SWAP2 SWAP1 POP JUMP JUMPDEST PUSH0 DUP2 SWAP1 POP DUP2 PUSH0 MSTORE PUSH1 0x20 PUSH0 KECCAK256 SWAP1 POP SWAP2 SWAP1 POP JUMP JUMPDEST PUSH0 PUSH1 0x20 PUSH1 0x1F DUP4 ADD DIV SWAP1 POP SWAP2 SWAP1 POP JUMP JUMPDEST PUSH0 DUP3 DUP3 SHL SWAP1 POP SWAP3 SWAP2 POP POP JUMP JUMPDEST PUSH0 PUSH1 0x8 DUP4 MUL PUSH2 0x492 PUSH32 0xFFFFFFFFFFFFFFFFFFFFFFFFFFFFFFFFFFFFFFFFFFFFFFFFFFFFFFFFFFFFFFFF DUP3 PUSH2 0x457 JUMP JUMPDEST PUSH2 0x49C DUP7 DUP4 PUSH2 0x457 JUMP JUMPDEST SWAP6 POP DUP1 NOT DUP5 AND SWAP4 POP DUP1 DUP7 AND DUP5 OR SWAP3 POP POP POP SWAP4 SWAP3 POP POP POP JUMP JUMPDEST PUSH0 DUP2 SWAP1 POP SWAP2 SWAP1 POP JUMP JUMPDEST PUSH0 DUP2 SWAP1 POP SWAP2 SWAP1 POP JUMP JUMPDEST PUSH0 PUSH2 0x4E0 PUSH2 0x4DB PUSH2 0x4D6 DUP5 PUSH2 0x4B4 JUMP JUMPDEST PUSH2 0x4BD JUMP JUMPDEST PUSH2 0x4B4 JUMP JUMPDEST SWAP1 POP SWAP2 SWAP1 POP JUMP JUMPDEST PUSH0 DUP2 SWAP1 POP SWAP2 SWAP1 POP JUMP JUMPDEST PUSH2 0x4F9 DUP4 PUSH2 0x4C6 JUMP JUMPDEST PUSH2 0x50D PUSH2 0x505 DUP3 PUSH2 0x4E7 JUMP JUMPDEST DUP5 DUP5 SLOAD PUSH2 0x463 JUMP JUMPDEST DUP3 SSTORE POP POP POP POP JUMP JUMPDEST PUSH0 SWAP1 JUMP JUMPDEST PUSH2 0x521 PUSH2 0x515 JUMP JUMPDEST PUSH2 0x52C DUP2 DUP5 DUP5 PUSH2 0x4F0 JUMP JUMPDEST POP POP POP JUMP JUMPDEST JUMPDEST DUP2 DUP2 LT ISZERO PUSH2 0x54F JUMPI PUSH2 0x544 PUSH0 DUP3 PUSH2 0x519 JUMP JUMPDEST PUSH1 0x1 DUP2 ADD SWAP1 POP PUSH2 0x532 JUMP JUMPDEST POP POP JUMP JUMPDEST PUSH1 0x1F DUP3 GT ISZERO PUSH2 0x594 JUMPI PUSH2 0x565 DUP2 PUSH2 0x436 JUMP JUMPDEST PUSH2 0x56E DUP5 PUSH2 0x448 JUMP JUMPDEST DUP2 ADD PUSH1 0x20 DUP6 LT ISZERO PUSH2 0x57D JUMPI DUP2 SWAP1 POP JUMPDEST PUSH2 0x591 PUSH2 0x589 DUP6 PUSH2 0x448 JUMP JUMPDEST DUP4 ADD DUP3 PUSH2 0x531 JUMP JUMPDEST POP POP JUMPDEST POP POP POP JUMP JUMPDEST PUSH0 DUP3 DUP3 SHR SWAP1 POP SWAP3 SWAP2 POP POP JUMP JUMPDEST PUSH0 PUSH2 0x5B4 PUSH0 NOT DUP5 PUSH1 0x8 MUL PUSH2 0x599 JUMP JUMPDEST NOT DUP1 DUP4 AND SWAP2 POP POP SWAP3 SWAP2 POP POP JUMP JUMPDEST PUSH0 PUSH2 0x5CC DUP4 DUP4 PUSH2 0x5A5 JUMP JUMPDEST SWAP2 POP DUP3 PUSH1 0x2 MUL DUP3 OR SWAP1 POP SWAP3 SWAP2 POP POP JUMP JUMPDEST PUSH2 0x5E5 DUP3 PUSH2 0x3CF JUMP JUMPDEST PUSH8 0xFFFFFFFFFFFFFFFF DUP2 GT ISZERO PUSH2 0x5FE JUMPI PUSH2 0x5FD PUSH2 0x151 JUMP JUMPDEST JUMPDEST PUSH2 0x608 DUP3 SLOAD PUSH2 0x406 JUMP JUMPDEST PUSH2 0x613 DUP3 DUP3 DUP6 PUSH2 0x553 JUMP JUMPDEST PUSH0 PUSH1 0x20 SWAP1 POP PUSH1 0x1F DUP4 GT PUSH1 0x1 DUP2 EQ PUSH2 0x644 JUMPI PUSH0 DUP5 ISZERO PUSH2 0x632 JUMPI DUP3 DUP8 ADD MLOAD SWAP1 POP JUMPDEST PUSH2 0x63C DUP6 DUP3 PUSH2 0x5C1 JUMP JUMPDEST DUP7 SSTORE POP PUSH2 0x6A3 JUMP JUMPDEST PUSH1 0x1F NOT DUP5 AND PUSH2 0x652 DUP7 PUSH2 0x436 JUMP JUMPDEST PUSH0 JUMPDEST DUP3 DUP2 LT ISZERO PUSH2 0x679 JUMPI DUP5 DUP10 ADD MLOAD DUP3 SSTORE PUSH1 0x1 DUP3 ADD SWAP2 POP PUSH1 0x20 DUP6 ADD SWAP5 POP PUSH1 0x20 DUP2 ADD SWAP1 POP PUSH2 0x654 JUMP JUMPDEST DUP7 DUP4 LT ISZERO PUSH2 0x696 JUMPI DUP5 DUP10 ADD MLOAD PUSH2 0x692 PUSH1 0x1F DUP10 AND DUP3 PUSH2 0x5A5 JUMP JUMPDEST DUP4 SSTORE POP JUMPDEST PUSH1 0x1 PUSH1 0x2 DUP9 MUL ADD DUP9 SSTORE POP POP POP JUMPDEST POP POP POP POP POP POP JUMP JUMPDEST PUSH2 0x164A DUP1 PUSH2 0x6B8 PUSH0 CODECOPY PUSH0 RETURN INVALID PUSH1 0x80 PUSH1 0x40 MSTORE CALLVALUE DUP1 ISZERO PUSH2 0xF JUMPI PUSH0 DUP1 REVERT JUMPDEST POP PUSH1 0x4 CALLDATASIZE LT PUSH2 0x9C JUMPI PUSH0 CALLDATALOAD PUSH1 0xE0 SHR DUP1 PUSH4 0x76804A03 GT PUSH2 0x64 JUMPI DUP1 PUSH4 0x76804A03 EQ PUSH2 0x143 JUMPI DUP1 PUSH4 0x8DA5CB5B EQ PUSH2 0x161 JUMPI DUP1 PUSH4 0xA3EC138D EQ PUSH2 0x17F JUMPI DUP1 PUSH4 0xA5134620 EQ PUSH2 0x1AF JUMPI DUP1 PUSH4 0xD80528AE EQ PUSH2 0x1CD JUMPI PUSH2 0x9C JUMP JUMPDEST DUP1 PUSH4 0x121B93F EQ PUSH2 0xA0 JUMPI DUP1 PUSH4 0x13CF08B EQ PUSH2 0xBC JUMPI DUP1 PUSH4 0x2FDAE3C5 EQ PUSH2 0xED JUMPI DUP1 PUSH4 0x62564C48 EQ PUSH2 0x109 JUMPI DUP1 PUSH4 0x7478C9FE EQ PUSH2 0x127 JUMPI JUMPDEST PUSH0 DUP1 REVERT JUMPDEST PUSH2 0xBA PUSH1 0x4 DUP1 CALLDATASIZE SUB DUP2 ADD SWAP1 PUSH2 0xB5 SWAP2 SWAP1 PUSH2 0xA5F JUMP JUMPDEST PUSH2 0x1EE JUMP JUMPDEST STOP JUMPDEST PUSH2 0xD6 PUSH1 0x4 DUP1 CALLDATASIZE SUB DUP2 ADD SWAP1 PUSH2 0xD1 SWAP2 SWAP1 PUSH2 0xA5F JUMP JUMPDEST PUSH2 0x41D JUMP JUMPDEST PUSH1 0x40 MLOAD PUSH2 0xE4 SWAP3 SWAP2 SWAP1 PUSH2 0xB09 JUMP JUMPDEST PUSH1 0x40 MLOAD DUP1 SWAP2 SUB SWAP1 RETURN JUMPDEST PUSH2 0x107 PUSH1 0x4 DUP1 CALLDATASIZE SUB DUP2 ADD SWAP1 PUSH2 0x102 SWAP2 SWAP1 PUSH2 0xC63 JUMP JUMPDEST PUSH2 0x4D1 JUMP JUMPDEST STOP JUMPDEST PUSH2 0x111 PUSH2 0x5BF JUMP JUMPDEST PUSH1 0x40 MLOAD PUSH2 0x11E SWAP2 SWAP1 PUSH2 0xDF6 JUMP JUMPDEST PUSH1 0x40 MLOAD DUP1 SWAP2 SUB SWAP1 RETURN JUMPDEST PUSH2 0x141 PUSH1 0x4 DUP1 CALLDATASIZE SUB DUP2 ADD SWAP1 PUSH2 0x13C SWAP2 SWAP1 PUSH2 0xE4B JUMP JUMPDEST PUSH2 0x6B3 JUMP JUMPDEST STOP JUMPDEST PUSH2 0x14B PUSH2 0x797 JUMP JUMPDEST PUSH1 0x40 MLOAD PUSH2 0x158 SWAP2 SWAP1 PUSH2 0xED8 JUMP JUMPDEST PUSH1 0x40 MLOAD DUP1 SWAP2 SUB SWAP1 RETURN JUMPDEST PUSH2 0x169 PUSH2 0x7E8 JUMP JUMPDEST PUSH1 0x40 MLOAD PUSH2 0x176 SWAP2 SWAP1 PUSH2 0xF30 JUMP JUMPDEST PUSH1 0x40 MLOAD DUP1 SWAP2 SUB SWAP1 RETURN JUMPDEST PUSH2 0x199 PUSH1 0x4 DUP1 CALLDATASIZE SUB DUP2 ADD SWAP1 PUSH2 0x194 SWAP2 SWAP1 PUSH2 0xF73 JUMP JUMPDEST PUSH2 0x80D JUMP JUMPDEST PUSH1 0x40 MLOAD PUSH2 0x1A6 SWAP2 SWAP1 PUSH2 0xFAD JUMP JUMPDEST PUSH1 0x40 MLOAD DUP1 SWAP2 SUB SWAP1 RETURN JUMPDEST PUSH2 0x1B7 PUSH2 0x82A JUMP JUMPDEST PUSH1 0x40 MLOAD PUSH2 0x1C4 SWAP2 SWAP1 PUSH2 0x1000 JUMP JUMPDEST PUSH1 0x40 MLOAD DUP1 SWAP2 SUB SWAP1 RETURN JUMPDEST PUSH2 0x1D5 PUSH2 0x9B3 JUMP JUMPDEST PUSH1 0x40 MLOAD PUSH2 0x1E5 SWAP5 SWAP4 SWAP3 SWAP2 SWAP1 PUSH2 0x1020 JUMP JUMPDEST PUSH1 0x40 MLOAD DUP1 SWAP2 SUB SWAP1 RETURN JUMPDEST PUSH1 0x3 DUP1 ADD PUSH0 SWAP1 SLOAD SWAP1 PUSH2 0x100 EXP SWAP1 DIV PUSH1 0xFF AND PUSH2 0x23E JUMPI PUSH1 0x40 MLOAD PUSH32 0x8C379A000000000000000000000000000000000000000000000000000000000 DUP2 MSTORE PUSH1 0x4 ADD PUSH2 0x235 SWAP1 PUSH2 0x10AD JUMP JUMPDEST PUSH1 0x40 MLOAD DUP1 SWAP2 SUB SWAP1 REVERT JUMPDEST PUSH0 DUP1 SLOAD SWAP1 POP DUP2 LT PUSH2 0x284 JUMPI PUSH1 0x40 MLOAD PUSH32 0x8C379A000000000000000000000000000000000000000000000000000000000 DUP2 MSTORE PUSH1 0x4 ADD PUSH2 0x27B SWAP1 PUSH2 0x1115 JUMP JUMPDEST PUSH1 0x40 MLOAD DUP1 SWAP2 SUB SWAP1 REVERT JUMPDEST PUSH1 0x1 PUSH0 CALLER PUSH20 0xFFFFFFFFFFFFFFFFFFFFFFFFFFFFFFFFFFFFFFFF AND PUSH20 0xFFFFFFFFFFFFFFFFFFFFFFFFFFFFFFFFFFFFFFFF AND DUP2 MSTORE PUSH1 0x20 ADD SWAP1 DUP2 MSTORE PUSH1 0x20 ADD PUSH0 KECCAK256 PUSH0 SWAP1 SLOAD SWAP1 PUSH2 0x100 EXP SWAP1 DIV PUSH1 0xFF AND ISZERO PUSH2 0x30E JUMPI PUSH1 0x40 MLOAD PUSH32 0x8C379A000000000000000000000000000000000000000000000000000000000 DUP2 MSTORE PUSH1 0x4 ADD PUSH2 0x305 SWAP1 PUSH2 0x117D JUMP JUMPDEST PUSH1 0x40 MLOAD DUP1 SWAP2 SUB SWAP1 REVERT JUMPDEST PUSH0 DUP2 DUP2 SLOAD DUP2 LT PUSH2 0x321 JUMPI PUSH2 0x320 PUSH2 0x119B JUMP JUMPDEST JUMPDEST SWAP1 PUSH0 MSTORE PUSH1 0x20 PUSH0 KECCAK256 SWAP1 PUSH1 0x2 MUL ADD PUSH1 0x1 ADD PUSH0 DUP2 SLOAD DUP1 SWAP3 SWAP2 SWAP1 PUSH2 0x340 SWAP1 PUSH2 0x11F5 JUMP JUMPDEST SWAP2 SWAP1 POP SSTORE POP PUSH1 0x1 DUP1 PUSH0 CALLER PUSH20 0xFFFFFFFFFFFFFFFFFFFFFFFFFFFFFFFFFFFFFFFF AND PUSH20 0xFFFFFFFFFFFFFFFFFFFFFFFFFFFFFFFFFFFFFFFF AND DUP2 MSTORE PUSH1 0x20 ADD SWAP1 DUP2 MSTORE PUSH1 0x20 ADD PUSH0 KECCAK256 PUSH0 PUSH2 0x100 EXP DUP2 SLOAD DUP2 PUSH1 0xFF MUL NOT AND SWAP1 DUP4 ISZERO ISZERO MUL OR SWAP1 SSTORE POP PUSH1 0x3 PUSH0 ADD PUSH0 DUP2 SLOAD DUP1 SWAP3 SWAP2 SWAP1 PUSH2 0x3AD SWAP1 PUSH2 0x11F5 JUMP JUMPDEST SWAP2 SWAP1 POP SSTORE POP PUSH1 0x3 PUSH1 0x1 ADD PUSH0 DUP2 SLOAD DUP1 SWAP3 SWAP2 SWAP1 PUSH2 0x3C7 SWAP1 PUSH2 0x11F5 JUMP JUMPDEST SWAP2 SWAP1 POP SSTORE POP CALLER PUSH20 0xFFFFFFFFFFFFFFFFFFFFFFFFFFFFFFFFFFFFFFFF AND PUSH32 0xA36CC2BEBB74DB33E9F88110A07EF56E1B31B24B4C4F51B54B1664266E29F45B DUP3 PUSH1 0x40 MLOAD PUSH2 0x412 SWAP2 SWAP1 PUSH2 0x123C JUMP JUMPDEST PUSH1 0x40 MLOAD DUP1 SWAP2 SUB SWAP1 LOG2 POP JUMP JUMPDEST PUSH0 DUP2 DUP2 SLOAD DUP2 LT PUSH2 0x42B JUMPI PUSH0 DUP1 REVERT JUMPDEST SWAP1 PUSH0 MSTORE PUSH1 0x20 PUSH0 KECCAK256 SWAP1 PUSH1 0x2 MUL ADD PUSH0 SWAP2 POP SWAP1 POP DUP1 PUSH0 ADD DUP1 SLOAD PUSH2 0x44A SWAP1 PUSH2 0x1282 JUMP JUMPDEST DUP1 PUSH1 0x1F ADD PUSH1 0x20 DUP1 SWAP2 DIV MUL PUSH1 0x20 ADD PUSH1 0x40 MLOAD SWAP1 DUP2 ADD PUSH1 0x40 MSTORE DUP1 SWAP3 SWAP2 SWAP1 DUP2 DUP2 MSTORE PUSH1 0x20 ADD DUP3 DUP1 SLOAD PUSH2 0x476 SWAP1 PUSH2 0x1282 JUMP JUMPDEST DUP1 ISZERO PUSH2 0x4C1 JUMPI DUP1 PUSH1 0x1F LT PUSH2 0x498 JUMPI PUSH2 0x100 DUP1 DUP4 SLOAD DIV MUL DUP4 MSTORE SWAP2 PUSH1 0x20 ADD SWAP2 PUSH2 0x4C1 JUMP JUMPDEST DUP3 ADD SWAP2 SWAP1 PUSH0 MSTORE PUSH1 0x20 PUSH0 KECCAK256 SWAP1 JUMPDEST DUP2 SLOAD DUP2 MSTORE SWAP1 PUSH1 0x1 ADD SWAP1 PUSH1 0x20 ADD DUP1 DUP4 GT PUSH2 0x4A4 JUMPI DUP3 SWAP1 SUB PUSH1 0x1F AND DUP3 ADD SWAP2 JUMPDEST POP POP POP POP POP SWAP1 DUP1 PUSH1 0x1 ADD SLOAD SWAP1 POP DUP3 JUMP JUMPDEST PUSH1 0x2 PUSH0 SWAP1 SLOAD SWAP1 PUSH2 0x100 EXP SWAP1 DIV PUSH20 0xFFFFFFFFFFFFFFFFFFFFFFFFFFFFFFFFFFFFFFFF AND PUSH20 0xFFFFFFFFFFFFFFFFFFFFFFFFFFFFFFFFFFFFFFFF AND CALLER PUSH20 0xFFFFFFFFFFFFFFFFFFFFFFFFFFFFFFFFFFFFFFFF AND EQ PUSH2 0x560 JUMPI PUSH1 0x40 MLOAD PUSH32 0x8C379A000000000000000000000000000000000000000000000000000000000 DUP2 MSTORE PUSH1 0x4 ADD PUSH2 0x557 SWAP1 PUSH2 0x1322 JUMP JUMPDEST PUSH1 0x40 MLOAD DUP1 SWAP2 SUB SWAP1 REVERT JUMPDEST PUSH0 PUSH1 0x40 MLOAD DUP1 PUSH1 0x40 ADD PUSH1 0x40 MSTORE DUP1 DUP4 DUP2 MSTORE PUSH1 0x20 ADD PUSH0 DUP2 MSTORE POP SWAP1 DUP1 PUSH1 0x1 DUP2 SLOAD ADD DUP1 DUP3 SSTORE DUP1 SWAP2 POP POP PUSH1 0x1 SWAP1 SUB SWAP1 PUSH0 MSTORE PUSH1 0x20 PUSH0 KECCAK256 SWAP1 PUSH1 0x2 MUL ADD PUSH0 SWAP1 SWAP2 SWAP1 SWAP2 SWAP1 SWAP2 POP PUSH0 DUP3 ADD MLOAD DUP2 PUSH0 ADD SWAP1 DUP2 PUSH2 0x5AF SWAP2 SWAP1 PUSH2 0x14DD JUMP JUMPDEST POP PUSH1 0x20 DUP3 ADD MLOAD DUP2 PUSH1 0x1 ADD SSTORE POP POP POP JUMP JUMPDEST PUSH1 0x60 PUSH0 DUP1 SLOAD DUP1 PUSH1 0x20 MUL PUSH1 0x20 ADD PUSH1 0x40 MLOAD SWAP1 DUP2 ADD PUSH1 0x40 MSTORE DUP1 SWAP3 SWAP2 SWAP1 DUP2 DUP2 MSTORE PUSH1 0x20 ADD PUSH0 SWAP1 JUMPDEST DUP3 DUP3 LT ISZERO PUSH2 0x6AA JUMPI DUP4 DUP3 SWAP1 PUSH0 MSTORE PUSH1 0x20 PUSH0 KECCAK256 SWAP1 PUSH1 0x2 MUL ADD PUSH1 0x40 MLOAD DUP1 PUSH1 0x40 ADD PUSH1 0x40 MSTORE SWAP1 DUP2 PUSH0 DUP3 ADD DUP1 SLOAD PUSH2 0x611 SWAP1 PUSH2 0x1282 JUMP JUMPDEST DUP1 PUSH1 0x1F ADD PUSH1 0x20 DUP1 SWAP2 DIV MUL PUSH1 0x20 ADD PUSH1 0x40 MLOAD SWAP1 DUP2 ADD PUSH1 0x40 MSTORE DUP1 SWAP3 SWAP2 SWAP1 DUP2 DUP2 MSTORE PUSH1 0x20 ADD DUP3 DUP1 SLOAD PUSH2 0x63D SWAP1 PUSH2 0x1282 JUMP JUMPDEST DUP1 ISZERO PUSH2 0x688 JUMPI DUP1 PUSH1 0x1F LT PUSH2 0x65F JUMPI PUSH2 0x100 DUP1 DUP4 SLOAD DIV MUL DUP4 MSTORE SWAP2 PUSH1 0x20 ADD SWAP2 PUSH2 0x688 JUMP JUMPDEST DUP3 ADD SWAP2 SWAP1 PUSH0 MSTORE PUSH1 0x20 PUSH0 KECCAK256 SWAP1 JUMPDEST DUP2 SLOAD DUP2 MSTORE SWAP1 PUSH1 0x1 ADD SWAP1 PUSH1 0x20 ADD DUP1 DUP4 GT PUSH2 0x66B JUMPI DUP3 SWAP1 SUB PUSH1 0x1F AND DUP3 ADD SWAP2 JUMPDEST POP POP POP POP POP DUP2 MSTORE PUSH1 0x20 ADD PUSH1 0x1 DUP3 ADD SLOAD DUP2 MSTORE POP POP DUP2 MSTORE PUSH1 0x20 ADD SWAP1 PUSH1 0x1 ADD SWAP1 PUSH2 0x5E1 JUMP JUMPDEST POP POP POP POP SWAP1 POP SWAP1 JUMP JUMPDEST PUSH1 0x2 PUSH0 SWAP1 SLOAD SWAP1 PUSH2 0x100 EXP SWAP1 DIV PUSH20 0xFFFFFFFFFFFFFFFFFFFFFFFFFFFFFFFFFFFFFFFF AND PUSH20 0xFFFFFFFFFFFFFFFFFFFFFFFFFFFFFFFFFFFFFFFF AND CALLER PUSH20 0xFFFFFFFFFFFFFFFFFFFFFFFFFFFFFFFFFFFFFFFF AND EQ PUSH2 0x742 JUMPI PUSH1 0x40 MLOAD PUSH32 0x8C379A000000000000000000000000000000000000000000000000000000000 DUP2 MSTORE PUSH1 0x4 ADD PUSH2 0x739 SWAP1 PUSH2 0x1322 JUMP JUMPDEST PUSH1 0x40 MLOAD DUP1 SWAP2 SUB SWAP1 REVERT JUMPDEST DUP1 PUSH1 0x3 DUP1 ADD PUSH0 PUSH2 0x100 EXP DUP2 SLOAD DUP2 PUSH1 0xFF MUL NOT AND SWAP1 DUP4 ISZERO ISZERO MUL OR SWAP1 SSTORE POP PUSH32 0x9069A1A16ACE751E8690F383E12F87B01E8488BA387E626810BD113FEF0417F9 DUP2 PUSH1 0x40 MLOAD PUSH2 0x78C SWAP2 SWAP1 PUSH2 0xFAD JUMP JUMPDEST PUSH1 0x40 MLOAD DUP1 SWAP2 SUB SWAP1 LOG1 POP JUMP JUMPDEST PUSH2 0x79F PUSH2 0x9DC JUMP JUMPDEST PUSH1 0x3 PUSH1 0x40 MLOAD DUP1 PUSH1 0x80 ADD PUSH1 0x40 MSTORE SWAP1 DUP2 PUSH0 DUP3 ADD SLOAD DUP2 MSTORE PUSH1 0x20 ADD PUSH1 0x1 DUP3 ADD SLOAD DUP2 MSTORE PUSH1 0x20 ADD PUSH1 0x2 DUP3 ADD SLOAD DUP2 MSTORE PUSH1 0x20 ADD PUSH1 0x3 DUP3 ADD PUSH0 SWAP1 SLOAD SWAP1 PUSH2 0x100 EXP SWAP1 DIV PUSH1 0xFF AND ISZERO ISZERO ISZERO ISZERO DUP2 MSTORE POP POP SWAP1 POP SWAP1 JUMP JUMPDEST PUSH1 0x2 PUSH0 SWAP1 SLOAD SWAP1 PUSH2 0x100 EXP SWAP1 DIV PUSH20 0xFFFFFFFFFFFFFFFFFFFFFFFFFFFFFFFFFFFFFFFF AND DUP2 JUMP JUMPDEST PUSH1 0x1 PUSH1 0x20 MSTORE DUP1 PUSH0 MSTORE PUSH1 0x40 PUSH0 KECCAK256 PUSH0 SWAP2 POP SLOAD SWAP1 PUSH2 0x100 EXP SWAP1 DIV PUSH1 0xFF AND DUP2 JUMP JUMPDEST PUSH2 0x832 PUSH2 0xA02 JUMP JUMPDEST PUSH0 DUP1 DUP1 SLOAD SWAP1 POP GT PUSH2 0x878 JUMPI PUSH1 0x40 MLOAD PUSH32 0x8C379A000000000000000000000000000000000000000000000000000000000 DUP2 MSTORE PUSH1 0x4 ADD PUSH2 0x86F SWAP1 PUSH2 0x15F6 JUMP JUMPDEST PUSH1 0x40 MLOAD DUP1 SWAP2 SUB SWAP1 REVERT JUMPDEST PUSH0 DUP1 PUSH0 JUMPDEST PUSH0 DUP1 SLOAD SWAP1 POP DUP2 LT ISZERO PUSH2 0x8E8 JUMPI DUP2 PUSH0 DUP3 DUP2 SLOAD DUP2 LT PUSH2 0x89C JUMPI PUSH2 0x89B PUSH2 0x119B JUMP JUMPDEST JUMPDEST SWAP1 PUSH0 MSTORE PUSH1 0x20 PUSH0 KECCAK256 SWAP1 PUSH1 0x2 MUL ADD PUSH1 0x1 ADD SLOAD GT ISZERO PUSH2 0x8DB JUMPI PUSH0 DUP2 DUP2 SLOAD DUP2 LT PUSH2 0x8C5 JUMPI PUSH2 0x8C4 PUSH2 0x119B JUMP JUMPDEST JUMPDEST SWAP1 PUSH0 MSTORE PUSH1 0x20 PUSH0 KECCAK256 SWAP1 PUSH1 0x2 MUL ADD PUSH1 0x1 ADD SLOAD SWAP2 POP DUP1 SWAP3 POP JUMPDEST DUP1 DUP1 PUSH1 0x1 ADD SWAP2 POP POP PUSH2 0x87C JUMP JUMPDEST POP PUSH0 DUP3 DUP2 SLOAD DUP2 LT PUSH2 0x8FC JUMPI PUSH2 0x8FB PUSH2 0x119B JUMP JUMPDEST JUMPDEST SWAP1 PUSH0 MSTORE PUSH1 0x20 PUSH0 KECCAK256 SWAP1 PUSH1 0x2 MUL ADD PUSH1 0x40 MLOAD DUP1 PUSH1 0x40 ADD PUSH1 0x40 MSTORE SWAP1 DUP2 PUSH0 DUP3 ADD DUP1 SLOAD PUSH2 0x922 SWAP1 PUSH2 0x1282 JUMP JUMPDEST DUP1 PUSH1 0x1F ADD PUSH1 0x20 DUP1 SWAP2 DIV MUL PUSH1 0x20 ADD PUSH1 0x40 MLOAD SWAP1 DUP2 ADD PUSH1 0x40 MSTORE DUP1 SWAP3 SWAP2 SWAP1 DUP2 DUP2 MSTORE PUSH1 0x20 ADD DUP3 DUP1 SLOAD PUSH2 0x94E SWAP1 PUSH2 0x1282 JUMP JUMPDEST DUP1 ISZERO PUSH2 0x999 JUMPI DUP1 PUSH1 0x1F LT PUSH2 0x970 JUMPI PUSH2 0x100 DUP1 DUP4 SLOAD DIV MUL DUP4 MSTORE SWAP2 PUSH1 0x20 ADD SWAP2 PUSH2 0x999 JUMP JUMPDEST DUP3 ADD SWAP2 SWAP1 PUSH0 MSTORE PUSH1 0x20 PUSH0 KECCAK256 SWAP1 JUMPDEST DUP2 SLOAD DUP2 MSTORE SWAP1 PUSH1 0x1 ADD SWAP1 PUSH1 0x20 ADD DUP1 DUP4 GT PUSH2 0x97C JUMPI DUP3 SWAP1 SUB PUSH1 0x1F AND DUP3 ADD SWAP2 JUMPDEST POP POP POP POP POP DUP2 MSTORE PUSH1 0x20 ADD PUSH1 0x1 DUP3 ADD SLOAD DUP2 MSTORE POP POP SWAP3 POP POP POP SWAP1 JUMP JUMPDEST PUSH1 0x3 DUP1 PUSH0 ADD SLOAD SWAP1 DUP1 PUSH1 0x1 ADD SLOAD SWAP1 DUP1 PUSH1 0x2 ADD SLOAD SWAP1 DUP1 PUSH1 0x3 ADD PUSH0 SWAP1 SLOAD SWAP1 PUSH2 0x100 EXP SWAP1 DIV PUSH1 0xFF AND SWAP1 POP DUP5 JUMP JUMPDEST PUSH1 0x40 MLOAD DUP1 PUSH1 0x80 ADD PUSH1 0x40 MSTORE DUP1 PUSH0 DUP2 MSTORE PUSH1 0x20 ADD PUSH0 DUP2 MSTORE PUSH1 0x20 ADD PUSH0 DUP2 MSTORE PUSH1 0x20 ADD PUSH0 ISZERO ISZERO DUP2 MSTORE POP SWAP1 JUMP JUMPDEST PUSH1 0x40 MLOAD DUP1 PUSH1 0x40 ADD PUSH1 0x40 MSTORE DUP1 PUSH1 0x60 DUP2 MSTORE PUSH1 0x20 ADD PUSH0 DUP2 MSTORE POP SWAP1 JUMP JUMPDEST PUSH0 PUSH1 0x40 MLOAD SWAP1 POP SWAP1 JUMP JUMPDEST PUSH0 DUP1 REVERT JUMPDEST PUSH0 DUP1 REVERT JUMPDEST PUSH0 DUP2 SWAP1 POP SWAP2 SWAP1 POP JUMP JUMPDEST PUSH2 0xA3E DUP2 PUSH2 0xA2C JUMP JUMPDEST DUP2 EQ PUSH2 0xA48 JUMPI PUSH0 DUP1 REVERT JUMPDEST POP JUMP JUMPDEST PUSH0 DUP2 CALLDATALOAD SWAP1 POP PUSH2 0xA59 DUP2 PUSH2 0xA35 JUMP JUMPDEST SWAP3 SWAP2 POP POP JUMP JUMPDEST PUSH0 PUSH1 0x20 DUP3 DUP5 SUB SLT ISZERO PUSH2 0xA74 JUMPI PUSH2 0xA73 PUSH2 0xA24 JUMP JUMPDEST JUMPDEST PUSH0 PUSH2 0xA81 DUP5 DUP3 DUP6 ADD PUSH2 0xA4B JUMP JUMPDEST SWAP2 POP POP SWAP3 SWAP2 POP POP JUMP JUMPDEST PUSH0 DUP2 MLOAD SWAP1 POP SWAP2 SWAP1 POP JUMP JUMPDEST PUSH0 DUP3 DUP3 MSTORE PUSH1 0x20 DUP3 ADD SWAP1 POP SWAP3 SWAP2 POP POP JUMP JUMPDEST DUP3 DUP2 DUP4 MCOPY PUSH0 DUP4 DUP4 ADD MSTORE POP POP POP JUMP JUMPDEST PUSH0 PUSH1 0x1F NOT PUSH1 0x1F DUP4 ADD AND SWAP1 POP SWAP2 SWAP1 POP JUMP JUMPDEST PUSH0 PUSH2 0xACC DUP3 PUSH2 0xA8A JUMP JUMPDEST PUSH2 0xAD6 DUP2 DUP6 PUSH2 0xA94 JUMP JUMPDEST SWAP4 POP PUSH2 0xAE6 DUP2 DUP6 PUSH1 0x20 DUP7 ADD PUSH2 0xAA4 JUMP JUMPDEST PUSH2 0xAEF DUP2 PUSH2 0xAB2 JUMP JUMPDEST DUP5 ADD SWAP2 POP POP SWAP3 SWAP2 POP POP JUMP JUMPDEST PUSH2 0xB03 DUP2 PUSH2 0xA2C JUMP JUMPDEST DUP3 MSTORE POP POP JUMP JUMPDEST PUSH0 PUSH1 0x40 DUP3 ADD SWAP1 POP DUP2 DUP2 SUB PUSH0 DUP4 ADD MSTORE PUSH2 0xB21 DUP2 DUP6 PUSH2 0xAC2 JUMP JUMPDEST SWAP1 POP PUSH2 0xB30 PUSH1 0x20 DUP4 ADD DUP5 PUSH2 0xAFA JUMP JUMPDEST SWAP4 SWAP3 POP POP POP JUMP JUMPDEST PUSH0 DUP1 REVERT JUMPDEST PUSH0 DUP1 REVERT JUMPDEST PUSH32 0x4E487B7100000000000000000000000000000000000000000000000000000000 PUSH0 MSTORE PUSH1 0x41 PUSH1 0x4 MSTORE PUSH1 0x24 PUSH0 REVERT JUMPDEST PUSH2 0xB75 DUP3 PUSH2 0xAB2 JUMP JUMPDEST DUP2 ADD DUP2 DUP2 LT PUSH8 0xFFFFFFFFFFFFFFFF DUP3 GT OR ISZERO PUSH2 0xB94 JUMPI PUSH2 0xB93 PUSH2 0xB3F JUMP JUMPDEST JUMPDEST DUP1 PUSH1 0x40 MSTORE POP POP POP JUMP JUMPDEST PUSH0 PUSH2 0xBA6 PUSH2 0xA1B JUMP JUMPDEST SWAP1 POP PUSH2 0xBB2 DUP3 DUP3 PUSH2 0xB6C JUMP JUMPDEST SWAP2 SWAP1 POP JUMP JUMPDEST PUSH0 PUSH8 0xFFFFFFFFFFFFFFFF DUP3 GT ISZERO PUSH2 0xBD1 JUMPI PUSH2 0xBD0 PUSH2 0xB3F JUMP JUMPDEST JUMPDEST PUSH2 0xBDA DUP3 PUSH2 0xAB2 JUMP JUMPDEST SWAP1 POP PUSH1 0x20 DUP2 ADD SWAP1 POP SWAP2 SWAP1 POP JUMP JUMPDEST DUP3 DUP2 DUP4 CALLDATACOPY PUSH0 DUP4 DUP4 ADD MSTORE POP POP POP JUMP JUMPDEST PUSH0 PUSH2 0xC07 PUSH2 0xC02 DUP5 PUSH2 0xBB7 JUMP JUMPDEST PUSH2 0xB9D JUMP JUMPDEST SWAP1 POP DUP3 DUP2 MSTORE PUSH1 0x20 DUP2 ADD DUP5 DUP5 DUP5 ADD GT ISZERO PUSH2 0xC23 JUMPI PUSH2 0xC22 PUSH2 0xB3B JUMP JUMPDEST JUMPDEST PUSH2 0xC2E DUP5 DUP3 DUP6 PUSH2 0xBE7 JUMP JUMPDEST POP SWAP4 SWAP3 POP POP POP JUMP JUMPDEST PUSH0 DUP3 PUSH1 0x1F DUP4 ADD SLT PUSH2 0xC4A JUMPI PUSH2 0xC49 PUSH2 0xB37 JUMP JUMPDEST JUMPDEST DUP2 CALLDATALOAD PUSH2 0xC5A DUP5 DUP3 PUSH1 0x20 DUP7 ADD PUSH2 0xBF5 JUMP JUMPDEST SWAP2 POP POP SWAP3 SWAP2 POP POP JUMP JUMPDEST PUSH0 PUSH1 0x20 DUP3 DUP5 SUB SLT ISZERO PUSH2 0xC78 JUMPI PUSH2 0xC77 PUSH2 0xA24 JUMP JUMPDEST JUMPDEST PUSH0 DUP3 ADD CALLDATALOAD PUSH8 0xFFFFFFFFFFFFFFFF DUP2 GT ISZERO PUSH2 0xC95 JUMPI PUSH2 0xC94 PUSH2 0xA28 JUMP JUMPDEST JUMPDEST PUSH2 0xCA1 DUP5 DUP3 DUP6 ADD PUSH2 0xC36 JUMP JUMPDEST SWAP2 POP POP SWAP3 SWAP2 POP POP JUMP JUMPDEST PUSH0 DUP2 MLOAD SWAP1 POP SWAP2 SWAP1 POP JUMP JUMPDEST PUSH0 DUP3 DUP3 MSTORE PUSH1 0x20 DUP3 ADD SWAP1 POP SWAP3 SWAP2 POP POP JUMP JUMPDEST PUSH0 DUP2 SWAP1 POP PUSH1 0x20 DUP3 ADD SWAP1 POP SWAP2 SWAP1 POP JUMP JUMPDEST PUSH0 DUP3 DUP3 MSTORE PUSH1 0x20 DUP3 ADD SWAP1 POP SWAP3 SWAP2 POP POP JUMP JUMPDEST PUSH0 PUSH2 0xCED DUP3 PUSH2 0xA8A JUMP JUMPDEST PUSH2 0xCF7 DUP2 DUP6 PUSH2 0xCD3 JUMP JUMPDEST SWAP4 POP PUSH2 0xD07 DUP2 DUP6 PUSH1 0x20 DUP7 ADD PUSH2 0xAA4 JUMP JUMPDEST PUSH2 0xD10 DUP2 PUSH2 0xAB2 JUMP JUMPDEST DUP5 ADD SWAP2 POP POP SWAP3 SWAP2 POP POP JUMP JUMPDEST PUSH2 0xD24 DUP2 PUSH2 0xA2C JUMP JUMPDEST DUP3 MSTORE POP POP JUMP JUMPDEST PUSH0 PUSH1 0x40 DUP4 ADD PUSH0 DUP4 ADD MLOAD DUP5 DUP3 SUB PUSH0 DUP7 ADD MSTORE PUSH2 0xD44 DUP3 DUP3 PUSH2 0xCE3 JUMP JUMPDEST SWAP2 POP POP PUSH1 0x20 DUP4 ADD MLOAD PUSH2 0xD59 PUSH1 0x20 DUP7 ADD DUP3 PUSH2 0xD1B JUMP JUMPDEST POP DUP1 SWAP2 POP POP SWAP3 SWAP2 POP POP JUMP JUMPDEST PUSH0 PUSH2 0xD6F DUP4 DUP4 PUSH2 0xD2A JUMP JUMPDEST SWAP1 POP SWAP3 SWAP2 POP POP JUMP JUMPDEST PUSH0 PUSH1 0x20 DUP3 ADD SWAP1 POP SWAP2 SWAP1 POP JUMP JUMPDEST PUSH0 PUSH2 0xD8D DUP3 PUSH2 0xCAA JUMP JUMPDEST PUSH2 0xD97 DUP2 DUP6 PUSH2 0xCB4 JUMP JUMPDEST SWAP4 POP DUP4 PUSH1 0x20 DUP3 MUL DUP6 ADD PUSH2 0xDA9 DUP6 PUSH2 0xCC4 JUMP JUMPDEST DUP1 PUSH0 JUMPDEST DUP6 DUP2 LT ISZERO PUSH2 0xDE4 JUMPI DUP5 DUP5 SUB DUP10 MSTORE DUP2 MLOAD PUSH2 0xDC5 DUP6 DUP3 PUSH2 0xD64 JUMP JUMPDEST SWAP5 POP PUSH2 0xDD0 DUP4 PUSH2 0xD77 JUMP JUMPDEST SWAP3 POP PUSH1 0x20 DUP11 ADD SWAP10 POP POP PUSH1 0x1 DUP2 ADD SWAP1 POP PUSH2 0xDAC JUMP JUMPDEST POP DUP3 SWAP8 POP DUP8 SWAP6 POP POP POP POP POP POP SWAP3 SWAP2 POP POP JUMP JUMPDEST PUSH0 PUSH1 0x20 DUP3 ADD SWAP1 POP DUP2 DUP2 SUB PUSH0 DUP4 ADD MSTORE PUSH2 0xE0E DUP2 DUP5 PUSH2 0xD83 JUMP JUMPDEST SWAP1 POP SWAP3 SWAP2 POP POP JUMP JUMPDEST PUSH0 DUP2 ISZERO ISZERO SWAP1 POP SWAP2 SWAP1 POP JUMP JUMPDEST PUSH2 0xE2A DUP2 PUSH2 0xE16 JUMP JUMPDEST DUP2 EQ PUSH2 0xE34 JUMPI PUSH0 DUP1 REVERT JUMPDEST POP JUMP JUMPDEST PUSH0 DUP2 CALLDATALOAD SWAP1 POP PUSH2 0xE45 DUP2 PUSH2 0xE21 JUMP JUMPDEST SWAP3 SWAP2 POP POP JUMP JUMPDEST PUSH0 PUSH1 0x20 DUP3 DUP5 SUB SLT ISZERO PUSH2 0xE60 JUMPI PUSH2 0xE5F PUSH2 0xA24 JUMP JUMPDEST JUMPDEST PUSH0 PUSH2 0xE6D DUP5 DUP3 DUP6 ADD PUSH2 0xE37 JUMP JUMPDEST SWAP2 POP POP SWAP3 SWAP2 POP POP JUMP JUMPDEST PUSH2 0xE7F DUP2 PUSH2 0xE16 JUMP JUMPDEST DUP3 MSTORE POP POP JUMP JUMPDEST PUSH1 0x80 DUP3 ADD PUSH0 DUP3 ADD MLOAD PUSH2 0xE99 PUSH0 DUP6 ADD DUP3 PUSH2 0xD1B JUMP JUMPDEST POP PUSH1 0x20 DUP3 ADD MLOAD PUSH2 0xEAC PUSH1 0x20 DUP6 ADD DUP3 PUSH2 0xD1B JUMP JUMPDEST POP PUSH1 0x40 DUP3 ADD MLOAD PUSH2 0xEBF PUSH1 0x40 DUP6 ADD DUP3 PUSH2 0xD1B JUMP JUMPDEST POP PUSH1 0x60 DUP3 ADD MLOAD PUSH2 0xED2 PUSH1 0x60 DUP6 ADD DUP3 PUSH2 0xE76 JUMP JUMPDEST POP POP POP POP JUMP JUMPDEST PUSH0 PUSH1 0x80 DUP3 ADD SWAP1 POP PUSH2 0xEEB PUSH0 DUP4 ADD DUP5 PUSH2 0xE85 JUMP JUMPDEST SWAP3 SWAP2 POP POP JUMP JUMPDEST PUSH0 PUSH20 0xFFFFFFFFFFFFFFFFFFFFFFFFFFFFFFFFFFFFFFFF DUP3 AND SWAP1 POP SWAP2 SWAP1 POP JUMP JUMPDEST PUSH0 PUSH2 0xF1A DUP3 PUSH2 0xEF1 JUMP JUMPDEST SWAP1 POP SWAP2 SWAP1 POP JUMP JUMPDEST PUSH2 0xF2A DUP2 PUSH2 0xF10 JUMP JUMPDEST DUP3 MSTORE POP POP JUMP JUMPDEST PUSH0 PUSH1 0x20 DUP3 ADD SWAP1 POP PUSH2 0xF43 PUSH0 DUP4 ADD DUP5 PUSH2 0xF21 JUMP JUMPDEST SWAP3 SWAP2 POP POP JUMP JUMPDEST PUSH2 0xF52 DUP2 PUSH2 0xF10 JUMP JUMPDEST DUP2 EQ PUSH2 0xF5C JUMPI PUSH0 DUP1 REVERT JUMPDEST POP JUMP JUMPDEST PUSH0 DUP2 CALLDATALOAD SWAP1 POP PUSH2 0xF6D DUP2 PUSH2 0xF49 JUMP JUMPDEST SWAP3 SWAP2 POP POP JUMP JUMPDEST PUSH0 PUSH1 0x20 DUP3 DUP5 SUB SLT ISZERO PUSH2 0xF88 JUMPI PUSH2 0xF87 PUSH2 0xA24 JUMP JUMPDEST JUMPDEST PUSH0 PUSH2 0xF95 DUP5 DUP3 DUP6 ADD PUSH2 0xF5F JUMP JUMPDEST SWAP2 POP POP SWAP3 SWAP2 POP POP JUMP JUMPDEST PUSH2 0xFA7 DUP2 PUSH2 0xE16 JUMP JUMPDEST DUP3 MSTORE POP POP JUMP JUMPDEST PUSH0 PUSH1 0x20 DUP3 ADD SWAP1 POP PUSH2 0xFC0 PUSH0 DUP4 ADD DUP5 PUSH2 0xF9E JUMP JUMPDEST SWAP3 SWAP2 POP POP JUMP JUMPDEST PUSH0 PUSH1 0x40 DUP4 ADD PUSH0 DUP4 ADD MLOAD DUP5 DUP3 SUB PUSH0 DUP7 ADD MSTORE PUSH2 0xFE0 DUP3 DUP3 PUSH2 0xCE3 JUMP JUMPDEST SWAP2 POP POP PUSH1 0x20 DUP4 ADD MLOAD PUSH2 0xFF5 PUSH1 0x20 DUP7 ADD DUP3 PUSH2 0xD1B JUMP JUMPDEST POP DUP1 SWAP2 POP POP SWAP3 SWAP2 POP POP JUMP JUMPDEST PUSH0 PUSH1 0x20 DUP3 ADD SWAP1 POP DUP2 DUP2 SUB PUSH0 DUP4 ADD MSTORE PUSH2 0x1018 DUP2 DUP5 PUSH2 0xFC6 JUMP JUMPDEST SWAP1 POP SWAP3 SWAP2 POP POP JUMP JUMPDEST PUSH0 PUSH1 0x80 DUP3 ADD SWAP1 POP PUSH2 0x1033 PUSH0 DUP4 ADD DUP8 PUSH2 0xAFA JUMP JUMPDEST PUSH2 0x1040 PUSH1 0x20 DUP4 ADD DUP7 PUSH2 0xAFA JUMP JUMPDEST PUSH2 0x104D PUSH1 0x40 DUP4 ADD DUP6 PUSH2 0xAFA JUMP JUMPDEST PUSH2 0x105A PUSH1 0x60 DUP4 ADD DUP5 PUSH2 0xF9E JUMP JUMPDEST SWAP6 SWAP5 POP POP POP POP POP JUMP JUMPDEST PUSH32 0x566F74696E67206973206E6F7420616374697665000000000000000000000000 PUSH0 DUP3 ADD MSTORE POP JUMP JUMPDEST PUSH0 PUSH2 0x1097 PUSH1 0x14 DUP4 PUSH2 0xA94 JUMP JUMPDEST SWAP2 POP PUSH2 0x10A2 DUP3 PUSH2 0x1063 JUMP JUMPDEST PUSH1 0x20 DUP3 ADD SWAP1 POP SWAP2 SWAP1 POP JUMP JUMPDEST PUSH0 PUSH1 0x20 DUP3 ADD SWAP1 POP DUP2 DUP2 SUB PUSH0 DUP4 ADD MSTORE PUSH2 0x10C4 DUP2 PUSH2 0x108B JUMP JUMPDEST SWAP1 POP SWAP2 SWAP1 POP JUMP JUMPDEST PUSH32 0x496E76616C69642070726F706F73616C20494400000000000000000000000000 PUSH0 DUP3 ADD MSTORE POP JUMP JUMPDEST PUSH0 PUSH2 0x10FF PUSH1 0x13 DUP4 PUSH2 0xA94 JUMP JUMPDEST SWAP2 POP PUSH2 0x110A DUP3 PUSH2 0x10CB JUMP JUMPDEST PUSH1 0x20 DUP3 ADD SWAP1 POP SWAP2 SWAP1 POP JUMP JUMPDEST PUSH0 PUSH1 0x20 DUP3 ADD SWAP1 POP DUP2 DUP2 SUB PUSH0 DUP4 ADD MSTORE PUSH2 0x112C DUP2 PUSH2 0x10F3 JUMP JUMPDEST SWAP1 POP SWAP2 SWAP1 POP JUMP JUMPDEST PUSH32 0x416C726561647920766F74656400000000000000000000000000000000000000 PUSH0 DUP3 ADD MSTORE POP JUMP JUMPDEST PUSH0 PUSH2 0x1167 PUSH1 0xD DUP4 PUSH2 0xA94 JUMP JUMPDEST SWAP2 POP PUSH2 0x1172 DUP3 PUSH2 0x1133 JUMP JUMPDEST PUSH1 0x20 DUP3 ADD SWAP1 POP SWAP2 SWAP1 POP JUMP JUMPDEST PUSH0 PUSH1 0x20 DUP3 ADD SWAP1 POP DUP2 DUP2 SUB PUSH0 DUP4 ADD MSTORE PUSH2 0x1194 DUP2 PUSH2 0x115B JUMP JUMPDEST SWAP1 POP SWAP2 SWAP1 POP JUMP JUMPDEST PUSH32 0x4E487B7100000000000000000000000000000000000000000000000000000000 PUSH0 MSTORE PUSH1 0x32 PUSH1 0x4 MSTORE PUSH1 0x24 PUSH0 REVERT JUMPDEST PUSH32 0x4E487B7100000000000000000000000000000000000000000000000000000000 PUSH0 MSTORE PUSH1 0x11 PUSH1 0x4 MSTORE PUSH1 0x24 PUSH0 REVERT JUMPDEST PUSH0 PUSH2 0x11FF DUP3 PUSH2 0xA2C JUMP JUMPDEST SWAP2 POP PUSH32 0xFFFFFFFFFFFFFFFFFFFFFFFFFFFFFFFFFFFFFFFFFFFFFFFFFFFFFFFFFFFFFFFF DUP3 SUB PUSH2 0x1231 JUMPI PUSH2 0x1230 PUSH2 0x11C8 JUMP JUMPDEST JUMPDEST PUSH1 0x1 DUP3 ADD SWAP1 POP SWAP2 SWAP1 POP JUMP JUMPDEST PUSH0 PUSH1 0x20 DUP3 ADD SWAP1 POP PUSH2 0x124F PUSH0 DUP4 ADD DUP5 PUSH2 0xAFA JUMP JUMPDEST SWAP3 SWAP2 POP POP JUMP JUMPDEST PUSH32 0x4E487B7100000000000000000000000000000000000000000000000000000000 PUSH0 MSTORE PUSH1 0x22 PUSH1 0x4 MSTORE PUSH1 0x24 PUSH0 REVERT JUMPDEST PUSH0 PUSH1 0x2 DUP3 DIV SWAP1 POP PUSH1 0x1 DUP3 AND DUP1 PUSH2 0x1299 JUMPI PUSH1 0x7F DUP3 AND SWAP2 POP JUMPDEST PUSH1 0x20 DUP3 LT DUP2 SUB PUSH2 0x12AC JUMPI PUSH2 0x12AB PUSH2 0x1255 JUMP JUMPDEST JUMPDEST POP SWAP2 SWAP1 POP JUMP JUMPDEST PUSH32 0x4F6E6C79206F776E65722063616E2063616C6C20746869732066756E6374696F PUSH0 DUP3 ADD MSTORE PUSH32 0x6E00000000000000000000000000000000000000000000000000000000000000 PUSH1 0x20 DUP3 ADD MSTORE POP JUMP JUMPDEST PUSH0 PUSH2 0x130C PUSH1 0x21 DUP4 PUSH2 0xA94 JUMP JUMPDEST SWAP2 POP PUSH2 0x1317 DUP3 PUSH2 0x12B2 JUMP JUMPDEST PUSH1 0x40 DUP3 ADD SWAP1 POP SWAP2 SWAP1 POP JUMP JUMPDEST PUSH0 PUSH1 0x20 DUP3 ADD SWAP1 POP DUP2 DUP2 SUB PUSH0 DUP4 ADD MSTORE PUSH2 0x1339 DUP2 PUSH2 0x1300 JUMP JUMPDEST SWAP1 POP SWAP2 SWAP1 POP JUMP JUMPDEST PUSH0 DUP2 SWAP1 POP DUP2 PUSH0 MSTORE PUSH1 0x20 PUSH0 KECCAK256 SWAP1 POP SWAP2 SWAP1 POP JUMP JUMPDEST PUSH0 PUSH1 0x20 PUSH1 0x1F DUP4 ADD DIV SWAP1 POP SWAP2 SWAP1 POP JUMP JUMPDEST PUSH0 DUP3 DUP3 SHL SWAP1 POP SWAP3 SWAP2 POP POP JUMP JUMPDEST PUSH0 PUSH1 0x8 DUP4 MUL PUSH2 0x139C PUSH32 0xFFFFFFFFFFFFFFFFFFFFFFFFFFFFFFFFFFFFFFFFFFFFFFFFFFFFFFFFFFFFFFFF DUP3 PUSH2 0x1361 JUMP JUMPDEST PUSH2 0x13A6 DUP7 DUP4 PUSH2 0x1361 JUMP JUMPDEST SWAP6 POP DUP1 NOT DUP5 AND SWAP4 POP DUP1 DUP7 AND DUP5 OR SWAP3 POP POP POP SWAP4 SWAP3 POP POP POP JUMP JUMPDEST PUSH0 DUP2 SWAP1 POP SWAP2 SWAP1 POP JUMP JUMPDEST PUSH0 PUSH2 0x13E1 PUSH2 0x13DC PUSH2 0x13D7 DUP5 PUSH2 0xA2C JUMP JUMPDEST PUSH2 0x13BE JUMP JUMPDEST PUSH2 0xA2C JUMP JUMPDEST SWAP1 POP SWAP2 SWAP1 POP JUMP JUMPDEST PUSH0 DUP2 SWAP1 POP SWAP2 SWAP1 POP JUMP JUMPDEST PUSH2 0x13FA DUP4 PUSH2 0x13C7 JUMP JUMPDEST PUSH2 0x140E PUSH2 0x1406 DUP3 PUSH2 0x13E8 JUMP JUMPDEST DUP5 DUP5 SLOAD PUSH2 0x136D JUMP JUMPDEST DUP3 SSTORE POP POP POP POP JUMP JUMPDEST PUSH0 SWAP1 JUMP JUMPDEST PUSH2 0x1422 PUSH2 0x1416 JUMP JUMPDEST PUSH2 0x142D DUP2 DUP5 DUP5 PUSH2 0x13F1 JUMP JUMPDEST POP POP POP JUMP JUMPDEST JUMPDEST DUP2 DUP2 LT ISZERO PUSH2 0x1450 JUMPI PUSH2 0x1445 PUSH0 DUP3 PUSH2 0x141A JUMP JUMPDEST PUSH1 0x1 DUP2 ADD SWAP1 POP PUSH2 0x1433 JUMP JUMPDEST POP POP JUMP JUMPDEST PUSH1 0x1F DUP3 GT ISZERO PUSH2 0x1495 JUMPI PUSH2 0x1466 DUP2 PUSH2 0x1340 JUMP JUMPDEST PUSH2 0x146F DUP5 PUSH2 0x1352 JUMP JUMPDEST DUP2 ADD PUSH1 0x20 DUP6 LT ISZERO PUSH2 0x147E JUMPI DUP2 SWAP1 POP JUMPDEST PUSH2 0x1492 PUSH2 0x148A DUP6 PUSH2 0x1352 JUMP JUMPDEST DUP4 ADD DUP3 PUSH2 0x1432 JUMP JUMPDEST POP POP JUMPDEST POP POP POP JUMP JUMPDEST PUSH0 DUP3 DUP3 SHR SWAP1 POP SWAP3 SWAP2 POP POP JUMP JUMPDEST PUSH0 PUSH2 0x14B5 PUSH0 NOT DUP5 PUSH1 0x8 MUL PUSH2 0x149A JUMP JUMPDEST NOT DUP1 DUP4 AND SWAP2 POP POP SWAP3 SWAP2 POP POP JUMP JUMPDEST PUSH0 PUSH2 0x14CD DUP4 DUP4 PUSH2 0x14A6 JUMP JUMPDEST SWAP2 POP DUP3 PUSH1 0x2 MUL DUP3 OR SWAP1 POP SWAP3 SWAP2 POP POP JUMP JUMPDEST PUSH2 0x14E6 DUP3 PUSH2 0xA8A JUMP JUMPDEST PUSH8 0xFFFFFFFFFFFFFFFF DUP2 GT ISZERO PUSH2 0x14FF JUMPI PUSH2 0x14FE PUSH2 0xB3F JUMP JUMPDEST JUMPDEST PUSH2 0x1509 DUP3 SLOAD PUSH2 0x1282 JUMP JUMPDEST PUSH2 0x1514 DUP3 DUP3 DUP6 PUSH2 0x1454 JUMP JUMPDEST PUSH0 PUSH1 0x20 SWAP1 POP PUSH1 0x1F DUP4 GT PUSH1 0x1 DUP2 EQ PUSH2 0x1545 JUMPI PUSH0 DUP5 ISZERO PUSH2 0x1533 JUMPI DUP3 DUP8 ADD MLOAD SWAP1 POP JUMPDEST PUSH2 0x153D DUP6 DUP3 PUSH2 0x14C2 JUMP JUMPDEST DUP7 SSTORE POP PUSH2 0x15A4 JUMP JUMPDEST PUSH1 0x1F NOT DUP5 AND PUSH2 0x1553 DUP7 PUSH2 0x1340 JUMP JUMPDEST PUSH0 JUMPDEST DUP3 DUP2 LT ISZERO PUSH2 0x157A JUMPI DUP5 DUP10 ADD MLOAD DUP3 SSTORE PUSH1 0x1 DUP3 ADD SWAP2 POP PUSH1 0x20 DUP6 ADD SWAP5 POP PUSH1 0x20 DUP2 ADD SWAP1 POP PUSH2 0x1555 JUMP JUMPDEST DUP7 DUP4 LT ISZERO PUSH2 0x1597 JUMPI DUP5 DUP10 ADD MLOAD PUSH2 0x1593 PUSH1 0x1F DUP10 AND DUP3 PUSH2 0x14A6 JUMP JUMPDEST DUP4 SSTORE POP JUMPDEST PUSH1 0x1 PUSH1 0x2 DUP9 MUL ADD DUP9 SSTORE POP POP POP JUMPDEST POP POP POP POP POP POP JUMP JUMPDEST PUSH32 0x4E6F2070726F706F73616C732065786973740000000000000000000000000000 PUSH0 DUP3 ADD MSTORE POP JUMP JUMPDEST PUSH0 PUSH2 0x15E0 PUSH1 0x12 DUP4 PUSH2 0xA94 JUMP JUMPDEST SWAP2 POP PUSH2 0x15EB DUP3 PUSH2 0x15AC JUMP JUMPDEST PUSH1 0x20 DUP3 ADD SWAP1 POP SWAP2 SWAP1 POP JUMP JUMPDEST PUSH0 PUSH1 0x20 DUP3 ADD SWAP1 POP DUP2 DUP2 SUB PUSH0 DUP4 ADD MSTORE PUSH2 0x160D DUP2 PUSH2 0x15D4 JUMP JUMPDEST SWAP1 POP SWAP2 SWAP1 POP JUMP INVALID LOG2 PUSH5 0x6970667358 0x22 SLT KECCAK256 0xE4 0xC9 0xCF PUSH23 0x9CAE09B4E10A8B77A365AA5BC0A29223CF6FE070816B71 0xED PUSH23 0xF2921464736F6C634300081A0033000000000000000000 "
				},
				"gasEstimates": {
					"creation": {
						"codeDepositCost": "1141200",
						"executionCost": "infinite",
						"totalCost": "infinite"
					},
					"external": {
						"addProposal(string)": "infinite",
						"getProposals()": "infinite",
						"getVotingStats()": "infinite",
						"getWinningProposal()": "infinite",
						"owner()": "2530",
						"proposals(uint256)": "infinite",
						"setVotingStatus(bool)": "infinite",
						"stats()": "infinite",
						"vote(uint256)": "infinite",
						"voters(address)": "2877"
					}
				},
				"methodIdentifiers": {
					"addProposal(string)": "2fdae3c5",
					"getProposals()": "62564c48",
					"getVotingStats()": "76804a03",
					"getWinningProposal()": "a5134620",
					"owner()": "8da5cb5b",
					"proposals(uint256)": "013cf08b",
					"setVotingStatus(bool)": "7478c9fe",
					"stats()": "d80528ae",
					"vote(uint256)": "0121b93f",
					"voters(address)": "a3ec138d"
				}
			},
			"storageLayout": {
				"storage": [
					{
						"astId": 19,
						"contract": "contracts/Voting.sol:Voting",
						"label": "proposals",
						"offset": 0,
						"slot": "0",
						"type": "t_array(t_struct(Proposal)6_storage)dyn_storage"
					},
					{
						"astId": 23,
						"contract": "contracts/Voting.sol:Voting",
						"label": "voters",
						"offset": 0,
						"slot": "1",
						"type": "t_mapping(t_address,t_bool)"
					},
					{
						"astId": 25,
						"contract": "contracts/Voting.sol:Voting",
						"label": "owner",
						"offset": 0,
						"slot": "2",
						"type": "t_address"
					},
					{
						"astId": 28,
						"contract": "contracts/Voting.sol:Voting",
						"label": "stats",
						"offset": 0,
						"slot": "3",
						"type": "t_struct(VotingStats)15_storage"
					}
				],
				"types": {
					"t_address": {
						"encoding": "inplace",
						"label": "address",
						"numberOfBytes": "20"
					},
					"t_array(t_struct(Proposal)6_storage)dyn_storage": {
						"base": "t_struct(Proposal)6_storage",
						"encoding": "dynamic_array",
						"label": "struct Voting.Proposal[]",
						"numberOfBytes": "32"
					},
					"t_bool": {
						"encoding": "inplace",
						"label": "bool",
						"numberOfBytes": "1"
					},
					"t_mapping(t_address,t_bool)": {
						"encoding": "mapping",
						"key": "t_address",
						"label": "mapping(address => bool)",
						"numberOfBytes": "32",
						"value": "t_bool"
					},
					"t_string_storage": {
						"encoding": "bytes",
						"label": "string",
						"numberOfBytes": "32"
					},
					"t_struct(Proposal)6_storage": {
						"encoding": "inplace",
						"label": "struct Voting.Proposal",
						"members": [
							{
								"astId": 3,
								"contract": "contracts/Voting.sol:Voting",
								"label": "name",
								"offset": 0,
								"slot": "0",
								"type": "t_string_storage"
							},
							{
								"astId": 5,
								"contract": "contracts/Voting.sol:Voting",
								"label": "voteCount",
								"offset": 0,
								"slot": "1",
								"type": "t_uint256"
							}
						],
						"numberOfBytes": "64"
					},
					"t_struct(VotingStats)15_storage": {
						"encoding": "inplace",
						"label": "struct Voting.VotingStats",
						"members": [
							{
								"astId": 8,
								"contract": "contracts/Voting.sol:Voting",
								"label": "totalVotes",
								"offset": 0,
								"slot": "0",
								"type": "t_uint256"
							},
							{
								"astId": 10,
								"contract": "contracts/Voting.sol:Voting",
								"label": "totalVoters",
								"offset": 0,
								"slot": "1",
								"type": "t_uint256"
							},
							{
								"astId": 12,
								"contract": "contracts/Voting.sol:Voting",
								"label": "startTime",
								"offset": 0,
								"slot": "2",
								"type": "t_uint256"
							},
							{
								"astId": 14,
								"contract": "contracts/Voting.sol:Voting",
								"label": "isActive",
								"offset": 0,
								"slot": "3",
								"type": "t_bool"
							}
						],
						"numberOfBytes": "128"
					},
					"t_uint256": {
						"encoding": "inplace",
						"label": "uint256",
						"numberOfBytes": "32"
					}
				}
			},
			"userdoc": {
				"kind": "user",
				"methods": {},
				"version": 1
			}
		}
	}
}